202501100010002000000000000000000119000000000000000001198000000000030716119951COMBUSTIBLES ITALO A          000000070171923000000000000000000000000000000000000000000000000000000000000000000000000000000000000000000000000000000000PES00010000001000000000000000020250211
202501220010002000000000000000000120000000000000000001208000000000030716119951COMBUSTIBLES ITALO A          000000070171923000000000000000000000000000000000000000000000000000000000000000000000000000000000000000000000000000000000PES00010000001000000000000000020250211
202501230010002000000000000000000121000000000000000001218000000000030716119951COMBUSTIBLES ITALO A          000000127866836000000000000000000000000000000000000000000000000000000000000000000000000000000000000000000000000000000000PES00010000001000000000000000020250211
202501240010002000000000000000000122000000000000000001228000000000030716119951COMBUSTIBLES ITALO A          000000138182235000000000000000000000000000000000000000000000000000000000000000000000000000000000000000000000000000000000PES00010000001000000000000000020250211
202501300030002000000000000000000005000000000000000000058000000000030716119951COMBUSTIBLES ITALO A          000000070171923000000000000000000000000000000000000000000000000000000000000000000000000000000000000000000000000000000000PES00010000001000000000000000020250211
202501300010002000000000000000000123000000000000000001238000000000030716119951COMBUSTIBLES ITALO A          000000151848489000000000000000000000000000000000000000000000000000000000000000000000000000000000000000000000000000000000PES00010000001000000000000000020250211
202501310060002000000000000000000018000000000000000000188000000000020180823876GUSTAVO LEANDRO TORR          000000018509538000000000000000000000000000000000000000000000000000000000000000000000000000000000000000000000000000000000PES00010000001000000000000000020250211
202501310010002000000000000000000124000000000000000001248000000000030707108149CONJUNTO LOS CERROS           000000068976776000000000000000000000000000000000000000000000000000000000000000000000000000000000000000000000000000000000PES00010000001000000000000000020250211
202501310010002000000000000000000125000000000000000001258000000000030714109282VASA S.A.                     000000066370855000000000000000000000000000000000000000000000000000000000000000000000000000000000000000000000000000000000PES00010000001000000000000000020250211
202501310010002000000000000000000126000000000000000001268000000000030615543132SAFARI AUTOMOTORES S          000000066370855000000000000000000000000000000000000000000000000000000000000000000000000000000000000000000000000000000000PES00010000001000000000000000020250211
202501310010002000000000000000000127000000000000000001278000000000030543201967COMERCIAL MANITTA HN          000000079879620000000000000000000000000000000000000000000000000000000000000000000000000000000000000000000000000000000000PES00010000001000000000000000020250211
202501310010002000000000000000000128000000000000000001288000000000030716119951COMBUSTIBLES ITALO A          000000054009449000000000000000000000000000000000000000000000000000000000000000000000000000000000000000000000000000000000PES00010000001000000000000000020250211
202501010060000100000000000000043290000000000000000432909900000000000000000000CONSUMIDOR FINAL              000000003418728000000000000000000000000000000000000000000000000000000000000000000000000000000000000000000000000000000000PES00010000001000000000000000020250211
202501010060000100000000000000043291000000000000000432919900000000000000000000CONSUMIDOR FINAL              000000000299744000000000000000000000000000000000000000000000000000000000000000000000000000000000000000000000000000000000PES00010000001000000000000000020250211
202501010060000100000000000000043292000000000000000432929900000000000000000000CONSUMIDOR FINAL              000000007596869000000000000000000000000000000000000000000000000000000000000000000000000000000000000000000000000000000000PES00010000001000000000000000020250211
202501020060000100000000000000043293000000000000000432939900000000000000000000CONSUMIDOR FINAL              000000001152590000000000000000000000000000000000000000000000000000000000000000000000000000000000000000000000000000000000PES00010000001000000000000000020250211
202501020060000100000000000000043294000000000000000432949900000000000000000000CONSUMIDOR FINAL              000000000262350000000000000000000000000000000000000000000000000000000000000000000000000000000000000000000000000000000000PES00010000001000000000000000020250211
202501020010000100000000000000003592000000000000000035928000000000030605464250FORNER S.R.L.                 000000002930000000000000000000000000000000000000000000000000000000000000000000000000000000000000000000000000000000000000PES00010000002E00000000000000020250211
202501020060000100000000000000043295000000000000000432959900000000000000000000CONSUMIDOR FINAL              000000008141709000000000000000000000000000000000000000000000000000000000000000000000000000000000000000000000000000000000PES00010000001000000000000000020250211
202501020060000100000000000000043296000000000000000432969900000000000000000000CONSUMIDOR FINAL              000000000501600000000000000000000000000000000000000000000000000000000000000000000000000000000000000000000000000000000000PES00010000001000000000000000020250211
202501020060000100000000000000043297000000000000000432979900000000000000000000CONSUMIDOR FINAL              000000000213400000000000000000000000000000000000000000000000000000000000000000000000000000000000000000000000000000000000PES00010000001000000000000000020250211
202501020060000100000000000000043298000000000000000432989900000000000000000000CONSUMIDOR FINAL              000000000076860000000000000000000000000000000000000000000000000000000000000000000000000000000000000000000000000000000000PES00010000001000000000000000020250211
202501020060000100000000000000043299000000000000000432999900000000000000000000CONSUMIDOR FINAL              000000000093330000000000000000000000000000000000000000000000000000000000000000000000000000000000000000000000000000000000PES00010000001000000000000000020250211
202501020060000100000000000000043300000000000000000433009900000000000000000000CONSUMIDOR FINAL              000000010998000000000000000000000000000000000000000000000000000000000000000000000000000000000000000000000000000000000000PES00010000001000000000000000020250211
202501020060000100000000000000043301000000000000000433019900000000000000000000CONSUMIDOR FINAL              000000001344506000000000000000000000000000000000000000000000000000000000000000000000000000000000000000000000000000000000PES00010000001000000000000000020250211
202501030060000100000000000000043302000000000000000433029900000000000000000000CONSUMIDOR FINAL              000000000138105000000000000000000000000000000000000000000000000000000000000000000000000000000000000000000000000000000000PES00010000001000000000000000020250211
202501030060000100000000000000043303000000000000000433039900000000000000000000CONSUMIDOR FINAL              000000002938116000000000000000000000000000000000000000000000000000000000000000000000000000000000000000000000000000000000PES00010000001000000000000000020250211
202501030060000100000000000000043304000000000000000433049900000000000000000000CONSUMIDOR FINAL              000000000444950000000000000000000000000000000000000000000000000000000000000000000000000000000000000000000000000000000000PES00010000001000000000000000020250211
202501030060000100000000000000043305000000000000000433059900000000000000000000CONSUMIDOR FINAL              000000000465850000000000000000000000000000000000000000000000000000000000000000000000000000000000000000000000000000000000PES00010000001000000000000000020250211
202501030060000100000000000000043306000000000000000433069900000000000000000000CONSUMIDOR FINAL              000000000427900000000000000000000000000000000000000000000000000000000000000000000000000000000000000000000000000000000000PES00010000001000000000000000020250211
202501030010000100000000000000003593000000000000000035938000000000030605464250FORNER S.R.L.                 000000002951000000000000000000000000000000000000000000000000000000000000000000000000000000000000000000000000000000000000PES00010000002E00000000000000020250211
202501030060000100000000000000043307000000000000000433079900000000000000000000CONSUMIDOR FINAL              000000010024457000000000000000000000000000000000000000000000000000000000000000000000000000000000000000000000000000000000PES00010000001000000000000000020250211
202501030060000100000000000000043308000000000000000433089900000000000000000000CONSUMIDOR FINAL              000000000695614000000000000000000000000000000000000000000000000000000000000000000000000000000000000000000000000000000000PES00010000001000000000000000020250211
202501030060000100000000000000043309000000000000000433099900000000000000000000CONSUMIDOR FINAL              000000000349885000000000000000000000000000000000000000000000000000000000000000000000000000000000000000000000000000000000PES00010000001000000000000000020250211
202501030060000100000000000000043310000000000000000433109900000000000000000000CONSUMIDOR FINAL              000000000102114000000000000000000000000000000000000000000000000000000000000000000000000000000000000000000000000000000000PES00010000001000000000000000020250211
202501030060000100000000000000043311000000000000000433119900000000000000000000CONSUMIDOR FINAL              000000010998000000000000000000000000000000000000000000000000000000000000000000000000000000000000000000000000000000000000PES00010000001000000000000000020250211
202501030060000100000000000000043312000000000000000433129900000000000000000000CONSUMIDOR FINAL              000000001847664000000000000000000000000000000000000000000000000000000000000000000000000000000000000000000000000000000000PES00010000001000000000000000020250211
202501030060000100000000000000043313000000000000000433139900000000000000000000CONSUMIDOR FINAL              000000000400200000000000000000000000000000000000000000000000000000000000000000000000000000000000000000000000000000000000PES00010000001000000000000000020250211
202501030060000100000000000000043314000000000000000433149900000000000000000000CONSUMIDOR FINAL              000000000590700000000000000000000000000000000000000000000000000000000000000000000000000000000000000000000000000000000000PES00010000001000000000000000020250211
202501040060000100000000000000043315000000000000000433159900000000000000000000CONSUMIDOR FINAL              000000000214461000000000000000000000000000000000000000000000000000000000000000000000000000000000000000000000000000000000PES00010000001000000000000000020250211
202501040060000100000000000000043316000000000000000433169900000000000000000000CONSUMIDOR FINAL              000000000444319000000000000000000000000000000000000000000000000000000000000000000000000000000000000000000000000000000000PES00010000001000000000000000020250211
202501040060000100000000000000043317000000000000000433179900000000000000000000CONSUMIDOR FINAL              000000000552650000000000000000000000000000000000000000000000000000000000000000000000000000000000000000000000000000000000PES00010000001000000000000000020250211
202501040060000100000000000000043318000000000000000433189900000000000000000000CONSUMIDOR FINAL              000000000809453000000000000000000000000000000000000000000000000000000000000000000000000000000000000000000000000000000000PES00010000001000000000000000020250211
202501040060000100000000000000043319000000000000000433199900000000000000000000CONSUMIDOR FINAL              000000000441020000000000000000000000000000000000000000000000000000000000000000000000000000000000000000000000000000000000PES00010000001000000000000000020250211
202501040060000100000000000000043320000000000000000433209900000000000000000000CONSUMIDOR FINAL              000000000246355000000000000000000000000000000000000000000000000000000000000000000000000000000000000000000000000000000000PES00010000001000000000000000020250211
202501040060000100000000000000043321000000000000000433219900000000000000000000CONSUMIDOR FINAL              000000000499859000000000000000000000000000000000000000000000000000000000000000000000000000000000000000000000000000000000PES00010000001000000000000000020250211
202501040060000100000000000000043322000000000000000433229900000000000000000000CONSUMIDOR FINAL              000000000537802000000000000000000000000000000000000000000000000000000000000000000000000000000000000000000000000000000000PES00010000001000000000000000020250211
202501040060000100000000000000043323000000000000000433239900000000000000000000CONSUMIDOR FINAL              000000002344774000000000000000000000000000000000000000000000000000000000000000000000000000000000000000000000000000000000PES00010000001000000000000000020250211
202501040060000100000000000000043324000000000000000433249900000000000000000000CONSUMIDOR FINAL              000000010998000000000000000000000000000000000000000000000000000000000000000000000000000000000000000000000000000000000000PES00010000001000000000000000020250211
202501040060000100000000000000043325000000000000000433259900000000000000000000CONSUMIDOR FINAL              000000001912552000000000000000000000000000000000000000000000000000000000000000000000000000000000000000000000000000000000PES00010000001000000000000000020250211
202501040060000100000000000000043326000000000000000433269900000000000000000000CONSUMIDOR FINAL              000000010998000000000000000000000000000000000000000000000000000000000000000000000000000000000000000000000000000000000000PES00010000001000000000000000020250211
202501040060000100000000000000043327000000000000000433279900000000000000000000CONSUMIDOR FINAL              000000005457758000000000000000000000000000000000000000000000000000000000000000000000000000000000000000000000000000000000PES00010000001000000000000000020250211
202501040060000100000000000000043328000000000000000433289900000000000000000000CONSUMIDOR FINAL              000000000389950000000000000000000000000000000000000000000000000000000000000000000000000000000000000000000000000000000000PES00010000001000000000000000020250211
202501050060000100000000000000043329000000000000000433299900000000000000000000CONSUMIDOR FINAL              000000000278799000000000000000000000000000000000000000000000000000000000000000000000000000000000000000000000000000000000PES00010000001000000000000000020250211
202501050060000100000000000000043330000000000000000433309900000000000000000000CONSUMIDOR FINAL              000000001078904000000000000000000000000000000000000000000000000000000000000000000000000000000000000000000000000000000000PES00010000001000000000000000020250211
202501050060000100000000000000043331000000000000000433319900000000000000000000CONSUMIDOR FINAL              000000000499309000000000000000000000000000000000000000000000000000000000000000000000000000000000000000000000000000000000PES00010000001000000000000000020250211
202501050060000100000000000000043332000000000000000433329900000000000000000000CONSUMIDOR FINAL              000000000554849000000000000000000000000000000000000000000000000000000000000000000000000000000000000000000000000000000000PES00010000001000000000000000020250211
202501050060000100000000000000043333000000000000000433339900000000000000000000CONSUMIDOR FINAL              000000000694524000000000000000000000000000000000000000000000000000000000000000000000000000000000000000000000000000000000PES00010000001000000000000000020250211
202501050060000100000000000000043334000000000000000433349900000000000000000000CONSUMIDOR FINAL              000000000529004000000000000000000000000000000000000000000000000000000000000000000000000000000000000000000000000000000000PES00010000001000000000000000020250211
202501050060000100000000000000043335000000000000000433359900000000000000000000CONSUMIDOR FINAL              000000000291997000000000000000000000000000000000000000000000000000000000000000000000000000000000000000000000000000000000PES00010000001000000000000000020250211
202501050060000100000000000000043336000000000000000433369900000000000000000000CONSUMIDOR FINAL              000000001378049000000000000000000000000000000000000000000000000000000000000000000000000000000000000000000000000000000000PES00010000001000000000000000020250211
202501050060000100000000000000043337000000000000000433379900000000000000000000CONSUMIDOR FINAL              000000006213870000000000000000000000000000000000000000000000000000000000000000000000000000000000000000000000000000000000PES00010000001000000000000000020250211
202501050060000100000000000000043338000000000000000433389900000000000000000000CONSUMIDOR FINAL              000000010998000000000000000000000000000000000000000000000000000000000000000000000000000000000000000000000000000000000000PES00010000001000000000000000020250211
202501050060000100000000000000043339000000000000000433399900000000000000000000CONSUMIDOR FINAL              000000000072587000000000000000000000000000000000000000000000000000000000000000000000000000000000000000000000000000000000PES00010000001000000000000000020250211
202501060060000100000000000000043340000000000000000433409900000000000000000000CONSUMIDOR FINAL              000000005990611000000000000000000000000000000000000000000000000000000000000000000000000000000000000000000000000000000000PES00010000001000000000000000020250211
202501060010000100000000000000003595000000000000000035958000000000030605464250FORNER S.R.L.                 000000002814999000000000000000000000000000000000000000000000000000000000000000000000000000000000000000000000000000000000PES00010000002E00000000000000020250211
202501060060000100000000000000043341000000000000000433419900000000000000000000CONSUMIDOR FINAL              000000000559900000000000000000000000000000000000000000000000000000000000000000000000000000000000000000000000000000000000PES00010000001000000000000000020250211
202501060060000100000000000000043342000000000000000433429900000000000000000000CONSUMIDOR FINAL              000000000441650000000000000000000000000000000000000000000000000000000000000000000000000000000000000000000000000000000000PES00010000001000000000000000020250211
202501060010000100000000000000003596000000000000000035968000000000030605464250FORNER S.R.L.                 000000002010000000000000000000000000000000000000000000000000000000000000000000000000000000000000000000000000000000000000PES00010000002E00000000000000020250211
202501060060000100000000000000043343000000000000000433439900000000000000000000CONSUMIDOR FINAL              000000003754002000000000000000000000000000000000000000000000000000000000000000000000000000000000000000000000000000000000PES00010000001000000000000000020250211
202501060060000100000000000000043344000000000000000433449900000000000000000000CONSUMIDOR FINAL              000000000500308000000000000000000000000000000000000000000000000000000000000000000000000000000000000000000000000000000000PES00010000001000000000000000020250211
202501060060000100000000000000043345000000000000000433459900000000000000000000CONSUMIDOR FINAL              000000000299750000000000000000000000000000000000000000000000000000000000000000000000000000000000000000000000000000000000PES00010000001000000000000000020250211
202501060060000100000000000000043346000000000000000433469900000000000000000000CONSUMIDOR FINAL              000000010998000000000000000000000000000000000000000000000000000000000000000000000000000000000000000000000000000000000000PES00010000001000000000000000020250211
202501060060000100000000000000043347000000000000000433479900000000000000000000CONSUMIDOR FINAL              000000002262289000000000000000000000000000000000000000000000000000000000000000000000000000000000000000000000000000000000PES00010000001000000000000000020250211
202501070060000100000000000000043348000000000000000433489900000000000000000000CONSUMIDOR FINAL              000000005198755000000000000000000000000000000000000000000000000000000000000000000000000000000000000000000000000000000000PES00010000001000000000000000020250211
202501070060000100000000000000043349000000000000000433499900000000000000000000CONSUMIDOR FINAL              000000000468600000000000000000000000000000000000000000000000000000000000000000000000000000000000000000000000000000000000PES00010000001000000000000000020250211
202501070060000100000000000000043350000000000000000433509900000000000000000000CONSUMIDOR FINAL              000000000649550000000000000000000000000000000000000000000000000000000000000000000000000000000000000000000000000000000000PES00010000001000000000000000020250211
202501070010000100000000000000003597000000000000000035978000000000030605464250FORNER S.R.L.                 000000002759998000000000000000000000000000000000000000000000000000000000000000000000000000000000000000000000000000000000PES00010000002E00000000000000020250211
202501070060000100000000000000043351000000000000000433519900000000000000000000CONSUMIDOR FINAL              000000000222750000000000000000000000000000000000000000000000000000000000000000000000000000000000000000000000000000000000PES00010000001000000000000000020250211
202501070060000100000000000000043352000000000000000433529900000000000000000000CONSUMIDOR FINAL              000000009198672000000000000000000000000000000000000000000000000000000000000000000000000000000000000000000000000000000000PES00010000001000000000000000020250211
202501070010000100000000000000003598000000000000000035988000000000020184480655ZAPATA ANDRES F.              000000000431145000000000000000000000000000000000000000000000000000000000000000000000000000000000000000000000000000000000PES00010000001000000000000000020250211
202501070060000100000000000000043353000000000000000433539900000000000000000000CONSUMIDOR FINAL              000000000080850000000000000000000000000000000000000000000000000000000000000000000000000000000000000000000000000000000000PES00010000001000000000000000020250211
202501070060000100000000000000043354000000000000000433549900000000000000000000CONSUMIDOR FINAL              000000000860750000000000000000000000000000000000000000000000000000000000000000000000000000000000000000000000000000000000PES00010000001000000000000000020250211
202501070060000100000000000000043355000000000000000433559900000000000000000000CONSUMIDOR FINAL              000000000199824000000000000000000000000000000000000000000000000000000000000000000000000000000000000000000000000000000000PES00010000001000000000000000020250211
202501070010000100000000000000003599000000000000000035998000000000020230018511BORONAT EDUARDO               000000000726165000000000000000000000000000000000000000000000000000000000000000000000000000000000000000000000000000000000PES00010000001000000000000000020250211
202501070060000100000000000000043356000000000000000433569900000000000000000000CONSUMIDOR FINAL              000000010998000000000000000000000000000000000000000000000000000000000000000000000000000000000000000000000000000000000000PES00010000001000000000000000020250211
202501070060000100000000000000043357000000000000000433579900000000000000000000CONSUMIDOR FINAL              000000004712643000000000000000000000000000000000000000000000000000000000000000000000000000000000000000000000000000000000PES00010000001000000000000000020250211
202501080060000100000000000000043358000000000000000433589900000000000000000000CONSUMIDOR FINAL              000000004614761000000000000000000000000000000000000000000000000000000000000000000000000000000000000000000000000000000000PES00010000001000000000000000020250211
202501080060000100000000000000043359000000000000000433599900000000000000000000CONSUMIDOR FINAL              000000000863500000000000000000000000000000000000000000000000000000000000000000000000000000000000000000000000000000000000PES00010000002E00000000000000020250211
202501080060000100000000000000043360000000000000000433609900000000000000000000CONSUMIDOR FINAL              000000010998000000000000000000000000000000000000000000000000000000000000000000000000000000000000000000000000000000000000PES00010000001000000000000000020250211
202501080060000100000000000000043361000000000000000433619900000000000000000000CONSUMIDOR FINAL              000000002760498000000000000000000000000000000000000000000000000000000000000000000000000000000000000000000000000000000000PES00010000001000000000000000020250211
202501080060000100000000000000043362000000000000000433629900000000000000000000CONSUMIDOR FINAL              000000000359700000000000000000000000000000000000000000000000000000000000000000000000000000000000000000000000000000000000PES00010000001000000000000000020250211
202501080060000100000000000000043363000000000000000433639900000000000000000000CONSUMIDOR FINAL              000000000500308000000000000000000000000000000000000000000000000000000000000000000000000000000000000000000000000000000000PES00010000001000000000000000020250211
202501080060000100000000000000043364000000000000000433649900000000000000000000CONSUMIDOR FINAL              000000000555885000000000000000000000000000000000000000000000000000000000000000000000000000000000000000000000000000000000PES00010000001000000000000000020250211
202501080060000100000000000000043365000000000000000433659900000000000000000000CONSUMIDOR FINAL              000000000517550000000000000000000000000000000000000000000000000000000000000000000000000000000000000000000000000000000000PES00010000001000000000000000020250211
202501080010000100000000000000003600000000000000000036008000000000030712372113INGENERA S.R.L.               000000001540550000000000000000000000000000000000000000000000000000000000000000000000000000000000000000000000000000000000PES00010000001000000000000000020250211
202501090060000100000000000000043366000000000000000433669900000000000000000000CONSUMIDOR FINAL              000000010998000000000000000000000000000000000000000000000000000000000000000000000000000000000000000000000000000000000000PES00010000001000000000000000020250211
202501090060000100000000000000043367000000000000000433679900000000000000000000CONSUMIDOR FINAL              000000010998000000000000000000000000000000000000000000000000000000000000000000000000000000000000000000000000000000000000PES00010000001000000000000000020250211
202501090060000100000000000000043368000000000000000433689900000000000000000000CONSUMIDOR FINAL              000000004791279000000000000000000000000000000000000000000000000000000000000000000000000000000000000000000000000000000000PES00010000001000000000000000020250211
202501090060000100000000000000043369000000000000000433699900000000000000000000CONSUMIDOR FINAL              000000000762850000000000000000000000000000000000000000000000000000000000000000000000000000000000000000000000000000000000PES00010000001000000000000000020250211
202501090060000100000000000000043370000000000000000433709900000000000000000000CONSUMIDOR FINAL              000000000261360000000000000000000000000000000000000000000000000000000000000000000000000000000000000000000000000000000000PES00010000001000000000000000020250211
202501090010000100000000000000003601000000000000000036018000000000030605464250FORNER S.R.L.                 000000002690000000000000000000000000000000000000000000000000000000000000000000000000000000000000000000000000000000000000PES00010000002E00000000000000020250211
202501090060000100000000000000043371000000000000000433719900000000000000000000CONSUMIDOR FINAL              000000010998000000000000000000000000000000000000000000000000000000000000000000000000000000000000000000000000000000000000PES00010000001000000000000000020250211
202501090060000100000000000000043372000000000000000433729900000000000000000000CONSUMIDOR FINAL              000000001372110000000000000000000000000000000000000000000000000000000000000000000000000000000000000000000000000000000000PES00010000001000000000000000020250211
202501090060000100000000000000043373000000000000000433739900000000000000000000CONSUMIDOR FINAL              000000000480700000000000000000000000000000000000000000000000000000000000000000000000000000000000000000000000000000000000PES00010000001000000000000000020250211
202501090060000100000000000000043374000000000000000433749900000000000000000000CONSUMIDOR FINAL              000000000416350000000000000000000000000000000000000000000000000000000000000000000000000000000000000000000000000000000000PES00010000001000000000000000020250211
202501090060000100000000000000043375000000000000000433759900000000000000000000CONSUMIDOR FINAL              000000000261800000000000000000000000000000000000000000000000000000000000000000000000000000000000000000000000000000000000PES00010000001000000000000000020250211
202501090060000100000000000000043376000000000000000433769900000000000000000000CONSUMIDOR FINAL              000000000561550000000000000000000000000000000000000000000000000000000000000000000000000000000000000000000000000000000000PES00010000001000000000000000020250211
202501090060000100000000000000043377000000000000000433779900000000000000000000CONSUMIDOR FINAL              000000000399850000000000000000000000000000000000000000000000000000000000000000000000000000000000000000000000000000000000PES00010000001000000000000000020250211
202501090060000100000000000000043378000000000000000433789900000000000000000000CONSUMIDOR FINAL              000000010998000000000000000000000000000000000000000000000000000000000000000000000000000000000000000000000000000000000000PES00010000001000000000000000020250211
202501090060000100000000000000043379000000000000000433799900000000000000000000CONSUMIDOR FINAL              000000001492429000000000000000000000000000000000000000000000000000000000000000000000000000000000000000000000000000000000PES00010000001000000000000000020250211
202501090060000100000000000000043380000000000000000433809900000000000000000000CONSUMIDOR FINAL              000000000447700000000000000000000000000000000000000000000000000000000000000000000000000000000000000000000000000000000000PES00010000001000000000000000020250211
202501100060000100000000000000043381000000000000000433819900000000000000000000CONSUMIDOR FINAL              000000002491597000000000000000000000000000000000000000000000000000000000000000000000000000000000000000000000000000000000PES00010000001000000000000000020250211
202501100060000100000000000000043382000000000000000433829900000000000000000000CONSUMIDOR FINAL              000000000519750000000000000000000000000000000000000000000000000000000000000000000000000000000000000000000000000000000000PES00010000001000000000000000020250211
202501100060000100000000000000043383000000000000000433839900000000000000000000CONSUMIDOR FINAL              000000010998000000000000000000000000000000000000000000000000000000000000000000000000000000000000000000000000000000000000PES00010000001000000000000000020250211
202501100060000100000000000000043384000000000000000433849900000000000000000000CONSUMIDOR FINAL              000000004200686000000000000000000000000000000000000000000000000000000000000000000000000000000000000000000000000000000000PES00010000001000000000000000020250211
202501100060000100000000000000043385000000000000000433859900000000000000000000CONSUMIDOR FINAL              000000000621225000000000000000000000000000000000000000000000000000000000000000000000000000000000000000000000000000000000PES00010000001000000000000000020250211
202501100060000100000000000000043386000000000000000433869900000000000000000000CONSUMIDOR FINAL              000000001212571000000000000000000000000000000000000000000000000000000000000000000000000000000000000000000000000000000000PES00010000001000000000000000020250211
202501100060000100000000000000043387000000000000000433879900000000000000000000CONSUMIDOR FINAL              000000000357860000000000000000000000000000000000000000000000000000000000000000000000000000000000000000000000000000000000PES00010000001000000000000000020250211
202501100010000100000000000000003602000000000000000036028000000000030578959781OHA CONSTRUCCIONES S          000000000337560000000000000000000000000000000000000000000000000000000000000000000000000000000000000000000000000000000000PES00010000001000000000000000020250211
202501100060000100000000000000043388000000000000000433889900000000000000000000CONSUMIDOR FINAL              000000011598000000000000000000000000000000000000000000000000000000000000000000000000000000000000000000000000000000000000PES00010000001000000000000000020250211
202501100060000100000000000000043389000000000000000433899900000000000000000000CONSUMIDOR FINAL              000000006682188000000000000000000000000000000000000000000000000000000000000000000000000000000000000000000000000000000000PES00010000001000000000000000020250211
202501100060000100000000000000043390000000000000000433909900000000000000000000CONSUMIDOR FINAL              000000000349740000000000000000000000000000000000000000000000000000000000000000000000000000000000000000000000000000000000PES00010000001000000000000000020250211
202501110060000100000000000000043391000000000000000433919900000000000000000000CONSUMIDOR FINAL              000000000408900000000000000000000000000000000000000000000000000000000000000000000000000000000000000000000000000000000000PES00010000001000000000000000020250211
202501110060000100000000000000043392000000000000000433929900000000000000000000CONSUMIDOR FINAL              000000005327541000000000000000000000000000000000000000000000000000000000000000000000000000000000000000000000000000000000PES00010000001000000000000000020250211
202501110060000100000000000000043393000000000000000433939900000000000000000000CONSUMIDOR FINAL              000000011598000000000000000000000000000000000000000000000000000000000000000000000000000000000000000000000000000000000000PES00010000001000000000000000020250211
202501110060000100000000000000043394000000000000000433949900000000000000000000CONSUMIDOR FINAL              000000001812188000000000000000000000000000000000000000000000000000000000000000000000000000000000000000000000000000000000PES00010000001000000000000000020250211
202501110060000100000000000000043395000000000000000433959900000000000000000000CONSUMIDOR FINAL              000000000478500000000000000000000000000000000000000000000000000000000000000000000000000000000000000000000000000000000000PES00010000001000000000000000020250211
202501110060000100000000000000043396000000000000000433969900000000000000000000CONSUMIDOR FINAL              000000000499660000000000000000000000000000000000000000000000000000000000000000000000000000000000000000000000000000000000PES00010000001000000000000000020250211
202501110060000100000000000000043397000000000000000433979900000000000000000000CONSUMIDOR FINAL              000000000499660000000000000000000000000000000000000000000000000000000000000000000000000000000000000000000000000000000000PES00010000001000000000000000020250211
202501110060000100000000000000043398000000000000000433989900000000000000000000CONSUMIDOR FINAL              000000011598000000000000000000000000000000000000000000000000000000000000000000000000000000000000000000000000000000000000PES00010000001000000000000000020250211
202501110060000100000000000000043399000000000000000433999900000000000000000000CONSUMIDOR FINAL              000000002391508000000000000000000000000000000000000000000000000000000000000000000000000000000000000000000000000000000000PES00010000001000000000000000020250211
202501110060000100000000000000043400000000000000000434009900000000000000000000CONSUMIDOR FINAL              000000000599256000000000000000000000000000000000000000000000000000000000000000000000000000000000000000000000000000000000PES00010000001000000000000000020250211
202501110060000100000000000000043401000000000000000434019900000000000000000000CONSUMIDOR FINAL              000000000652500000000000000000000000000000000000000000000000000000000000000000000000000000000000000000000000000000000000PES00010000001000000000000000020250211
202501120060000100000000000000043402000000000000000434029900000000000000000000CONSUMIDOR FINAL              000000006366722000000000000000000000000000000000000000000000000000000000000000000000000000000000000000000000000000000000PES00010000001000000000000000020250211
202501120060000100000000000000043403000000000000000434039900000000000000000000CONSUMIDOR FINAL              000000000568400000000000000000000000000000000000000000000000000000000000000000000000000000000000000000000000000000000000PES00010000001000000000000000020250211
202501120060000100000000000000043404000000000000000434049900000000000000000000CONSUMIDOR FINAL              000000000520956000000000000000000000000000000000000000000000000000000000000000000000000000000000000000000000000000000000PES00010000001000000000000000020250211
202501120060000100000000000000043405000000000000000434059900000000000000000000CONSUMIDOR FINAL              000000005226639000000000000000000000000000000000000000000000000000000000000000000000000000000000000000000000000000000000PES00010000001000000000000000020250211
202501120060000100000000000000043406000000000000000434069900000000000000000000CONSUMIDOR FINAL              000000000525132000000000000000000000000000000000000000000000000000000000000000000000000000000000000000000000000000000000PES00010000001000000000000000020250211
202501120060000100000000000000043407000000000000000434079900000000000000000000CONSUMIDOR FINAL              000000011598000000000000000000000000000000000000000000000000000000000000000000000000000000000000000000000000000000000000PES00010000001000000000000000020250211
202501120060000100000000000000043408000000000000000434089900000000000000000000CONSUMIDOR FINAL              000000001817407000000000000000000000000000000000000000000000000000000000000000000000000000000000000000000000000000000000PES00010000001000000000000000020250211
202501130060000100000000000000043409000000000000000434099900000000000000000000CONSUMIDOR FINAL              000000009019185000000000000000000000000000000000000000000000000000000000000000000000000000000000000000000000000000000000PES00010000001000000000000000020250211
202501130060000100000000000000043410000000000000000434109900000000000000000000CONSUMIDOR FINAL              000000011598000000000000000000000000000000000000000000000000000000000000000000000000000000000000000000000000000000000000PES00010000001000000000000000020250211
202501130060000100000000000000043411000000000000000434119900000000000000000000CONSUMIDOR FINAL              000000009019765000000000000000000000000000000000000000000000000000000000000000000000000000000000000000000000000000000000PES00010000001000000000000000020250211
202501130060000100000000000000043412000000000000000434129900000000000000000000CONSUMIDOR FINAL              000000000310880000000000000000000000000000000000000000000000000000000000000000000000000000000000000000000000000000000000PES00010000001000000000000000020250211
202501130010000100000000000000003603000000000000000036038000000000027180795443CABRILLANA LILIANA A          000000000498220000000000000000000000000000000000000000000000000000000000000000000000000000000000000000000000000000000000PES00010000001000000000000000020250211
202501130060000100000000000000043413000000000000000434139900000000000000000000CONSUMIDOR FINAL              000000000320160000000000000000000000000000000000000000000000000000000000000000000000000000000000000000000000000000000000PES00010000001000000000000000020250211
202501130060000100000000000000043414000000000000000434149900000000000000000000CONSUMIDOR FINAL              000000011598000000000000000000000000000000000000000000000000000000000000000000000000000000000000000000000000000000000000PES00010000001000000000000000020250211
202501130060000100000000000000043415000000000000000434159900000000000000000000CONSUMIDOR FINAL              000000005864529000000000000000000000000000000000000000000000000000000000000000000000000000000000000000000000000000000000PES00010000001000000000000000020250211
202501130060000100000000000000043416000000000000000434169900000000000000000000CONSUMIDOR FINAL              000000000661780000000000000000000000000000000000000000000000000000000000000000000000000000000000000000000000000000000000PES00010000001000000000000000020250211
202501130060000100000000000000043417000000000000000434179900000000000000000000CONSUMIDOR FINAL              000000000455300000000000000000000000000000000000000000000000000000000000000000000000000000000000000000000000000000000000PES00010000001000000000000000020250211
202501130060000100000000000000043418000000000000000434189900000000000000000000CONSUMIDOR FINAL              000000000573620000000000000000000000000000000000000000000000000000000000000000000000000000000000000000000000000000000000PES00010000001000000000000000020250211
202501140060000100000000000000043419000000000000000434199900000000000000000000CONSUMIDOR FINAL              000000004427537000000000000000000000000000000000000000000000000000000000000000000000000000000000000000000000000000000000PES00010000001000000000000000020250211
202501140060000100000000000000043420000000000000000434209900000000000000000000CONSUMIDOR FINAL              000000000392660000000000000000000000000000000000000000000000000000000000000000000000000000000000000000000000000000000000PES00010000001000000000000000020250211
202501140060000100000000000000043421000000000000000434219900000000000000000000CONSUMIDOR FINAL              000000011598000000000000000000000000000000000000000000000000000000000000000000000000000000000000000000000000000000000000PES00010000001000000000000000020250211
202501140060000100000000000000043422000000000000000434229900000000000000000000CONSUMIDOR FINAL              000000001208512000000000000000000000000000000000000000000000000000000000000000000000000000000000000000000000000000000000PES00010000001000000000000000020250211
202501140060000100000000000000043423000000000000000434239900000000000000000000CONSUMIDOR FINAL              000000000687300000000000000000000000000000000000000000000000000000000000000000000000000000000000000000000000000000000000PES00010000001000000000000000020250211
202501140010000100000000000000003604000000000000000036048000000000030714421804REASER SA                     000000000711080000000000000000000000000000000000000000000000000000000000000000000000000000000000000000000000000000000000PES00010000001000000000000000020250211
202501140060000100000000000000043424000000000000000434249900000000000000000000CONSUMIDOR FINAL              000000011598000000000000000000000000000000000000000000000000000000000000000000000000000000000000000000000000000000000000PES00010000001000000000000000020250211
202501140060000100000000000000043425000000000000000434259900000000000000000000CONSUMIDOR FINAL              000000003851696000000000000000000000000000000000000000000000000000000000000000000000000000000000000000000000000000000000PES00010000001000000000000000020250211
202501140060000100000000000000043426000000000000000434269900000000000000000000CONSUMIDOR FINAL              000000000399852000000000000000000000000000000000000000000000000000000000000000000000000000000000000000000000000000000000PES00010000001000000000000000020250211
202501140060000100000000000000043427000000000000000434279900000000000000000000CONSUMIDOR FINAL              000000000799514000000000000000000000000000000000000000000000000000000000000000000000000000000000000000000000000000000000PES00010000001000000000000000020250211
202501150060000100000000000000043428000000000000000434289900000000000000000000CONSUMIDOR FINAL              000000003592481000000000000000000000000000000000000000000000000000000000000000000000000000000000000000000000000000000000PES00010000001000000000000000020250211
202501150060000100000000000000043429000000000000000434299900000000000000000000CONSUMIDOR FINAL              000000011598000000000000000000000000000000000000000000000000000000000000000000000000000000000000000000000000000000000000PES00010000001000000000000000020250211
202501150060000100000000000000043430000000000000000434309900000000000000000000CONSUMIDOR FINAL              000000005236497000000000000000000000000000000000000000000000000000000000000000000000000000000000000000000000000000000000PES00010000001000000000000000020250211
202501150060000100000000000000043431000000000000000434319900000000000000000000CONSUMIDOR FINAL              000000000399728000000000000000000000000000000000000000000000000000000000000000000000000000000000000000000000000000000000PES00010000001000000000000000020250211
202501150060000100000000000000043432000000000000000434329900000000000000000000CONSUMIDOR FINAL              000000011598000000000000000000000000000000000000000000000000000000000000000000000000000000000000000000000000000000000000PES00010000001000000000000000020250211
202501150060000100000000000000043433000000000000000434339900000000000000000000CONSUMIDOR FINAL              000000011598000000000000000000000000000000000000000000000000000000000000000000000000000000000000000000000000000000000000PES00010000001000000000000000020250211
202501150060000100000000000000043434000000000000000434349900000000000000000000CONSUMIDOR FINAL              000000000335762000000000000000000000000000000000000000000000000000000000000000000000000000000000000000000000000000000000PES00010000001000000000000000020250211
202501150060000100000000000000043435000000000000000434359900000000000000000000CONSUMIDOR FINAL              000000000493000000000000000000000000000000000000000000000000000000000000000000000000000000000000000000000000000000000000PES00010000001000000000000000020250211
202501160060000100000000000000043436000000000000000434369900000000000000000000CONSUMIDOR FINAL              000000000256302000000000000000000000000000000000000000000000000000000000000000000000000000000000000000000000000000000000PES00010000002E00000000000000020250211
202501160060000100000000000000043437000000000000000434379900000000000000000000CONSUMIDOR FINAL              000000007851846000000000000000000000000000000000000000000000000000000000000000000000000000000000000000000000000000000000PES00010000001000000000000000020250211
202501160060000100000000000000043438000000000000000434389900000000000000000000CONSUMIDOR FINAL              000000000580580000000000000000000000000000000000000000000000000000000000000000000000000000000000000000000000000000000000PES00010000001000000000000000020250211
202501160060000100000000000000043439000000000000000434399900000000000000000000CONSUMIDOR FINAL              000000000879280000000000000000000000000000000000000000000000000000000000000000000000000000000000000000000000000000000000PES00010000001000000000000000020250211
202501160060000100000000000000043440000000000000000434409900000000000000000000CONSUMIDOR FINAL              000000000466668000000000000000000000000000000000000000000000000000000000000000000000000000000000000000000000000000000000PES00010000001000000000000000020250211
202501160060000100000000000000043441000000000000000434419900000000000000000000CONSUMIDOR FINAL              000000011598000000000000000000000000000000000000000000000000000000000000000000000000000000000000000000000000000000000000PES00010000001000000000000000020250211
202501160060000100000000000000043442000000000000000434429900000000000000000000CONSUMIDOR FINAL              000000001156321000000000000000000000000000000000000000000000000000000000000000000000000000000000000000000000000000000000PES00010000001000000000000000020250211
202501160060000100000000000000043445000000000000000434459900000000000000000000CONSUMIDOR FINAL              000000011598000000000000000000000000000000000000000000000000000000000000000000000000000000000000000000000000000000000000PES00010000001000000000000000020250211
202501160060000100000000000000043446000000000000000434469900000000000000000000CONSUMIDOR FINAL              000000001534995000000000000000000000000000000000000000000000000000000000000000000000000000000000000000000000000000000000PES00010000001000000000000000020250211
202501170060000100000000000000043448000000000000000434489900000000000000000000CONSUMIDOR FINAL              000000002306262000000000000000000000000000000000000000000000000000000000000000000000000000000000000000000000000000000000PES00010000001000000000000000020250211
202501170010000100000000000000003605000000000000000036058000000000030605464250FORNER S.R.L.                 000000001959900000000000000000000000000000000000000000000000000000000000000000000000000000000000000000000000000000000000PES00010000002E00000000000000020250211
202501170010000100000000000000003606000000000000000036068000000000030605464250FORNER S.R.L.                 000000002104898000000000000000000000000000000000000000000000000000000000000000000000000000000000000000000000000000000000PES00010000002E00000000000000020250211
202501170060000100000000000000043449000000000000000434499900000000000000000000CONSUMIDOR FINAL              000000009351757000000000000000000000000000000000000000000000000000000000000000000000000000000000000000000000000000000000PES00010000001000000000000000020250211
202501170060000100000000000000043450000000000000000434509900000000000000000000CONSUMIDOR FINAL              000000011598000000000000000000000000000000000000000000000000000000000000000000000000000000000000000000000000000000000000PES00010000001000000000000000020250211
202501170060000100000000000000043451000000000000000434519900000000000000000000CONSUMIDOR FINAL              000000006398617000000000000000000000000000000000000000000000000000000000000000000000000000000000000000000000000000000000PES00010000001000000000000000020250211
202501180060000100000000000000043454000000000000000434549900000000000000000000CONSUMIDOR FINAL              000000004487266000000000000000000000000000000000000000000000000000000000000000000000000000000000000000000000000000000000PES00010000001000000000000000020250211
202501180060000100000000000000043455000000000000000434559900000000000000000000CONSUMIDOR FINAL              000000011598000000000000000000000000000000000000000000000000000000000000000000000000000000000000000000000000000000000000PES00010000001000000000000000020250211
202501180060000100000000000000043456000000000000000434569900000000000000000000CONSUMIDOR FINAL              000000006772652000000000000000000000000000000000000000000000000000000000000000000000000000000000000000000000000000000000PES00010000001000000000000000020250211
202501180010000100000000000000003607000000000000000036078000000000030712372113INGENERA SRL                  000000001516700000000000000000000000000000000000000000000000000000000000000000000000000000000000000000000000000000000000PES00010000001000000000000000020250211
202501180060000100000000000000043458000000000000000434589900000000000000000000CONSUMIDOR FINAL              000000011598000000000000000000000000000000000000000000000000000000000000000000000000000000000000000000000000000000000000PES00010000001000000000000000020250211
202501180060000100000000000000043459000000000000000434599900000000000000000000CONSUMIDOR FINAL              000000001477585000000000000000000000000000000000000000000000000000000000000000000000000000000000000000000000000000000000PES00010000001000000000000000020250211
202501190060000100000000000000043460000000000000000434609900000000000000000000CONSUMIDOR FINAL              000000008039154000000000000000000000000000000000000000000000000000000000000000000000000000000000000000000000000000000000PES00010000001000000000000000020250211
202501190060000100000000000000043462000000000000000434629900000000000000000000CONSUMIDOR FINAL              000000000414468000000000000000000000000000000000000000000000000000000000000000000000000000000000000000000000000000000000PES00010000001000000000000000020250211
202501190060000100000000000000043464000000000000000434649900000000000000000000CONSUMIDOR FINAL              000000005278830000000000000000000000000000000000000000000000000000000000000000000000000000000000000000000000000000000000PES00010000001000000000000000020250211
202501190060000100000000000000043466000000000000000434669900000000000000000000CONSUMIDOR FINAL              000000000755160000000000000000000000000000000000000000000000000000000000000000000000000000000000000000000000000000000000PES00010000001000000000000000020250211
202501190060000100000000000000043469000000000000000434699900000000000000000000CONSUMIDOR FINAL              000000011598000000000000000000000000000000000000000000000000000000000000000000000000000000000000000000000000000000000000PES00010000001000000000000000020250211
202501190060000100000000000000043470000000000000000434709900000000000000000000CONSUMIDOR FINAL              000000003315288000000000000000000000000000000000000000000000000000000000000000000000000000000000000000000000000000000000PES00010000001000000000000000020250211
202501200060000100000000000000043471000000000000000434719900000000000000000000CONSUMIDOR FINAL              000000004010009000000000000000000000000000000000000000000000000000000000000000000000000000000000000000000000000000000000PES00010000001000000000000000020250211
202501200060000100000000000000043477000000000000000434779900000000000000000000CONSUMIDOR FINAL              000000011598000000000000000000000000000000000000000000000000000000000000000000000000000000000000000000000000000000000000PES00010000001000000000000000020250211
202501200060000100000000000000043478000000000000000434789900000000000000000000CONSUMIDOR FINAL              000000006131863000000000000000000000000000000000000000000000000000000000000000000000000000000000000000000000000000000000PES00010000001000000000000000020250211
202501200060000100000000000000043483000000000000000434839900000000000000000000CONSUMIDOR FINAL              000000000499660000000000000000000000000000000000000000000000000000000000000000000000000000000000000000000000000000000000PES00010000001000000000000000020250211
202501200060000100000000000000043484000000000000000434849900000000000000000000CONSUMIDOR FINAL              000000000509820000000000000000000000000000000000000000000000000000000000000000000000000000000000000000000000000000000000PES00010000001000000000000000020250211
202501200060000100000000000000043485000000000000000434859900000000000000000000CONSUMIDOR FINAL              000000000672220000000000000000000000000000000000000000000000000000000000000000000000000000000000000000000000000000000000PES00010000001000000000000000020250211
202501200060000100000000000000043486000000000000000434869900000000000000000000CONSUMIDOR FINAL              000000000669900000000000000000000000000000000000000000000000000000000000000000000000000000000000000000000000000000000000PES00010000001000000000000000020250211
202501200010000100000000000000003609000000000000000036098000000000030639295954ARNALDO CHAPINI SRL           000000000590002000000000000000000000000000000000000000000000000000000000000000000000000000000000000000000000000000000000PES00010000001000000000000000020250211
202501200060000100000000000000043487000000000000000434879900000000000000000000CONSUMIDOR FINAL              000000000312620000000000000000000000000000000000000000000000000000000000000000000000000000000000000000000000000000000000PES00010000001000000000000000020250211
202501200060000100000000000000043488000000000000000434889900000000000000000000CONSUMIDOR FINAL              000000010769671000000000000000000000000000000000000000000000000000000000000000000000000000000000000000000000000000000000PES00010000001000000000000000020250211
202501210060000100000000000000043489000000000000000434899900000000000000000000CONSUMIDOR FINAL              000000004335332000000000000000000000000000000000000000000000000000000000000000000000000000000000000000000000000000000000PES00010000001000000000000000020250211
202501210060000100000000000000043490000000000000000434909900000000000000000000CONSUMIDOR FINAL              000000000417600000000000000000000000000000000000000000000000000000000000000000000000000000000000000000000000000000000000PES00010000001000000000000000020250211
202501210060000100000000000000043491000000000000000434919900000000000000000000CONSUMIDOR FINAL              000000000299860000000000000000000000000000000000000000000000000000000000000000000000000000000000000000000000000000000000PES00010000001000000000000000020250211
202501210010000100000000000000003610000000000000000036108000000000020184480655ZAPATA ANDRES F.              000000000661374000000000000000000000000000000000000000000000000000000000000000000000000000000000000000000000000000000000PES00010000002E00000000000000020250211
202501210060000100000000000000043492000000000000000434929900000000000000000000CONSUMIDOR FINAL              000000011598000000000000000000000000000000000000000000000000000000000000000000000000000000000000000000000000000000000000PES00010000001000000000000000020250211
202501210060000100000000000000043493000000000000000434939900000000000000000000CONSUMIDOR FINAL              000000005103700000000000000000000000000000000000000000000000000000000000000000000000000000000000000000000000000000000000PES00010000001000000000000000020250211
202501210010000100000000000000003611000000000000000036118000000000020257930808PIZZARRO JORGE JAVIE          000000000249830000000000000000000000000000000000000000000000000000000000000000000000000000000000000000000000000000000000PES00010000001000000000000000020250211
202501210010000100000000000000003612000000000000000036128000000000030709556076EFMARCO ARGENTINA SR          000000000747040000000000000000000000000000000000000000000000000000000000000000000000000000000000000000000000000000000000PES00010000001000000000000000020250211
202501210060000100000000000000043494000000000000000434949900000000000000000000CONSUMIDOR FINAL              000000011598000000000000000000000000000000000000000000000000000000000000000000000000000000000000000000000000000000000000PES00010000001000000000000000020250211
202501210060000100000000000000043495000000000000000434959900000000000000000000CONSUMIDOR FINAL              000000007433738000000000000000000000000000000000000000000000000000000000000000000000000000000000000000000000000000000000PES00010000001000000000000000020250211
202501220010000100000000000000003613000000000000000036138000000000030605464250FORNER S.R.L.                 000000001314923000000000000000000000000000000000000000000000000000000000000000000000000000000000000000000000000000000000PES00010000001000000000000000020250211
202501220060000100000000000000043496000000000000000434969900000000000000000000CONSUMIDOR FINAL              000000001314923000000000000000000000000000000000000000000000000000000000000000000000000000000000000000000000000000000000PES00010000001000000000000000020250211
202501220010000100000000000000003614000000000000000036148000000000027235977813ZABALA LILIANA MARIE          000000000620658000000000000000000000000000000000000000000000000000000000000000000000000000000000000000000000000000000000PES00010000002E00000000000000020250211
202501220060000100000000000000043497000000000000000434979900000000000000000000CONSUMIDOR FINAL              000000000444280000000000000000000000000000000000000000000000000000000000000000000000000000000000000000000000000000000000PES00010000001000000000000000020250211
202501220010000100000000000000003615000000000000000036158000000000030605464250FORNER S.R.L.                 000000001350001000000000000000000000000000000000000000000000000000000000000000000000000000000000000000000000000000000000PES00010000001000000000000000020250211
202501220010000100000000000000003616000000000000000036168000000000030605464250FORNER S.R.L.                 000000001350001000000000000000000000000000000000000000000000000000000000000000000000000000000000000000000000000000000000PES00010000001000000000000000020250211
202501220010000100000000000000003617000000000000000036178000000000030605464250FORNER S.R.L.                 000000001350001000000000000000000000000000000000000000000000000000000000000000000000000000000000000000000000000000000000PES00010000001000000000000000020250211
202501220010000100000000000000003618000000000000000036188000000000030605464250FORNER S.R.L.                 000000001350001000000000000000000000000000000000000000000000000000000000000000000000000000000000000000000000000000000000PES00010000001000000000000000020250211
202501220010000100000000000000003619000000000000000036198000000000030605464250FORNER S.R.L.                 000000001350001000000000000000000000000000000000000000000000000000000000000000000000000000000000000000000000000000000000PES00010000001000000000000000020250211
202501220060000100000000000000043498000000000000000434989900000000000000000000CONSUMIDOR FINAL              000000007884320000000000000000000000000000000000000000000000000000000000000000000000000000000000000000000000000000000000PES00010000001000000000000000020250211
202501220060000100000000000000043499000000000000000434999900000000000000000000CONSUMIDOR FINAL              000000000593533000000000000000000000000000000000000000000000000000000000000000000000000000000000000000000000000000000000PES00010000001000000000000000020250211
202501220010000100000000000000003620000000000000000036208000000000030605464250FORNER S.R.L.                 000000001350001000000000000000000000000000000000000000000000000000000000000000000000000000000000000000000000000000000000PES00010000001000000000000000020250211
202501220010000100000000000000003621000000000000000036218000000000030605464250FORNER S.R.L.                 000000001350001000000000000000000000000000000000000000000000000000000000000000000000000000000000000000000000000000000000PES00010000001000000000000000020250211
202501220010000100000000000000003622000000000000000036228000000000030605464250FORNER S.R.L.                 000000001350001000000000000000000000000000000000000000000000000000000000000000000000000000000000000000000000000000000000PES00010000001000000000000000020250211
202501220010000100000000000000003623000000000000000036238000000000030605464250FORNER S.R.L.                 000000001350001000000000000000000000000000000000000000000000000000000000000000000000000000000000000000000000000000000000PES00010000001000000000000000020250211
202501220010000100000000000000003624000000000000000036248000000000030605464250FORNER S.R.L.                 000000001197807000000000000000000000000000000000000000000000000000000000000000000000000000000000000000000000000000000000PES00010000001000000000000000020250211
202501220060000100000000000000043500000000000000000435009900000000000000000000CONSUMIDOR FINAL              000000006597812000000000000000000000000000000000000000000000000000000000000000000000000000000000000000000000000000000000PES00010000001000000000000000020250211
202501220010000100000000000000003625000000000000000036258000000000030712372113INGENERA S.R.L.               000000001271940000000000000000000000000000000000000000000000000000000000000000000000000000000000000000000000000000000000PES00010000001000000000000000020250211
202501230060000100000000000000043501000000000000000435019900000000000000000000CONSUMIDOR FINAL              000000000360180000000000000000000000000000000000000000000000000000000000000000000000000000000000000000000000000000000000PES00010000001000000000000000020250211
202501230010000100000000000000003626000000000000000036268000000000020230018511BORONAT EDUARDO               000000001020800000000000000000000000000000000000000000000000000000000000000000000000000000000000000000000000000000000000PES00010000001000000000000000020250211
202501230060000100000000000000043502000000000000000435029900000000000000000000CONSUMIDOR FINAL              000000000509999000000000000000000000000000000000000000000000000000000000000000000000000000000000000000000000000000000000PES00010000001000000000000000020250211
202501230010000100000000000000003627000000000000000036278000000000030605464250FORNER S.R.L.                 000000001350001000000000000000000000000000000000000000000000000000000000000000000000000000000000000000000000000000000000PES00010000001000000000000000020250211
202501230010000100000000000000003628000000000000000036288000000000030605464250FORNER S.R.L.                 000000001350001000000000000000000000000000000000000000000000000000000000000000000000000000000000000000000000000000000000PES00010000001000000000000000020250211
202501230010000100000000000000003629000000000000000036298000000000030605464250FORNER S.R.L.                 000000001350001000000000000000000000000000000000000000000000000000000000000000000000000000000000000000000000000000000000PES00010000001000000000000000020250211
202501230010000100000000000000003630000000000000000036308000000000030605464250FORNER S.R.L.                 000000001350001000000000000000000000000000000000000000000000000000000000000000000000000000000000000000000000000000000000PES00010000001000000000000000020250211
202501230010000100000000000000003631000000000000000036318000000000030605464250FORNER S.R.L.                 000000001350001000000000000000000000000000000000000000000000000000000000000000000000000000000000000000000000000000000000PES00010000001000000000000000020250211
202501230060000100000000000000043503000000000000000435039900000000000000000000CONSUMIDOR FINAL              000000007498455000000000000000000000000000000000000000000000000000000000000000000000000000000000000000000000000000000000PES00010000001000000000000000020250211
202501240060000100000000000000043504000000000000000435049900000000000000000000CONSUMIDOR FINAL              000000000373520000000000000000000000000000000000000000000000000000000000000000000000000000000000000000000000000000000000PES00010000001000000000000000020250211
202501240060000100000000000000043505000000000000000435059900000000000000000000CONSUMIDOR FINAL              000000000474440000000000000000000000000000000000000000000000000000000000000000000000000000000000000000000000000000000000PES00010000001000000000000000020250211
202501240010000100000000000000003632000000000000000036328000000000030605464250FORNER S.R.L.                 000000001350001000000000000000000000000000000000000000000000000000000000000000000000000000000000000000000000000000000000PES00010000001000000000000000020250211
202501240010000100000000000000003633000000000000000036338000000000030605464250FORNER S.R.L.                 000000001350001000000000000000000000000000000000000000000000000000000000000000000000000000000000000000000000000000000000PES00010000001000000000000000020250211
202501240010000100000000000000003634000000000000000036348000000000030605464250FORNER S.R.L.                 000000001350001000000000000000000000000000000000000000000000000000000000000000000000000000000000000000000000000000000000PES00010000001000000000000000020250211
202501240010000100000000000000003635000000000000000036358000000000030605464250FORNER S.R.L.                 000000001350001000000000000000000000000000000000000000000000000000000000000000000000000000000000000000000000000000000000PES00010000001000000000000000020250211
202501240010000100000000000000003636000000000000000036368000000000030605464250FORNER S.R.L.                 000000001350001000000000000000000000000000000000000000000000000000000000000000000000000000000000000000000000000000000000PES00010000001000000000000000020250211
202501240010000100000000000000003637000000000000000036378000000000030605464250FORNER S.R.L.                 000000001350001000000000000000000000000000000000000000000000000000000000000000000000000000000000000000000000000000000000PES00010000001000000000000000020250211
202501240010000100000000000000003638000000000000000036388000000000030605464250FORNER S.R.L.                 000000001350001000000000000000000000000000000000000000000000000000000000000000000000000000000000000000000000000000000000PES00010000001000000000000000020250211
202501240010000100000000000000003639000000000000000036398000000000030605464250FORNER S.R.L.                 000000001350001000000000000000000000000000000000000000000000000000000000000000000000000000000000000000000000000000000000PES00010000001000000000000000020250211
202501240010000100000000000000003640000000000000000036408000000000030605464250FORNER S.R.L.                 000000001350001000000000000000000000000000000000000000000000000000000000000000000000000000000000000000000000000000000000PES00010000001000000000000000020250211
202501240010000100000000000000003641000000000000000036418000000000030605464250FORNER S.R.L.                 000000001350001000000000000000000000000000000000000000000000000000000000000000000000000000000000000000000000000000000000PES00010000001000000000000000020250211
202501240010000100000000000000003642000000000000000036428000000000030605464250FORNER S.R.L.                 000000001350001000000000000000000000000000000000000000000000000000000000000000000000000000000000000000000000000000000000PES00010000001000000000000000020250211
202501240010000100000000000000003643000000000000000036438000000000030605464250FORNER S.R.L.                 000000001350001000000000000000000000000000000000000000000000000000000000000000000000000000000000000000000000000000000000PES00010000001000000000000000020250211
202501240010000100000000000000003644000000000000000036448000000000030605464250FORNER S.R.L.                 000000001350001000000000000000000000000000000000000000000000000000000000000000000000000000000000000000000000000000000000PES00010000001000000000000000020250211
202501240010000100000000000000003645000000000000000036458000000000030605464250FORNER S.R.L.                 000000001350001000000000000000000000000000000000000000000000000000000000000000000000000000000000000000000000000000000000PES00010000001000000000000000020250211
202501240010000100000000000000003646000000000000000036468000000000030605464250FORNER S.R.L.                 000000001350001000000000000000000000000000000000000000000000000000000000000000000000000000000000000000000000000000000000PES00010000001000000000000000020250211
202501240010000100000000000000003647000000000000000036478000000000030605464250FORNER S.R.L.                 000000001350001000000000000000000000000000000000000000000000000000000000000000000000000000000000000000000000000000000000PES00010000001000000000000000020250211
202501240010000100000000000000003648000000000000000036488000000000030605464250FORNER S.R.L.                 000000001350001000000000000000000000000000000000000000000000000000000000000000000000000000000000000000000000000000000000PES00010000001000000000000000020250211
202501240010000100000000000000003649000000000000000036498000000000030605464250FORNER S.R.L.                 000000001350001000000000000000000000000000000000000000000000000000000000000000000000000000000000000000000000000000000000PES00010000001000000000000000020250211
202501240010000100000000000000003650000000000000000036508000000000030605464250FORNER S.R.L.                 000000001350001000000000000000000000000000000000000000000000000000000000000000000000000000000000000000000000000000000000PES00010000001000000000000000020250211
202501240010000100000000000000003651000000000000000036518000000000030605464250FORNER S.R.L.                 000000001350001000000000000000000000000000000000000000000000000000000000000000000000000000000000000000000000000000000000PES00010000001000000000000000020250211
202501240010000100000000000000003652000000000000000036528000000000030605464250FORNER S.R.L.                 000000001350001000000000000000000000000000000000000000000000000000000000000000000000000000000000000000000000000000000000PES00010000001000000000000000020250211
202501240010000100000000000000003653000000000000000036538000000000030605464250FORNER S.R.L.                 000000001350001000000000000000000000000000000000000000000000000000000000000000000000000000000000000000000000000000000000PES00010000001000000000000000020250211
202501240010000100000000000000003654000000000000000036548000000000030605464250FORNER S.R.L.                 000000001350001000000000000000000000000000000000000000000000000000000000000000000000000000000000000000000000000000000000PES00010000001000000000000000020250211
202501240010000100000000000000003655000000000000000036558000000000030605464250FORNER S.R.L.                 000000001350001000000000000000000000000000000000000000000000000000000000000000000000000000000000000000000000000000000000PES00010000001000000000000000020250211
202501240060000100000000000000043506000000000000000435069900000000000000000000CONSUMIDOR FINAL              000000011598000000000000000000000000000000000000000000000000000000000000000000000000000000000000000000000000000000000000PES00010000001000000000000000020250211
202501240060000100000000000000043507000000000000000435079900000000000000000000CONSUMIDOR FINAL              000000011598000000000000000000000000000000000000000000000000000000000000000000000000000000000000000000000000000000000000PES00010000001000000000000000020250211
202501240060000100000000000000043508000000000000000435089900000000000000000000CONSUMIDOR FINAL              000000009265178000000000000000000000000000000000000000000000000000000000000000000000000000000000000000000000000000000000PES00010000001000000000000000020250211
202501240060000100000000000000043509000000000000000435099900000000000000000000CONSUMIDOR FINAL              000000000640900000000000000000000000000000000000000000000000000000000000000000000000000000000000000000000000000000000000PES00010000001000000000000000020250211
202501240060000100000000000000043510000000000000000435109900000000000000000000CONSUMIDOR FINAL              000000000410640000000000000000000000000000000000000000000000000000000000000000000000000000000000000000000000000000000000PES00010000001000000000000000020250211
202501240060000100000000000000043511000000000000000435119900000000000000000000CONSUMIDOR FINAL              000000000570720000000000000000000000000000000000000000000000000000000000000000000000000000000000000000000000000000000000PES00010000001000000000000000020250211
202501240060000100000000000000043512000000000000000435129900000000000000000000CONSUMIDOR FINAL              000000000456228000000000000000000000000000000000000000000000000000000000000000000000000000000000000000000000000000000000PES00010000001000000000000000020250211
202501240010000100000000000000003656000000000000000036568000000000030605464250FORNER S.R.L.                 000000001350001000000000000000000000000000000000000000000000000000000000000000000000000000000000000000000000000000000000PES00010000001000000000000000020250211
202501240010000100000000000000003657000000000000000036578000000000030605464250FORNER S.R.L.                 000000001350001000000000000000000000000000000000000000000000000000000000000000000000000000000000000000000000000000000000PES00010000001000000000000000020250211
202501240010000100000000000000003658000000000000000036588000000000030605464250FORNER S.R.L.                 000000001350001000000000000000000000000000000000000000000000000000000000000000000000000000000000000000000000000000000000PES00010000001000000000000000020250211
202501240010000100000000000000003659000000000000000036598000000000030605464250FORNER S.R.L.                 000000001350001000000000000000000000000000000000000000000000000000000000000000000000000000000000000000000000000000000000PES00010000001000000000000000020250211
202501240010000100000000000000003660000000000000000036608000000000030605464250FORNER S.R.L.                 000000001350001000000000000000000000000000000000000000000000000000000000000000000000000000000000000000000000000000000000PES00010000001000000000000000020250211
202501240010000100000000000000003661000000000000000036618000000000030605464250FORNER S.R.L.                 000000001350001000000000000000000000000000000000000000000000000000000000000000000000000000000000000000000000000000000000PES00010000001000000000000000020250211
202501240010000100000000000000003662000000000000000036628000000000030605464250FORNER S.R.L.                 000000001350001000000000000000000000000000000000000000000000000000000000000000000000000000000000000000000000000000000000PES00010000001000000000000000020250211
202501240010000100000000000000003663000000000000000036638000000000030605464250FORNER S.R.L.                 000000001350001000000000000000000000000000000000000000000000000000000000000000000000000000000000000000000000000000000000PES00010000001000000000000000020250211
202501240010000100000000000000003664000000000000000036648000000000030605464250FORNER S.R.L.                 000000000664902000000000000000000000000000000000000000000000000000000000000000000000000000000000000000000000000000000000PES00010000001000000000000000020250211
202501240060000100000000000000043513000000000000000435139900000000000000000000CONSUMIDOR FINAL              000000011464913000000000000000000000000000000000000000000000000000000000000000000000000000000000000000000000000000000000PES00010000001000000000000000020250211
202501250060000100000000000000043514000000000000000435149900000000000000000000CONSUMIDOR FINAL              000000000339880000000000000000000000000000000000000000000000000000000000000000000000000000000000000000000000000000000000PES00010000001000000000000000020250211
202501250060000100000000000000043515000000000000000435159900000000000000000000CONSUMIDOR FINAL              000000005073545000000000000000000000000000000000000000000000000000000000000000000000000000000000000000000000000000000000PES00010000001000000000000000020250211
202501250060000100000000000000043516000000000000000435169900000000000000000000CONSUMIDOR FINAL              000000000619440000000000000000000000000000000000000000000000000000000000000000000000000000000000000000000000000000000000PES00010000001000000000000000020250211
202501250060000100000000000000043517000000000000000435179900000000000000000000CONSUMIDOR FINAL              000000011598000000000000000000000000000000000000000000000000000000000000000000000000000000000000000000000000000000000000PES00010000001000000000000000020250211
202501250060000100000000000000043518000000000000000435189900000000000000000000CONSUMIDOR FINAL              000000005986308000000000000000000000000000000000000000000000000000000000000000000000000000000000000000000000000000000000PES00010000001000000000000000020250211
202501250060000100000000000000043519000000000000000435199900000000000000000000CONSUMIDOR FINAL              000000000411220000000000000000000000000000000000000000000000000000000000000000000000000000000000000000000000000000000000PES00010000001000000000000000020250211
202501250060000100000000000000043520000000000000000435209900000000000000000000CONSUMIDOR FINAL              000000000769825000000000000000000000000000000000000000000000000000000000000000000000000000000000000000000000000000000000PES00010000001000000000000000020250211
202501250010000100000000000000003665000000000000000036658000000000023162780859MARIO ENRIQUE POSTIG          000000000540560000000000000000000000000000000000000000000000000000000000000000000000000000000000000000000000000000000000PES00010000001000000000000000020250211
202501250060000100000000000000043521000000000000000435219900000000000000000000CONSUMIDOR FINAL              000000011598000000000000000000000000000000000000000000000000000000000000000000000000000000000000000000000000000000000000PES00010000001000000000000000020250211
202501250060000100000000000000043522000000000000000435229900000000000000000000CONSUMIDOR FINAL              000000000744592000000000000000000000000000000000000000000000000000000000000000000000000000000000000000000000000000000000PES00010000001000000000000000020250211
202501260060000100000000000000043523000000000000000435239900000000000000000000CONSUMIDOR FINAL              000000006017622000000000000000000000000000000000000000000000000000000000000000000000000000000000000000000000000000000000PES00010000001000000000000000020250211
202501260060000100000000000000043524000000000000000435249900000000000000000000CONSUMIDOR FINAL              000000011598000000000000000000000000000000000000000000000000000000000000000000000000000000000000000000000000000000000000PES00010000001000000000000000020250211
202501260060000100000000000000043525000000000000000435259900000000000000000000CONSUMIDOR FINAL              000000002833391000000000000000000000000000000000000000000000000000000000000000000000000000000000000000000000000000000000PES00010000001000000000000000020250211
202501260060000100000000000000043526000000000000000435269900000000000000000000CONSUMIDOR FINAL              000000005611112000000000000000000000000000000000000000000000000000000000000000000000000000000000000000000000000000000000PES00010000001000000000000000020250211
202501260060000100000000000000043527000000000000000435279900000000000000000000CONSUMIDOR FINAL              000000000633940000000000000000000000000000000000000000000000000000000000000000000000000000000000000000000000000000000000PES00010000001000000000000000020250211
202501270010000100000000000000003666000000000000000036668000000000030605464250FORNER S.R.L.                 000000001350001000000000000000000000000000000000000000000000000000000000000000000000000000000000000000000000000000000000PES00010000001000000000000000020250211
202501270060000100000000000000043528000000000000000435289900000000000000000000CONSUMIDOR FINAL              000000001490343000000000000000000000000000000000000000000000000000000000000000000000000000000000000000000000000000000000PES00010000001000000000000000020250211
202501270060000100000000000000043529000000000000000435299900000000000000000000CONSUMIDOR FINAL              000000000530700000000000000000000000000000000000000000000000000000000000000000000000000000000000000000000000000000000000PES00010000001000000000000000020250211
202501270010000100000000000000003667000000000000000036678000000000030709157589MOVILSAT COMUNICACIO          000000000596820000000000000000000000000000000000000000000000000000000000000000000000000000000000000000000000000000000000PES00010000001000000000000000020250211
202501270010000100000000000000003668000000000000000036688000000000030605464250FORNER S.R.L.                 000000001350001000000000000000000000000000000000000000000000000000000000000000000000000000000000000000000000000000000000PES00010000001000000000000000020250211
202501270010000100000000000000003669000000000000000036698000000000030605464250FORNER S.R.L.                 000000001350001000000000000000000000000000000000000000000000000000000000000000000000000000000000000000000000000000000000PES00010000001000000000000000020250211
202501270010000100000000000000003670000000000000000036708000000000030605464250FORNER S.R.L.                 000000001350001000000000000000000000000000000000000000000000000000000000000000000000000000000000000000000000000000000000PES00010000001000000000000000020250211
202501270010000100000000000000003671000000000000000036718000000000030605464250FORNER S.R.L.                 000000001350001000000000000000000000000000000000000000000000000000000000000000000000000000000000000000000000000000000000PES00010000001000000000000000020250211
202501270010000100000000000000003672000000000000000036728000000000030605464250FORNER S.R.L.                 000000001350001000000000000000000000000000000000000000000000000000000000000000000000000000000000000000000000000000000000PES00010000001000000000000000020250211
202501270010000100000000000000003673000000000000000036738000000000030605464250FORNER S.R.L.                 000000001350001000000000000000000000000000000000000000000000000000000000000000000000000000000000000000000000000000000000PES00010000001000000000000000020250211
202501270010000100000000000000003674000000000000000036748000000000030605464250FORNER S.R.L.                 000000001350001000000000000000000000000000000000000000000000000000000000000000000000000000000000000000000000000000000000PES00010000001000000000000000020250211
202501270010000100000000000000003675000000000000000036758000000000030605464250FORNER S.R.L.                 000000001311774000000000000000000000000000000000000000000000000000000000000000000000000000000000000000000000000000000000PES00010000001000000000000000020250211
202501270060000100000000000000043530000000000000000435309900000000000000000000CONSUMIDOR FINAL              000000010761784000000000000000000000000000000000000000000000000000000000000000000000000000000000000000000000000000000000PES00010000001000000000000000020250211
202501270010000100000000000000003676000000000000000036768000000000023162780859MARIO ENRIQUE POSTIG          000000000585800000000000000000000000000000000000000000000000000000000000000000000000000000000000000000000000000000000000PES00010000001000000000000000020250211
202501270060000100000000000000043531000000000000000435319900000000000000000000CONSUMIDOR FINAL              000000000729640000000000000000000000000000000000000000000000000000000000000000000000000000000000000000000000000000000000PES00010000001000000000000000020250211
202501270060000100000000000000043532000000000000000435329900000000000000000000CONSUMIDOR FINAL              000000000833460000000000000000000000000000000000000000000000000000000000000000000000000000000000000000000000000000000000PES00010000001000000000000000020250211
202501270010000100000000000000003678000000000000000036788000000000030605464250FORNER S.R.L.                 000000001350001000000000000000000000000000000000000000000000000000000000000000000000000000000000000000000000000000000000PES00010000001000000000000000020250211
202501270010000100000000000000003679000000000000000036798000000000030605464250FORNER S.R.L.                 000000001350001000000000000000000000000000000000000000000000000000000000000000000000000000000000000000000000000000000000PES00010000001000000000000000020250211
202501270010000100000000000000003680000000000000000036808000000000030605464250FORNER S.R.L.                 000000001350001000000000000000000000000000000000000000000000000000000000000000000000000000000000000000000000000000000000PES00010000001000000000000000020250211
202501270010000100000000000000003681000000000000000036818000000000030605464250FORNER S.R.L.                 000000001350001000000000000000000000000000000000000000000000000000000000000000000000000000000000000000000000000000000000PES00010000001000000000000000020250211
202501270010000100000000000000003682000000000000000036828000000000030605464250FORNER S.R.L.                 000000001350001000000000000000000000000000000000000000000000000000000000000000000000000000000000000000000000000000000000PES00010000001000000000000000020250211
202501270010000100000000000000003683000000000000000036838000000000030605464250FORNER S.R.L.                 000000001350001000000000000000000000000000000000000000000000000000000000000000000000000000000000000000000000000000000000PES00010000001000000000000000020250211
202501270010000100000000000000003684000000000000000036848000000000030605464250FORNER S.R.L.                 000000001350001000000000000000000000000000000000000000000000000000000000000000000000000000000000000000000000000000000000PES00010000001000000000000000020250211
202501270010000100000000000000003685000000000000000036858000000000030605464250FORNER S.R.L.                 000000001350001000000000000000000000000000000000000000000000000000000000000000000000000000000000000000000000000000000000PES00010000001000000000000000020250211
202501270010000100000000000000003686000000000000000036868000000000030605464250FORNER S.R.L.                 000000001350001000000000000000000000000000000000000000000000000000000000000000000000000000000000000000000000000000000000PES00010000001000000000000000020250211
202501270060000100000000000000043533000000000000000435339900000000000000000000CONSUMIDOR FINAL              000000011598000000000000000000000000000000000000000000000000000000000000000000000000000000000000000000000000000000000000PES00010000001000000000000000020250211
202501270060000100000000000000043534000000000000000435349900000000000000000000CONSUMIDOR FINAL              000000000856570000000000000000000000000000000000000000000000000000000000000000000000000000000000000000000000000000000000PES00010000001000000000000000020250211
202501280060000100000000000000043535000000000000000435359900000000000000000000CONSUMIDOR FINAL              000000000380538000000000000000000000000000000000000000000000000000000000000000000000000000000000000000000000000000000000PES00010000002E00000000000000020250211
202501280060000100000000000000043536000000000000000435369900000000000000000000CONSUMIDOR FINAL              000000002838611000000000000000000000000000000000000000000000000000000000000000000000000000000000000000000000000000000000PES00010000001000000000000000020250211
202501280060000100000000000000043537000000000000000435379900000000000000000000CONSUMIDOR FINAL              000000000503730000000000000000000000000000000000000000000000000000000000000000000000000000000000000000000000000000000000PES00010000002E00000000000000020250211
202501280060000100000000000000043538000000000000000435389900000000000000000000CONSUMIDOR FINAL              000000000142680000000000000000000000000000000000000000000000000000000000000000000000000000000000000000000000000000000000PES00010000001000000000000000020250211
202501280010000100000000000000003687000000000000000036878000000000027235977813ZABALA LILIANA MARIE          000000000545490000000000000000000000000000000000000000000000000000000000000000000000000000000000000000000000000000000000PES00010000002E00000000000000020250211
202501280060000100000000000000043539000000000000000435399900000000000000000000CONSUMIDOR FINAL              000000011598000000000000000000000000000000000000000000000000000000000000000000000000000000000000000000000000000000000000PES00010000001000000000000000020250211
202501280060000100000000000000043540000000000000000435409900000000000000000000CONSUMIDOR FINAL              000000002152589000000000000000000000000000000000000000000000000000000000000000000000000000000000000000000000000000000000PES00010000001000000000000000020250211
202501280010000100000000000000003688000000000000000036888000000000020230018511BORONAT EDUARDO               000000000942500000000000000000000000000000000000000000000000000000000000000000000000000000000000000000000000000000000000PES00010000001000000000000000020250211
202501280060000100000000000000043541000000000000000435419900000000000000000000CONSUMIDOR FINAL              000000000550207000000000000000000000000000000000000000000000000000000000000000000000000000000000000000000000000000000000PES00010000001000000000000000020250211
202501280060000100000000000000043542000000000000000435429900000000000000000000CONSUMIDOR FINAL              000000011598000000000000000000000000000000000000000000000000000000000000000000000000000000000000000000000000000000000000PES00010000001000000000000000020250211
202501280060000100000000000000043543000000000000000435439900000000000000000000CONSUMIDOR FINAL              000000007822271000000000000000000000000000000000000000000000000000000000000000000000000000000000000000000000000000000000PES00010000001000000000000000020250211
202501290060000100000000000000043544000000000000000435449900000000000000000000CONSUMIDOR FINAL              000000000360180000000000000000000000000000000000000000000000000000000000000000000000000000000000000000000000000000000000PES00010000001000000000000000020250211
202501290010000100000000000000003689000000000000000036898000000000030605464250FORNER S.R.L.                 000000001350001000000000000000000000000000000000000000000000000000000000000000000000000000000000000000000000000000000000PES00010000001000000000000000020250211
202501290010000100000000000000003690000000000000000036908000000000030605464250FORNER S.R.L.                 000000001281005000000000000000000000000000000000000000000000000000000000000000000000000000000000000000000000000000000000PES00010000001000000000000000020250211
202501290060000100000000000000043545000000000000000435459900000000000000000000CONSUMIDOR FINAL              000000002631006000000000000000000000000000000000000000000000000000000000000000000000000000000000000000000000000000000000PES00010000001000000000000000020250211
202501290060000100000000000000043546000000000000000435469900000000000000000000CONSUMIDOR FINAL              000000000299796000000000000000000000000000000000000000000000000000000000000000000000000000000000000000000000000000000000PES00010000001000000000000000020250211
202501290010000100000000000000003692000000000000000036928000000000020184480655ZAPATA ANDRES F.              000000000629489000000000000000000000000000000000000000000000000000000000000000000000000000000000000000000000000000000000PES00010000001000000000000000020250211
202501290010000100000000000000003693000000000000000036938000000000030605464250FORNER S.R.L.                 000000001350001000000000000000000000000000000000000000000000000000000000000000000000000000000000000000000000000000000000PES00010000001000000000000000020250211
202501290010000100000000000000003694000000000000000036948000000000030605464250FORNER S.R.L.                 000000001350001000000000000000000000000000000000000000000000000000000000000000000000000000000000000000000000000000000000PES00010000001000000000000000020250211
202501290010000100000000000000003695000000000000000036958000000000030605464250FORNER S.R.L.                 000000001350001000000000000000000000000000000000000000000000000000000000000000000000000000000000000000000000000000000000PES00010000001000000000000000020250211
202501290010000100000000000000003696000000000000000036968000000000030605464250FORNER S.R.L.                 000000001350001000000000000000000000000000000000000000000000000000000000000000000000000000000000000000000000000000000000PES00010000001000000000000000020250211
202501290010000100000000000000003697000000000000000036978000000000030605464250FORNER S.R.L.                 000000001350001000000000000000000000000000000000000000000000000000000000000000000000000000000000000000000000000000000000PES00010000001000000000000000020250211
202501290060000100000000000000043547000000000000000435479900000000000000000000CONSUMIDOR FINAL              000000007489409000000000000000000000000000000000000000000000000000000000000000000000000000000000000000000000000000000000PES00010000001000000000000000020250211
202501290060000100000000000000043548000000000000000435489900000000000000000000CONSUMIDOR FINAL              000000000377928000000000000000000000000000000000000000000000000000000000000000000000000000000000000000000000000000000000PES00010000001000000000000000020250211
202501290010000100000000000000003698000000000000000036988000000000030605464250FORNER S.R.L.                 000000001350001000000000000000000000000000000000000000000000000000000000000000000000000000000000000000000000000000000000PES00010000001000000000000000020250211
202501290010000100000000000000003699000000000000000036998000000000030605464250FORNER S.R.L.                 000000001350001000000000000000000000000000000000000000000000000000000000000000000000000000000000000000000000000000000000PES00010000001000000000000000020250211
202501290010000100000000000000003700000000000000000037008000000000030605464250FORNER S.R.L.                 000000001350001000000000000000000000000000000000000000000000000000000000000000000000000000000000000000000000000000000000PES00010000001000000000000000020250211
202501290010000100000000000000003701000000000000000037018000000000030605464250FORNER S.R.L.                 000000001350001000000000000000000000000000000000000000000000000000000000000000000000000000000000000000000000000000000000PES00010000001000000000000000020250211
202501290010000100000000000000003702000000000000000037028000000000030605464250FORNER S.R.L.                 000000001350001000000000000000000000000000000000000000000000000000000000000000000000000000000000000000000000000000000000PES00010000001000000000000000020250211
202501290010000100000000000000003703000000000000000037038000000000030605464250FORNER S.R.L.                 000000001350001000000000000000000000000000000000000000000000000000000000000000000000000000000000000000000000000000000000PES00010000001000000000000000020250211
202501290010000100000000000000003704000000000000000037048000000000030605464250FORNER S.R.L.                 000000001322787000000000000000000000000000000000000000000000000000000000000000000000000000000000000000000000000000000000PES00010000001000000000000000020250211
202501290060000100000000000000043549000000000000000435499900000000000000000000CONSUMIDOR FINAL              000000009422795000000000000000000000000000000000000000000000000000000000000000000000000000000000000000000000000000000000PES00010000001000000000000000020250211
202501290060000100000000000000043550000000000000000435509900000000000000000000CONSUMIDOR FINAL              000000000199969000000000000000000000000000000000000000000000000000000000000000000000000000000000000000000000000000000000PES00010000001000000000000000020250211
202501290060000100000000000000043551000000000000000435519900000000000000000000CONSUMIDOR FINAL              000000000412380000000000000000000000000000000000000000000000000000000000000000000000000000000000000000000000000000000000PES00010000001000000000000000020250211
202501300060000100000000000000043552000000000000000435529900000000000000000000CONSUMIDOR FINAL              000000000438480000000000000000000000000000000000000000000000000000000000000000000000000000000000000000000000000000000000PES00010000001000000000000000020250211
202501300060000100000000000000043553000000000000000435539900000000000000000000CONSUMIDOR FINAL              000000000439002000000000000000000000000000000000000000000000000000000000000000000000000000000000000000000000000000000000PES00010000002E00000000000000020250211
202501300010000100000000000000003705000000000000000037058000000000030605464250FORNER S.R.L.                 000000001350001000000000000000000000000000000000000000000000000000000000000000000000000000000000000000000000000000000000PES00010000001000000000000000020250211
202501300060000100000000000000043554000000000000000435549900000000000000000000CONSUMIDOR FINAL              000000001939186000000000000000000000000000000000000000000000000000000000000000000000000000000000000000000000000000000000PES00010000001000000000000000020250211
202501300060000100000000000000043555000000000000000435559900000000000000000000CONSUMIDOR FINAL              000000000436740000000000000000000000000000000000000000000000000000000000000000000000000000000000000000000000000000000000PES00010000001000000000000000020250211
202501300060000100000000000000043556000000000000000435569900000000000000000000CONSUMIDOR FINAL              000000000460404000000000000000000000000000000000000000000000000000000000000000000000000000000000000000000000000000000000PES00010000001000000000000000020250211
202501300060000100000000000000043557000000000000000435579900000000000000000000CONSUMIDOR FINAL              000000000470960000000000000000000000000000000000000000000000000000000000000000000000000000000000000000000000000000000000PES00010000001000000000000000020250211
202501300060000100000000000000043558000000000000000435589900000000000000000000CONSUMIDOR FINAL              000000000531860000000000000000000000000000000000000000000000000000000000000000000000000000000000000000000000000000000000PES00010000001000000000000000020250211
202501300060000100000000000000043559000000000000000435599900000000000000000000CONSUMIDOR FINAL              000000000302180000000000000000000000000000000000000000000000000000000000000000000000000000000000000000000000000000000000PES00010000001000000000000000020250211
202501300060000100000000000000043560000000000000000435609900000000000000000000CONSUMIDOR FINAL              000000000384192000000000000000000000000000000000000000000000000000000000000000000000000000000000000000000000000000000000PES00010000001000000000000000020250211
