202503030010002000000000000000000132000000000000000001328000000000030707108149CONJUNTO LOS CERROS           000000068976776000000000000000000000000000000000000000000000000000000000000000000000000000000000000000000000000000000000PES00010000001000000000000000020250415
202503030010002000000000000000000133000000000000000001338000000000030716119951COMBUSTIBLES ITALO A          000000168431046000000000000000000000000000000000000000000000000000000000000000000000000000000000000000000000000000000000PES00010000001000000000000000020250415
202503030010002000000000000000000134000000000000000001348000000000030716119951COMBUSTIBLES ITALO A          000000183593363000000000000000000000000000000000000000000000000000000000000000000000000000000000000000000000000000000000PES00010000001000000000000000020250415
202503050010002000000000000000000135000000000000000001358000000000030716119951COMBUSTIBLES ITALO A          000000196808799000000000000000000000000000000000000000000000000000000000000000000000000000000000000000000000000000000000PES00010000001000000000000000020250415
202503210010002000000000000000000136000000000000000001368000000000030716119951COMBUSTIBLES ITALO A          000000165719863000000000000000000000000000000000000000000000000000000000000000000000000000000000000000000000000000000000PES00010000001000000000000000020250415
202503210010002000000000000000000137000000000000000001378000000000030716119951COMBUSTIBLES ITALO A          000000166025823000000000000000000000000000000000000000000000000000000000000000000000000000000000000000000000000000000000PES00010000001000000000000000020250415
202503210010002000000000000000000138000000000000000001388000000000030714109282VASA S.A.                     000000066370855000000000000000000000000000000000000000000000000000000000000000000000000000000000000000000000000000000000PES00010000001000000000000000020250415
202503210010002000000000000000000139000000000000000001398000000000030543201967COMERCIAL MANITTA HN          000000086426012000000000000000000000000000000000000000000000000000000000000000000000000000000000000000000000000000000000PES00010000001000000000000000020250415
202503210010002000000000000000000140000000000000000001408000000000030615543132SAFARI AUTOMOTORES S          000000066370855000000000000000000000000000000000000000000000000000000000000000000000000000000000000000000000000000000000PES00010000001000000000000000020250415
202503270010002000000000000000000141000000000000000001418000000000030546689979YPF SA                        000000019697114000000000000000000000000000000000000000000000000000000000000000000000000000000000000000000000000000000000PES00010000001000000000000000020250415
202503310060002000000000000000000020000000000000000000208000000000020180823876GUSTAVO LEANDRO TORR          000000067808744000000000000000000000000000000000000000000000000000000000000000000000000000000000000000000000000000704185PES00010000001000000000000000020250415
202503310010002000000000000000000143000000000000000001438000000000030714109282VASA S.A.                     000000066370825000000000000000000000000000000000000000000000000000000000000000000000000000000000000000000000000000000000PES00010000001000000000000000020250415
202503310010002000000000000000000144000000000000000001448000000000030615543132SAFARI AUTOMOTORES S          000000066370855000000000000000000000000000000000000000000000000000000000000000000000000000000000000000000000000000000000PES00010000001000000000000000020250415
202503310010002000000000000000000145000000000000000001458000000000030543201967COMERCIAL MANITTA HN          000000086426012000000000000000000000000000000000000000000000000000000000000000000000000000000000000000000000000000000000PES00010000001000000000000000020250415
202503310010002000000000000000000146000000000000000001468000000000030710228546PEDEMONTE SRL                 000000006655000000000000000000000000000000000000000000000000000000000000000000000000000000000000000000000000000000000000PES00010000001000000000000000020250415
202503310010002000000000000000000142000000000000000001428000000000030707108149CONJUNTO LOS CERROS           000000068976776000000000000000000000000000000000000000000000000000000000000000000000000000000000000000000000000000000000PES00010000001000000000000000020250415
202503010060000300000000000000036724000000000000000367249900000000000000000000CONSUMIDOR FINAL              000000000450487000000000000000000000000000000000000000000000000000000000000000000000000000000000000000000000000000000000PES00010000002E00000000000000020250415
202503010060000300000000000000036725000000000000000367259900000000000000000000CONSUMIDOR FINAL              000000000600000000000000000000000000000000000000000000000000000000000000000000000000000000000000000000000000000000000000PES00010000001000000000000000020250415
202503010060000300000000000000036726000000000000000367269900000000000000000000CONSUMIDOR FINAL              000000006740758000000000000000000000000000000000000000000000000000000000000000000000000000000000000000000000000000000000PES00010000001000000000000000020250415
202503010060000300000000000000036727000000000000000367279900000000000000000000CONSUMIDOR FINAL              000000000487026000000000000000000000000000000000000000000000000000000000000000000000000000000000000000000000000000000000PES00010000002E00000000000000020250415
202503010060000300000000000000036728000000000000000367289900000000000000000000CONSUMIDOR FINAL              000000000390000000000000000000000000000000000000000000000000000000000000000000000000000000000000000000000000000000000000PES00010000001000000000000000020250415
202503010060000300000000000000036729000000000000000367299900000000000000000000CONSUMIDOR FINAL              000000000821098000000000000000000000000000000000000000000000000000000000000000000000000000000000000000000000000000000000PES00010000001000000000000000020250415
202503010060000300000000000000036730000000000000000367309900000000000000000000CONSUMIDOR FINAL              000000000371664000000000000000000000000000000000000000000000000000000000000000000000000000000000000000000000000000000000PES00010000001000000000000000020250415
202503010010000300000000000000003177000000000000000031778000000000020182690539GARCIA JOSE LUIS              000000000683180000000000000000000000000000000000000000000000000000000000000000000000000000000000000000000000000000000000PES00010000001000000000000000020250415
202503010060000300000000000000036731000000000000000367319900000000000000000000CONSUMIDOR FINAL              000000000460000000000000000000000000000000000000000000000000000000000000000000000000000000000000000000000000000000000000PES00010000001000000000000000020250415
202503010060000300000000000000036732000000000000000367329900000000000000000000CONSUMIDOR FINAL              000000001222400000000000000000000000000000000000000000000000000000000000000000000000000000000000000000000000000000000000PES00010000001000000000000000020250415
202503010060000300000000000000036733000000000000000367339900000000000000000000CONSUMIDOR FINAL              000000000732901000000000000000000000000000000000000000000000000000000000000000000000000000000000000000000000000000000000PES00010000001000000000000000020250415
202503010060000300000000000000036734000000000000000367349900000000000000000000CONSUMIDOR FINAL              000000000497988000000000000000000000000000000000000000000000000000000000000000000000000000000000000000000000000000000000PES00010000001000000000000000020250415
202503010060000300000000000000036735000000000000000367359900000000000000000000CONSUMIDOR FINAL              000000000500001000000000000000000000000000000000000000000000000000000000000000000000000000000000000000000000000000000000PES00010000001000000000000000020250415
202503010060000300000000000000036736000000000000000367369900000000000000000000CONSUMIDOR FINAL              000000000603954000000000000000000000000000000000000000000000000000000000000000000000000000000000000000000000000000000000PES00010000002E00000000000000020250415
202503010060000300000000000000036737000000000000000367379900000000000000000000CONSUMIDOR FINAL              000000000608297000000000000000000000000000000000000000000000000000000000000000000000000000000000000000000000000000000000PES00010000001000000000000000020250415
202503010060000300000000000000036738000000000000000367389900000000000000000000CONSUMIDOR FINAL              000000000715000000000000000000000000000000000000000000000000000000000000000000000000000000000000000000000000000000000000PES00010000001000000000000000020250415
202503010060000300000000000000036739000000000000000367399900000000000000000000CONSUMIDOR FINAL              000000000170000000000000000000000000000000000000000000000000000000000000000000000000000000000000000000000000000000000000PES00010000001000000000000000020250415
202503010060000300000000000000036740000000000000000367409900000000000000000000CONSUMIDOR FINAL              000000000496422000000000000000000000000000000000000000000000000000000000000000000000000000000000000000000000000000000000PES00010000002E00000000000000020250415
202503010060000300000000000000036741000000000000000367419900000000000000000000CONSUMIDOR FINAL              000000000424386000000000000000000000000000000000000000000000000000000000000000000000000000000000000000000000000000000000PES00010000002E00000000000000020250415
202503010060000300000000000000036742000000000000000367429900000000000000000000CONSUMIDOR FINAL              000000000170000000000000000000000000000000000000000000000000000000000000000000000000000000000000000000000000000000000000PES00010000001000000000000000020250415
202503010060000300000000000000036743000000000000000367439900000000000000000000CONSUMIDOR FINAL              000000011598000000000000000000000000000000000000000000000000000000000000000000000000000000000000000000000000000000000000PES00010000001000000000000000020250415
202503010060000300000000000000036744000000000000000367449900000000000000000000CONSUMIDOR FINAL              000000002670091000000000000000000000000000000000000000000000000000000000000000000000000000000000000000000000000000000000PES00010000001000000000000000020250415
202503010010000300000000000000003178000000000000000031788000000000020266775165PABLO OSCAR NICITO F          000000001500000000000000000000000000000000000000000000000000000000000000000000000000000000000000000000000000000000000000PES00010000001000000000000000020250415
202503010010000300000000000000003179000000000000000031798000000000020221362854LUCERO GUILLERMO JAV          000000000153120000000000000000000000000000000000000000000000000000000000000000000000000000000000000000000000000000000000PES00010000001000000000000000020250415
202503010060000300000000000000036745000000000000000367459900000000000000000000CONSUMIDOR FINAL              000000000301194000000000000000000000000000000000000000000000000000000000000000000000000000000000000000000000000000000000PES00010000002E00000000000000020250415
202503010060000300000000000000036746000000000000000367469900000000000000000000CONSUMIDOR FINAL              000000000527220000000000000000000000000000000000000000000000000000000000000000000000000000000000000000000000000000000000PES00010000001000000000000000020250415
202503010060000300000000000000036747000000000000000367479900000000000000000000CONSUMIDOR FINAL              000000000300000000000000000000000000000000000000000000000000000000000000000000000000000000000000000000000000000000000000PES00010000001000000000000000020250415
202503010060000300000000000000036748000000000000000367489900000000000000000000CONSUMIDOR FINAL              000000000546360000000000000000000000000000000000000000000000000000000000000000000000000000000000000000000000000000000000PES00010000001000000000000000020250415
202503010060000300000000000000036749000000000000000367499900000000000000000000CONSUMIDOR FINAL              000000000399852000000000000000000000000000000000000000000000000000000000000000000000000000000000000000000000000000000000PES00010000001000000000000000020250415
202503010060000300000000000000036750000000000000000367509900000000000000000000CONSUMIDOR FINAL              000000000533600000000000000000000000000000000000000000000000000000000000000000000000000000000000000000000000000000000000PES00010000001000000000000000020250415
202503010060000300000000000000036751000000000000000367519900000000000000000000CONSUMIDOR FINAL              000000000170000000000000000000000000000000000000000000000000000000000000000000000000000000000000000000000000000000000000PES00010000001000000000000000020250415
202503010010000300000000000000003180000000000000000031808000000000020141492056ARTURO ALEJANDRO ANI          000000000470960000000000000000000000000000000000000000000000000000000000000000000000000000000000000000000000000000000000PES00010000001000000000000000020250415
202503010060000300000000000000036752000000000000000367529900000000000000000000CONSUMIDOR FINAL              000000000570024000000000000000000000000000000000000000000000000000000000000000000000000000000000000000000000000000000000PES00010000001000000000000000020250415
202503010060000300000000000000036753000000000000000367539900000000000000000000CONSUMIDOR FINAL              000000000900000000000000000000000000000000000000000000000000000000000000000000000000000000000000000000000000000000000000PES00010000001000000000000000020250415
202503010060000300000000000000036754000000000000000367549900000000000000000000CONSUMIDOR FINAL              000000000300000000000000000000000000000000000000000000000000000000000000000000000000000000000000000000000000000000000000PES00010000001000000000000000020250415
202503010060000300000000000000036755000000000000000367559900000000000000000000CONSUMIDOR FINAL              000000011598000000000000000000000000000000000000000000000000000000000000000000000000000000000000000000000000000000000000PES00010000001000000000000000020250415
202503010060000300000000000000036756000000000000000367569900000000000000000000CONSUMIDOR FINAL              000000005252735000000000000000000000000000000000000000000000000000000000000000000000000000000000000000000000000000000000PES00010000001000000000000000020250415
202503010060000300000000000000036757000000000000000367579900000000000000000000CONSUMIDOR FINAL              000000000300000000000000000000000000000000000000000000000000000000000000000000000000000000000000000000000000000000000000PES00010000001000000000000000020250415
202503010060000300000000000000036758000000000000000367589900000000000000000000CONSUMIDOR FINAL              000000000309720000000000000000000000000000000000000000000000000000000000000000000000000000000000000000000000000000000000PES00010000001000000000000000020250415
202503010060000300000000000000036759000000000000000367599900000000000000000000CONSUMIDOR FINAL              000000000418122000000000000000000000000000000000000000000000000000000000000000000000000000000000000000000000000000000000PES00010000002E00000000000000020250415
202503010060000300000000000000036760000000000000000367609900000000000000000000CONSUMIDOR FINAL              000000000512140000000000000000000000000000000000000000000000000000000000000000000000000000000000000000000000000000000000PES00010000001000000000000000020250415
202503020060000300000000000000036761000000000000000367619900000000000000000000CONSUMIDOR FINAL              000000000338778000000000000000000000000000000000000000000000000000000000000000000000000000000000000000000000000000000000PES00010000002E00000000000000020250415
202503020060000300000000000000036762000000000000000367629900000000000000000000CONSUMIDOR FINAL              000000000812580000000000000000000000000000000000000000000000000000000000000000000000000000000000000000000000000000000000PES00010000001000000000000000020250415
202503020060000300000000000000036763000000000000000367639900000000000000000000CONSUMIDOR FINAL              000000000791699000000000000000000000000000000000000000000000000000000000000000000000000000000000000000000000000000000000PES00010000001000000000000000020250415
202503020060000300000000000000036764000000000000000367649900000000000000000000CONSUMIDOR FINAL              000000000300000000000000000000000000000000000000000000000000000000000000000000000000000000000000000000000000000000000000PES00010000001000000000000000020250415
202503020060000300000000000000036765000000000000000367659900000000000000000000CONSUMIDOR FINAL              000000000575244000000000000000000000000000000000000000000000000000000000000000000000000000000000000000000000000000000000PES00010000001000000000000000020250415
202503020060000300000000000000036766000000000000000367669900000000000000000000CONSUMIDOR FINAL              000000000261001000000000000000000000000000000000000000000000000000000000000000000000000000000000000000000000000000000000PES00010000001000000000000000020250415
202503020060000300000000000000036767000000000000000367679900000000000000000000CONSUMIDOR FINAL              000000000306240000000000000000000000000000000000000000000000000000000000000000000000000000000000000000000000000000000000PES00010000001000000000000000020250415
202503020060000300000000000000036768000000000000000367689900000000000000000000CONSUMIDOR FINAL              000000000300000000000000000000000000000000000000000000000000000000000000000000000000000000000000000000000000000000000000PES00010000001000000000000000020250415
202503020060000300000000000000036769000000000000000367699900000000000000000000CONSUMIDOR FINAL              000000000220002000000000000000000000000000000000000000000000000000000000000000000000000000000000000000000000000000000000PES00010000001000000000000000020250415
202503020060000300000000000000036770000000000000000367709900000000000000000000CONSUMIDOR FINAL              000000003266344000000000000000000000000000000000000000000000000000000000000000000000000000000000000000000000000000000000PES00010000001000000000000000020250415
202503020060000300000000000000036771000000000000000367719900000000000000000000CONSUMIDOR FINAL              000000000657720000000000000000000000000000000000000000000000000000000000000000000000000000000000000000000000000000000000PES00010000001000000000000000020250415
202503020060000300000000000000036772000000000000000367729900000000000000000000CONSUMIDOR FINAL              000000000393820000000000000000000000000000000000000000000000000000000000000000000000000000000000000000000000000000000000PES00010000001000000000000000020250415
202503020060000300000000000000036773000000000000000367739900000000000000000000CONSUMIDOR FINAL              000000000407160000000000000000000000000000000000000000000000000000000000000000000000000000000000000000000000000000000000PES00010000001000000000000000020250415
202503020060000300000000000000036774000000000000000367749900000000000000000000CONSUMIDOR FINAL              000000000426300000000000000000000000000000000000000000000000000000000000000000000000000000000000000000000000000000000000PES00010000001000000000000000020250415
202503020060000300000000000000036775000000000000000367759900000000000000000000CONSUMIDOR FINAL              000000000299860000000000000000000000000000000000000000000000000000000000000000000000000000000000000000000000000000000000PES00010000001000000000000000020250415
202503020060000300000000000000036776000000000000000367769900000000000000000000CONSUMIDOR FINAL              000000000519100000000000000000000000000000000000000000000000000000000000000000000000000000000000000000000000000000000000PES00010000001000000000000000020250415
202503020060000300000000000000036777000000000000000367779900000000000000000000CONSUMIDOR FINAL              000000000314360000000000000000000000000000000000000000000000000000000000000000000000000000000000000000000000000000000000PES00010000001000000000000000020250415
202503020060000300000000000000036778000000000000000367789900000000000000000000CONSUMIDOR FINAL              000000000517824000000000000000000000000000000000000000000000000000000000000000000000000000000000000000000000000000000000PES00010000001000000000000000020250415
202503020060000300000000000000036779000000000000000367799900000000000000000000CONSUMIDOR FINAL              000000000654588000000000000000000000000000000000000000000000000000000000000000000000000000000000000000000000000000000000PES00010000001000000000000000020250415
202503020060000300000000000000036780000000000000000367809900000000000000000000CONSUMIDOR FINAL              000000000299860000000000000000000000000000000000000000000000000000000000000000000000000000000000000000000000000000000000PES00010000001000000000000000020250415
202503020060000300000000000000036781000000000000000367819900000000000000000000CONSUMIDOR FINAL              000000000500540000000000000000000000000000000000000000000000000000000000000000000000000000000000000000000000000000000000PES00010000001000000000000000020250415
202503020060000300000000000000036782000000000000000367829900000000000000000000CONSUMIDOR FINAL              000000000800980000000000000000000000000000000000000000000000000000000000000000000000000000000000000000000000000000000000PES00010000001000000000000000020250415
202503020060000300000000000000036783000000000000000367839900000000000000000000CONSUMIDOR FINAL              000000000299860000000000000000000000000000000000000000000000000000000000000000000000000000000000000000000000000000000000PES00010000001000000000000000020250415
202503020060000300000000000000036784000000000000000367849900000000000000000000CONSUMIDOR FINAL              000000000306820000000000000000000000000000000000000000000000000000000000000000000000000000000000000000000000000000000000PES00010000001000000000000000020250415
202503020060000300000000000000036785000000000000000367859900000000000000000000CONSUMIDOR FINAL              000000000260000000000000000000000000000000000000000000000000000000000000000000000000000000000000000000000000000000000000PES00010000001000000000000000020250415
202503020060000300000000000000036786000000000000000367869900000000000000000000CONSUMIDOR FINAL              000000008512932000000000000000000000000000000000000000000000000000000000000000000000000000000000000000000000000000000000PES00010000001000000000000000020250415
202503030060000300000000000000036787000000000000000367879900000000000000000000CONSUMIDOR FINAL              000000000299860000000000000000000000000000000000000000000000000000000000000000000000000000000000000000000000000000000000PES00010000001000000000000000020250415
202503030060000300000000000000036788000000000000000367889900000000000000000000CONSUMIDOR FINAL              000000000464580000000000000000000000000000000000000000000000000000000000000000000000000000000000000000000000000000000000PES00010000001000000000000000020250415
202503030060000300000000000000036789000000000000000367899900000000000000000000CONSUMIDOR FINAL              000000000600880000000000000000000000000000000000000000000000000000000000000000000000000000000000000000000000000000000000PES00010000001000000000000000020250415
202503030010000300000000000000003181000000000000000031818000000000030605464250FORNER S.R.L.                 000000001350002000000000000000000000000000000000000000000000000000000000000000000000000000000000000000000000000000000000PES00010000001000000000000000020250415
202503030060000300000000000000036790000000000000000367909900000000000000000000CONSUMIDOR FINAL              000000003669027000000000000000000000000000000000000000000000000000000000000000000000000000000000000000000000000000000000PES00010000001000000000000000020250415
202503030060000300000000000000036791000000000000000367919900000000000000000000CONSUMIDOR FINAL              000000000060000000000000000000000000000000000000000000000000000000000000000000000000000000000000000000000000000000000000PES00010000001000000000000000020250415
202503030010000300000000000000003182000000000000000031828000000000033505883239COOP VITIVINICOLA DE          000000000800660000000000000000000000000000000000000000000000000000000000000000000000000000000000000000000000000000000000PES00010000001000000000000000020250415
202503030060000300000000000000036792000000000000000367929900000000000000000000CONSUMIDOR FINAL              000000000684980000000000000000000000000000000000000000000000000000000000000000000000000000000000000000000000000000000000PES00010000001000000000000000020250415
202503030060000300000000000000036793000000000000000367939900000000000000000000CONSUMIDOR FINAL              000000000077000000000000000000000000000000000000000000000000000000000000000000000000000000000000000000000000000000000000PES00010000001000000000000000020250415
202503030060000300000000000000036794000000000000000367949900000000000000000000CONSUMIDOR FINAL              000000000300000000000000000000000000000000000000000000000000000000000000000000000000000000000000000000000000000000000000PES00010000001000000000000000020250415
202503030060000300000000000000036795000000000000000367959900000000000000000000CONSUMIDOR FINAL              000000000554887000000000000000000000000000000000000000000000000000000000000000000000000000000000000000000000000000000000PES00010000002E00000000000000020250415
202503030060000300000000000000036796000000000000000367969900000000000000000000CONSUMIDOR FINAL              000000000615000000000000000000000000000000000000000000000000000000000000000000000000000000000000000000000000000000000000PES00010000001000000000000000020250415
202503030010000300000000000000003183000000000000000031838000000000030605464250FORNER S.R.L.                 000000001350002000000000000000000000000000000000000000000000000000000000000000000000000000000000000000000000000000000000PES00010000001000000000000000020250415
202503030010000300000000000000003184000000000000000031848000000000030605464250FORNER S.R.L.                 000000001350002000000000000000000000000000000000000000000000000000000000000000000000000000000000000000000000000000000000PES00010000001000000000000000020250415
202503030060000300000000000000036797000000000000000367979900000000000000000000CONSUMIDOR FINAL              000000007413441000000000000000000000000000000000000000000000000000000000000000000000000000000000000000000000000000000000PES00010000001000000000000000020250415
202503030060000300000000000000036798000000000000000367989900000000000000000000CONSUMIDOR FINAL              000000000338900000000000000000000000000000000000000000000000000000000000000000000000000000000000000000000000000000000000PES00010000001000000000000000020250415
202503030060000300000000000000036799000000000000000367999900000000000000000000CONSUMIDOR FINAL              000000000315288000000000000000000000000000000000000000000000000000000000000000000000000000000000000000000000000000000000PES00010000001000000000000000020250415
202503030060000300000000000000036800000000000000000368009900000000000000000000CONSUMIDOR FINAL              000000000409770000000000000000000000000000000000000000000000000000000000000000000000000000000000000000000000000000000000PES00010000002E00000000000000020250415
202503030060000300000000000000036801000000000000000368019900000000000000000000CONSUMIDOR FINAL              000000000502860000000000000000000000000000000000000000000000000000000000000000000000000000000000000000000000000000000000PES00010000001000000000000000020250415
202503030010000300000000000000003185000000000000000031858000000000030605464250FORNER S.R.L.                 000000001350002000000000000000000000000000000000000000000000000000000000000000000000000000000000000000000000000000000000PES00010000001000000000000000020250415
202503030060000300000000000000036802000000000000000368029900000000000000000000CONSUMIDOR FINAL              000000004572511000000000000000000000000000000000000000000000000000000000000000000000000000000000000000000000000000000000PES00010000001000000000000000020250415
202503030060000300000000000000036803000000000000000368039900000000000000000000CONSUMIDOR FINAL              000000000468640000000000000000000000000000000000000000000000000000000000000000000000000000000000000000000000000000000000PES00010000001000000000000000020250415
202503030060000300000000000000036804000000000000000368049900000000000000000000CONSUMIDOR FINAL              000000000527220000000000000000000000000000000000000000000000000000000000000000000000000000000000000000000000000000000000PES00010000001000000000000000020250415
202503030060000300000000000000036805000000000000000368059900000000000000000000CONSUMIDOR FINAL              000000001500000000000000000000000000000000000000000000000000000000000000000000000000000000000000000000000000000000000000PES00010000001000000000000000020250415
202503040060000300000000000000036806000000000000000368069900000000000000000000CONSUMIDOR FINAL              000000000300000000000000000000000000000000000000000000000000000000000000000000000000000000000000000000000000000000000000PES00010000001000000000000000020250415
202503040060000300000000000000036807000000000000000368079900000000000000000000CONSUMIDOR FINAL              000000000649020000000000000000000000000000000000000000000000000000000000000000000000000000000000000000000000000000000000PES00010000001000000000000000020250415
202503040060000300000000000000036808000000000000000368089900000000000000000000CONSUMIDOR FINAL              000000000667638000000000000000000000000000000000000000000000000000000000000000000000000000000000000000000000000000000000PES00010000002E00000000000000020250415
202503040060000300000000000000036809000000000000000368099900000000000000000000CONSUMIDOR FINAL              000000000600000000000000000000000000000000000000000000000000000000000000000000000000000000000000000000000000000000000000PES00010000001000000000000000020250415
202503040060000300000000000000036810000000000000000368109900000000000000000000CONSUMIDOR FINAL              000000001783772000000000000000000000000000000000000000000000000000000000000000000000000000000000000000000000000000000000PES00010000001000000000000000020250415
202503040060000300000000000000036811000000000000000368119900000000000000000000CONSUMIDOR FINAL              000000000659300000000000000000000000000000000000000000000000000000000000000000000000000000000000000000000000000000000000PES00010000001000000000000000020250415
202503040060000300000000000000036812000000000000000368129900000000000000000000CONSUMIDOR FINAL              000000000469801000000000000000000000000000000000000000000000000000000000000000000000000000000000000000000000000000000000PES00010000001000000000000000020250415
202503040060000300000000000000036813000000000000000368139900000000000000000000CONSUMIDOR FINAL              000000000421776000000000000000000000000000000000000000000000000000000000000000000000000000000000000000000000000000000000PES00010000001000000000000000020250415
202503040060000300000000000000036814000000000000000368149900000000000000000000CONSUMIDOR FINAL              000000000440046000000000000000000000000000000000000000000000000000000000000000000000000000000000000000000000000000000000PES00010000002E00000000000000020250415
202503040060000300000000000000036815000000000000000368159900000000000000000000CONSUMIDOR FINAL              000000000707402000000000000000000000000000000000000000000000000000000000000000000000000000000000000000000000000000000000PES00010000001000000000000000020250415
202503040010000300000000000000003186000000000000000031868000000000020230018511BORONAT EDUARDO               000000000973008000000000000000000000000000000000000000000000000000000000000000000000000000000000000000000000000000000000PES00010000001000000000000000020250415
202503040060000300000000000000036816000000000000000368169900000000000000000000CONSUMIDOR FINAL              000000000274920000000000000000000000000000000000000000000000000000000000000000000000000000000000000000000000000000000000PES00010000001000000000000000020250415
202503040060000300000000000000036817000000000000000368179900000000000000000000CONSUMIDOR FINAL              000000000615379000000000000000000000000000000000000000000000000000000000000000000000000000000000000000000000000000000000PES00010000001000000000000000020250415
202503040060000300000000000000036818000000000000000368189900000000000000000000CONSUMIDOR FINAL              000000000306240000000000000000000000000000000000000000000000000000000000000000000000000000000000000000000000000000000000PES00010000001000000000000000020250415
202503040060000300000000000000036819000000000000000368199900000000000000000000CONSUMIDOR FINAL              000000000356700000000000000000000000000000000000000000000000000000000000000000000000000000000000000000000000000000000000PES00010000001000000000000000020250415
202503040010000300000000000000003187000000000000000031878000000000030605464250FORNER S.R.L.                 000000001350002000000000000000000000000000000000000000000000000000000000000000000000000000000000000000000000000000000000PES00010000001000000000000000020250415
202503040010000300000000000000003188000000000000000031888000000000030605464250FORNER S.R.L.                 000000001350002000000000000000000000000000000000000000000000000000000000000000000000000000000000000000000000000000000000PES00010000001000000000000000020250415
202503040010000300000000000000003189000000000000000031898000000000030605464250FORNER S.R.L.                 000000001021251000000000000000000000000000000000000000000000000000000000000000000000000000000000000000000000000000000000PES00010000001000000000000000020250415
202503040060000300000000000000036820000000000000000368209900000000000000000000CONSUMIDOR FINAL              000000008682959000000000000000000000000000000000000000000000000000000000000000000000000000000000000000000000000000000000PES00010000001000000000000000020250415
202503040060000300000000000000036821000000000000000368219900000000000000000000CONSUMIDOR FINAL              000000001500000000000000000000000000000000000000000000000000000000000000000000000000000000000000000000000000000000000000PES00010000001000000000000000020250415
202503040060000300000000000000036822000000000000000368229900000000000000000000CONSUMIDOR FINAL              000000000572112000000000000000000000000000000000000000000000000000000000000000000000000000000000000000000000000000000000PES00010000001000000000000000020250415
202503040060000300000000000000036823000000000000000368239900000000000000000000CONSUMIDOR FINAL              000000000300000000000000000000000000000000000000000000000000000000000000000000000000000000000000000000000000000000000000PES00010000001000000000000000020250415
202503040060000300000000000000036824000000000000000368249900000000000000000000CONSUMIDOR FINAL              000000000390978000000000000000000000000000000000000000000000000000000000000000000000000000000000000000000000000000000000PES00010000002E00000000000000020250415
202503040060000300000000000000036825000000000000000368259900000000000000000000CONSUMIDOR FINAL              000000000170000000000000000000000000000000000000000000000000000000000000000000000000000000000000000000000000000000000000PES00010000001000000000000000020250415
202503040060000300000000000000036826000000000000000368269900000000000000000000CONSUMIDOR FINAL              000000000633708000000000000000000000000000000000000000000000000000000000000000000000000000000000000000000000000000000000PES00010000001000000000000000020250415
202503040060000300000000000000036827000000000000000368279900000000000000000000CONSUMIDOR FINAL              000000000500076000000000000000000000000000000000000000000000000000000000000000000000000000000000000000000000000000000000PES00010000001000000000000000020250415
202503040060000300000000000000036828000000000000000368289900000000000000000000CONSUMIDOR FINAL              000000000716880000000000000000000000000000000000000000000000000000000000000000000000000000000000000000000000000000000000PES00010000001000000000000000020250415
202503040060000300000000000000036829000000000000000368299900000000000000000000CONSUMIDOR FINAL              000000000622920000000000000000000000000000000000000000000000000000000000000000000000000000000000000000000000000000000000PES00010000001000000000000000020250415
202503040060000300000000000000036830000000000000000368309900000000000000000000CONSUMIDOR FINAL              000000000300000000000000000000000000000000000000000000000000000000000000000000000000000000000000000000000000000000000000PES00010000001000000000000000020250415
202503040060000300000000000000036831000000000000000368319900000000000000000000CONSUMIDOR FINAL              000000000300000000000000000000000000000000000000000000000000000000000000000000000000000000000000000000000000000000000000PES00010000001000000000000000020250415
202503040060000300000000000000036832000000000000000368329900000000000000000000CONSUMIDOR FINAL              000000000489520000000000000000000000000000000000000000000000000000000000000000000000000000000000000000000000000000000000PES00010000001000000000000000020250415
202503040060000300000000000000036833000000000000000368339900000000000000000000CONSUMIDOR FINAL              000000000689040000000000000000000000000000000000000000000000000000000000000000000000000000000000000000000000000000000000PES00010000001000000000000000020250415
202503040060000300000000000000036834000000000000000368349900000000000000000000CONSUMIDOR FINAL              000000000490100000000000000000000000000000000000000000000000000000000000000000000000000000000000000000000000000000000000PES00010000001000000000000000020250415
202503040060000300000000000000036835000000000000000368359900000000000000000000CONSUMIDOR FINAL              000000000393588000000000000000000000000000000000000000000000000000000000000000000000000000000000000000000000000000000000PES00010000001000000000000000020250415
202503040010000300000000000000003190000000000000000031908000000000030605464250FORNER S.R.L.                 000000001350002000000000000000000000000000000000000000000000000000000000000000000000000000000000000000000000000000000000PES00010000001000000000000000020250415
202503040010000300000000000000003191000000000000000031918000000000030605464250FORNER S.R.L.                 000000001350002000000000000000000000000000000000000000000000000000000000000000000000000000000000000000000000000000000000PES00010000001000000000000000020250415
202503040010000300000000000000003192000000000000000031928000000000030605464250FORNER S.R.L.                 000000001271036000000000000000000000000000000000000000000000000000000000000000000000000000000000000000000000000000000000PES00010000001000000000000000020250415
202503040060000300000000000000036836000000000000000368369900000000000000000000CONSUMIDOR FINAL              000000009265758000000000000000000000000000000000000000000000000000000000000000000000000000000000000000000000000000000000PES00010000001000000000000000020250415
202503050060000300000000000000036837000000000000000368379900000000000000000000CONSUMIDOR FINAL              000000000436740000000000000000000000000000000000000000000000000000000000000000000000000000000000000000000000000000000000PES00010000001000000000000000020250415
202503050060000300000000000000036838000000000000000368389900000000000000000000CONSUMIDOR FINAL              000000003241641000000000000000000000000000000000000000000000000000000000000000000000000000000000000000000000000000000000PES00010000001000000000000000020250415
202503050060000300000000000000036839000000000000000368399900000000000000000000CONSUMIDOR FINAL              000000000183299000000000000000000000000000000000000000000000000000000000000000000000000000000000000000000000000000000000PES00010000001000000000000000020250415
202503050060000300000000000000036840000000000000000368409900000000000000000000CONSUMIDOR FINAL              000000000789998000000000000000000000000000000000000000000000000000000000000000000000000000000000000000000000000000000000PES00010000001000000000000000020250415
202503050060000300000000000000036841000000000000000368419900000000000000000000CONSUMIDOR FINAL              000000000641480000000000000000000000000000000000000000000000000000000000000000000000000000000000000000000000000000000000PES00010000001000000000000000020250415
202503050060000300000000000000036842000000000000000368429900000000000000000000CONSUMIDOR FINAL              000000000668682000000000000000000000000000000000000000000000000000000000000000000000000000000000000000000000000000000000PES00010000002E00000000000000020250415
202503050010000300000000000000003193000000000000000031938000000000030718625692AGROCONECTION SRL             000000000509999000000000000000000000000000000000000000000000000000000000000000000000000000000000000000000000000000000000PES00010000001000000000000000020250415
202503050060000300000000000000036843000000000000000368439900000000000000000000CONSUMIDOR FINAL              000000000242626000000000000000000000000000000000000000000000000000000000000000000000000000000000000000000000000000000000PES00010000001000000000000000020250415
202503050060000300000000000000036844000000000000000368449900000000000000000000CONSUMIDOR FINAL              000000000513880000000000000000000000000000000000000000000000000000000000000000000000000000000000000000000000000000000000PES00010000001000000000000000020250415
202503050060000300000000000000036845000000000000000368459900000000000000000000CONSUMIDOR FINAL              000000000459360000000000000000000000000000000000000000000000000000000000000000000000000000000000000000000000000000000000PES00010000001000000000000000020250415
202503050060000300000000000000036846000000000000000368469900000000000000000000CONSUMIDOR FINAL              000000000541314000000000000000000000000000000000000000000000000000000000000000000000000000000000000000000000000000000000PES00010000002E00000000000000020250415
202503050060000300000000000000036847000000000000000368479900000000000000000000CONSUMIDOR FINAL              000000000580986000000000000000000000000000000000000000000000000000000000000000000000000000000000000000000000000000000000PES00010000002E00000000000000020250415
202503050010000300000000000000003194000000000000000031948000000000030689275490CAMPAGNA SERVICIO TE          000000000554364000000000000000000000000000000000000000000000000000000000000000000000000000000000000000000000000000000000PES00010000001000000000000000020250415
202503050060000300000000000000036848000000000000000368489900000000000000000000CONSUMIDOR FINAL              000000000609696000000000000000000000000000000000000000000000000000000000000000000000000000000000000000000000000000000000PES00010000001000000000000000020250415
202503050060000300000000000000036849000000000000000368499900000000000000000000CONSUMIDOR FINAL              000000000744000000000000000000000000000000000000000000000000000000000000000000000000000000000000000000000000000000000000PES00010000001000000000000000020250415
202503050060000300000000000000036850000000000000000368509900000000000000000000CONSUMIDOR FINAL              000000000170000000000000000000000000000000000000000000000000000000000000000000000000000000000000000000000000000000000000PES00010000001000000000000000020250415
202503050060000300000000000000036851000000000000000368519900000000000000000000CONSUMIDOR FINAL              000000000650412000000000000000000000000000000000000000000000000000000000000000000000000000000000000000000000000000000000PES00010000001000000000000000020250415
202503050060000300000000000000036852000000000000000368529900000000000000000000CONSUMIDOR FINAL              000000000454720000000000000000000000000000000000000000000000000000000000000000000000000000000000000000000000000000000000PES00010000001000000000000000020250415
202503050060000300000000000000036853000000000000000368539900000000000000000000CONSUMIDOR FINAL              000000011598000000000000000000000000000000000000000000000000000000000000000000000000000000000000000000000000000000000000PES00010000001000000000000000020250415
202503050060000300000000000000036854000000000000000368549900000000000000000000CONSUMIDOR FINAL              000000011598000000000000000000000000000000000000000000000000000000000000000000000000000000000000000000000000000000000000PES00010000001000000000000000020250415
202503050060000300000000000000036855000000000000000368559900000000000000000000CONSUMIDOR FINAL              000000001518932000000000000000000000000000000000000000000000000000000000000000000000000000000000000000000000000000000000PES00010000001000000000000000020250415
202503050060000300000000000000036856000000000000000368569900000000000000000000CONSUMIDOR FINAL              000000000486504000000000000000000000000000000000000000000000000000000000000000000000000000000000000000000000000000000000PES00010000001000000000000000020250415
202503050060000300000000000000036858000000000000000368589900000000000000000000CONSUMIDOR FINAL              000000000448920000000000000000000000000000000000000000000000000000000000000000000000000000000000000000000000000000000000PES00010000001000000000000000020250415
202503050060000300000000000000036859000000000000000368599900000000000000000000CONSUMIDOR FINAL              000000000417600000000000000000000000000000000000000000000000000000000000000000000000000000000000000000000000000000000000PES00010000001000000000000000020250415
202503050060000300000000000000036860000000000000000368609900000000000000000000CONSUMIDOR FINAL              000000000309720000000000000000000000000000000000000000000000000000000000000000000000000000000000000000000000000000000000PES00010000001000000000000000020250415
202503050060000300000000000000036861000000000000000368619900000000000000000000CONSUMIDOR FINAL              000000000769080000000000000000000000000000000000000000000000000000000000000000000000000000000000000000000000000000000000PES00010000001000000000000000020250415
202503050060000300000000000000036862000000000000000368629900000000000000000000CONSUMIDOR FINAL              000000000499960000000000000000000000000000000000000000000000000000000000000000000000000000000000000000000000000000000000PES00010000001000000000000000020250415
202503050060000300000000000000036863000000000000000368639900000000000000000000CONSUMIDOR FINAL              000000000725580000000000000000000000000000000000000000000000000000000000000000000000000000000000000000000000000000000000PES00010000001000000000000000020250415
202503050060000300000000000000036864000000000000000368649900000000000000000000CONSUMIDOR FINAL              000000001164060000000000000000000000000000000000000000000000000000000000000000000000000000000000000000000000000000000000PES00010000001000000000000000020250415
202503050060000300000000000000036865000000000000000368659900000000000000000000CONSUMIDOR FINAL              000000000658880000000000000000000000000000000000000000000000000000000000000000000000000000000000000000000000000000000000PES00010000001000000000000000020250415
202503050060000300000000000000036866000000000000000368669900000000000000000000CONSUMIDOR FINAL              000000000539748000000000000000000000000000000000000000000000000000000000000000000000000000000000000000000000000000000000PES00010000001000000000000000020250415
202503050060000300000000000000036867000000000000000368679900000000000000000000CONSUMIDOR FINAL              000000000694840000000000000000000000000000000000000000000000000000000000000000000000000000000000000000000000000000000000PES00010000001000000000000000020250415
202503050060000300000000000000036868000000000000000368689900000000000000000000CONSUMIDOR FINAL              000000000417600000000000000000000000000000000000000000000000000000000000000000000000000000000000000000000000000000000000PES00010000001000000000000000020250415
202503050060000300000000000000036869000000000000000368699900000000000000000000CONSUMIDOR FINAL              000000000472120000000000000000000000000000000000000000000000000000000000000000000000000000000000000000000000000000000000PES00010000001000000000000000020250415
202503050060000300000000000000036870000000000000000368709900000000000000000000CONSUMIDOR FINAL              000000000618859000000000000000000000000000000000000000000000000000000000000000000000000000000000000000000000000000000000PES00010000001000000000000000020250415
202503050060000300000000000000036871000000000000000368719900000000000000000000CONSUMIDOR FINAL              000000000499554000000000000000000000000000000000000000000000000000000000000000000000000000000000000000000000000000000000PES00010000002E00000000000000020250415
202503050060000300000000000000036872000000000000000368729900000000000000000000CONSUMIDOR FINAL              000000000400200000000000000000000000000000000000000000000000000000000000000000000000000000000000000000000000000000000000PES00010000001000000000000000020250415
202503050060000300000000000000036873000000000000000368739900000000000000000000CONSUMIDOR FINAL              000000000299860000000000000000000000000000000000000000000000000000000000000000000000000000000000000000000000000000000000PES00010000001000000000000000020250415
202503050060000300000000000000036874000000000000000368749900000000000000000000CONSUMIDOR FINAL              000000001128042000000000000000000000000000000000000000000000000000000000000000000000000000000000000000000000000000000000PES00010000002E00000000000000020250415
202503050060000300000000000000036875000000000000000368759900000000000000000000CONSUMIDOR FINAL              000000000484938000000000000000000000000000000000000000000000000000000000000000000000000000000000000000000000000000000000PES00010000002E00000000000000020250415
202503050060000300000000000000036876000000000000000368769900000000000000000000CONSUMIDOR FINAL              000000000352872000000000000000000000000000000000000000000000000000000000000000000000000000000000000000000000000000000000PES00010000001000000000000000020250415
202503050060000300000000000000036877000000000000000368779900000000000000000000CONSUMIDOR FINAL              000000000352869000000000000000000000000000000000000000000000000000000000000000000000000000000000000000000000000000000000PES00010000001000000000000000020250415
202503050060000300000000000000036878000000000000000368789900000000000000000000CONSUMIDOR FINAL              000000000468756000000000000000000000000000000000000000000000000000000000000000000000000000000000000000000000000000000000PES00010000001000000000000000020250415
202503050060000300000000000000036879000000000000000368799900000000000000000000CONSUMIDOR FINAL              000000000335400000000000000000000000000000000000000000000000000000000000000000000000000000000000000000000000000000000000PES00010000001000000000000000020250415
202503050060000300000000000000036880000000000000000368809900000000000000000000CONSUMIDOR FINAL              000000000720360000000000000000000000000000000000000000000000000000000000000000000000000000000000000000000000000000000000PES00010000001000000000000000020250415
202503050060000300000000000000036881000000000000000368819900000000000000000000CONSUMIDOR FINAL              000000000464580000000000000000000000000000000000000000000000000000000000000000000000000000000000000000000000000000000000PES00010000001000000000000000020250415
202503050060000300000000000000036882000000000000000368829900000000000000000000CONSUMIDOR FINAL              000000001200000000000000000000000000000000000000000000000000000000000000000000000000000000000000000000000000000000000000PES00010000001000000000000000020250415
202503050060000300000000000000036883000000000000000368839900000000000000000000CONSUMIDOR FINAL              000000000575244000000000000000000000000000000000000000000000000000000000000000000000000000000000000000000000000000000000PES00010000001000000000000000020250415
202503050060000300000000000000036884000000000000000368849900000000000000000000CONSUMIDOR FINAL              000000011598000000000000000000000000000000000000000000000000000000000000000000000000000000000000000000000000000000000000PES00010000001000000000000000020250415
202503050060000300000000000000036885000000000000000368859900000000000000000000CONSUMIDOR FINAL              000000007347043000000000000000000000000000000000000000000000000000000000000000000000000000000000000000000000000000000000PES00010000001000000000000000020250415
202503050060000300000000000000036886000000000000000368869900000000000000000000CONSUMIDOR FINAL              000000000643104000000000000000000000000000000000000000000000000000000000000000000000000000000000000000000000000000000000PES00010000001000000000000000020250415
202503050060000300000000000000036887000000000000000368879900000000000000000000CONSUMIDOR FINAL              000000000300377000000000000000000000000000000000000000000000000000000000000000000000000000000000000000000000000000000000PES00010000001000000000000000020250415
202503050060000300000000000000036888000000000000000368889900000000000000000000CONSUMIDOR FINAL              000000000459940000000000000000000000000000000000000000000000000000000000000000000000000000000000000000000000000000000000PES00010000001000000000000000020250415
202503050060000300000000000000036889000000000000000368899900000000000000000000CONSUMIDOR FINAL              000000000399330000000000000000000000000000000000000000000000000000000000000000000000000000000000000000000000000000000000PES00010000002E00000000000000020250415
202503050060000300000000000000036890000000000000000368909900000000000000000000CONSUMIDOR FINAL              000000000300000000000000000000000000000000000000000000000000000000000000000000000000000000000000000000000000000000000000PES00010000001000000000000000020250415
202503060010000300000000000000003195000000000000000031958000000000020423183129IVAN CABAA                   000000000440799000000000000000000000000000000000000000000000000000000000000000000000000000000000000000000000000000000000PES00010000001000000000000000020250415
202503060010000300000000000000003196000000000000000031968000000000030605464250FORNER S.R.L.                 000000001122396000000000000000000000000000000000000000000000000000000000000000000000000000000000000000000000000000000000PES00010000001000000000000000020250415
202503060060000300000000000000036891000000000000000368919900000000000000000000CONSUMIDOR FINAL              000000002618945000000000000000000000000000000000000000000000000000000000000000000000000000000000000000000000000000000000PES00010000001000000000000000020250415
202503060060000300000000000000036892000000000000000368929900000000000000000000CONSUMIDOR FINAL              000000000543799000000000000000000000000000000000000000000000000000000000000000000000000000000000000000000000000000000000PES00010000001000000000000000020250415
202503060060000300000000000000036893000000000000000368939900000000000000000000CONSUMIDOR FINAL              000000000595001000000000000000000000000000000000000000000000000000000000000000000000000000000000000000000000000000000000PES00010000001000000000000000020250415
202503060060000300000000000000036894000000000000000368949900000000000000000000CONSUMIDOR FINAL              000000000348580000000000000000000000000000000000000000000000000000000000000000000000000000000000000000000000000000000000PES00010000001000000000000000020250415
202503060060000300000000000000036895000000000000000368959900000000000000000000CONSUMIDOR FINAL              000000000624834000000000000000000000000000000000000000000000000000000000000000000000000000000000000000000000000000000000PES00010000002E00000000000000020250415
202503060060000300000000000000036896000000000000000368969900000000000000000000CONSUMIDOR FINAL              000000000607608000000000000000000000000000000000000000000000000000000000000000000000000000000000000000000000000000000000PES00010000001000000000000000020250415
202503060060000300000000000000036897000000000000000368979900000000000000000000CONSUMIDOR FINAL              000000000563599000000000000000000000000000000000000000000000000000000000000000000000000000000000000000000000000000000000PES00010000001000000000000000020250415
202503060060000300000000000000036898000000000000000368989900000000000000000000CONSUMIDOR FINAL              000000000499554000000000000000000000000000000000000000000000000000000000000000000000000000000000000000000000000000000000PES00010000002E00000000000000020250415
202503060060000300000000000000036899000000000000000368999900000000000000000000CONSUMIDOR FINAL              000000000572501000000000000000000000000000000000000000000000000000000000000000000000000000000000000000000000000000000000PES00010000001000000000000000020250415
202503060060000300000000000000036900000000000000000369009900000000000000000000CONSUMIDOR FINAL              000000000402520000000000000000000000000000000000000000000000000000000000000000000000000000000000000000000000000000000000PES00010000001000000000000000020250415
202503060060000300000000000000036901000000000000000369019900000000000000000000CONSUMIDOR FINAL              000000000651978000000000000000000000000000000000000000000000000000000000000000000000000000000000000000000000000000000000PES00010000002E00000000000000020250415
202503060060000300000000000000036902000000000000000369029900000000000000000000CONSUMIDOR FINAL              000000000503208000000000000000000000000000000000000000000000000000000000000000000000000000000000000000000000000000000000PES00010000001000000000000000020250415
202503060060000300000000000000036903000000000000000369039900000000000000000000CONSUMIDOR FINAL              000000000751680000000000000000000000000000000000000000000000000000000000000000000000000000000000000000000000000000000000PES00010000001000000000000000020250415
202503060060000300000000000000036904000000000000000369049900000000000000000000CONSUMIDOR FINAL              000000000687996000000000000000000000000000000000000000000000000000000000000000000000000000000000000000000000000000000000PES00010000001000000000000000020250415
202503060060000300000000000000036905000000000000000369059900000000000000000000CONSUMIDOR FINAL              000000000336980000000000000000000000000000000000000000000000000000000000000000000000000000000000000000000000000000000000PES00010000001000000000000000020250415
202503060060000300000000000000036906000000000000000369069900000000000000000000CONSUMIDOR FINAL              000000000340000000000000000000000000000000000000000000000000000000000000000000000000000000000000000000000000000000000000PES00010000001000000000000000020250415
202503060060000300000000000000036907000000000000000369079900000000000000000000CONSUMIDOR FINAL              000000000500001000000000000000000000000000000000000000000000000000000000000000000000000000000000000000000000000000000000PES00010000001000000000000000020250415
202503060060000300000000000000036908000000000000000369089900000000000000000000CONSUMIDOR FINAL              000000000399998000000000000000000000000000000000000000000000000000000000000000000000000000000000000000000000000000000000PES00010000001000000000000000020250415
202503060060000300000000000000036909000000000000000369099900000000000000000000CONSUMIDOR FINAL              000000000499960000000000000000000000000000000000000000000000000000000000000000000000000000000000000000000000000000000000PES00010000001000000000000000020250415
202503060010000300000000000000003197000000000000000031978000000000030605464250FORNER S.R.L.                 000000001350002000000000000000000000000000000000000000000000000000000000000000000000000000000000000000000000000000000000PES00010000001000000000000000020250415
202503060010000300000000000000003198000000000000000031988000000000030605464250FORNER S.R.L.                 000000001350002000000000000000000000000000000000000000000000000000000000000000000000000000000000000000000000000000000000PES00010000001000000000000000020250415
202503060010000300000000000000003199000000000000000031998000000000030605464250FORNER S.R.L.                 000000001350002000000000000000000000000000000000000000000000000000000000000000000000000000000000000000000000000000000000PES00010000001000000000000000020250415
202503060010000300000000000000003200000000000000000032008000000000030605464250FORNER S.R.L.                 000000001350002000000000000000000000000000000000000000000000000000000000000000000000000000000000000000000000000000000000PES00010000001000000000000000020250415
202503060010000300000000000000003201000000000000000032018000000000030605464250FORNER S.R.L.                 000000001350002000000000000000000000000000000000000000000000000000000000000000000000000000000000000000000000000000000000PES00010000001000000000000000020250415
202503060060000300000000000000036910000000000000000369109900000000000000000000CONSUMIDOR FINAL              000000011598000000000000000000000000000000000000000000000000000000000000000000000000000000000000000000000000000000000000PES00010000001000000000000000020250415
202503060060000300000000000000036911000000000000000369119900000000000000000000CONSUMIDOR FINAL              000000005608735000000000000000000000000000000000000000000000000000000000000000000000000000000000000000000000000000000000PES00010000001000000000000000020250415
202503060060000300000000000000036912000000000000000369129900000000000000000000CONSUMIDOR FINAL              000000000696000000000000000000000000000000000000000000000000000000000000000000000000000000000000000000000000000000000000PES00010000001000000000000000020250415
202503060060000300000000000000036913000000000000000369139900000000000000000000CONSUMIDOR FINAL              000000000513126000000000000000000000000000000000000000000000000000000000000000000000000000000000000000000000000000000000PES00010000002E00000000000000020250415
202503060060000300000000000000036914000000000000000369149900000000000000000000CONSUMIDOR FINAL              000000000499960000000000000000000000000000000000000000000000000000000000000000000000000000000000000000000000000000000000PES00010000001000000000000000020250415
202503060060000300000000000000036915000000000000000369159900000000000000000000CONSUMIDOR FINAL              000000000300000000000000000000000000000000000000000000000000000000000000000000000000000000000000000000000000000000000000PES00010000001000000000000000020250415
202503060060000300000000000000036916000000000000000369169900000000000000000000CONSUMIDOR FINAL              000000000432216000000000000000000000000000000000000000000000000000000000000000000000000000000000000000000000000000000000PES00010000001000000000000000020250415
202503060060000300000000000000036917000000000000000369179900000000000000000000CONSUMIDOR FINAL              000000000675468000000000000000000000000000000000000000000000000000000000000000000000000000000000000000000000000000000000PES00010000001000000000000000020250415
202503060060000300000000000000036918000000000000000369189900000000000000000000CONSUMIDOR FINAL              000000000600000000000000000000000000000000000000000000000000000000000000000000000000000000000000000000000000000000000000PES00010000001000000000000000020250415
202503060060000300000000000000036919000000000000000369199900000000000000000000CONSUMIDOR FINAL              000000000482328000000000000000000000000000000000000000000000000000000000000000000000000000000000000000000000000000000000PES00010000001000000000000000020250415
202503060060000300000000000000036920000000000000000369209900000000000000000000CONSUMIDOR FINAL              000000000170000000000000000000000000000000000000000000000000000000000000000000000000000000000000000000000000000000000000PES00010000001000000000000000020250415
202503060060000300000000000000036921000000000000000369219900000000000000000000CONSUMIDOR FINAL              000000000573678000000000000000000000000000000000000000000000000000000000000000000000000000000000000000000000000000000000PES00010000002E00000000000000020250415
202503060060000300000000000000036922000000000000000369229900000000000000000000CONSUMIDOR FINAL              000000000509239000000000000000000000000000000000000000000000000000000000000000000000000000000000000000000000000000000000PES00010000001000000000000000020250415
202503060060000300000000000000036923000000000000000369239900000000000000000000CONSUMIDOR FINAL              000000000784160000000000000000000000000000000000000000000000000000000000000000000000000000000000000000000000000000000000PES00010000001000000000000000020250415
202503060060000300000000000000036924000000000000000369249900000000000000000000CONSUMIDOR FINAL              000000000303920000000000000000000000000000000000000000000000000000000000000000000000000000000000000000000000000000000000PES00010000001000000000000000020250415
202503060060000300000000000000036925000000000000000369259900000000000000000000CONSUMIDOR FINAL              000000000379494000000000000000000000000000000000000000000000000000000000000000000000000000000000000000000000000000000000PES00010000002E00000000000000020250415
202503060060000300000000000000036926000000000000000369269900000000000000000000CONSUMIDOR FINAL              000000000617526000000000000000000000000000000000000000000000000000000000000000000000000000000000000000000000000000000000PES00010000002E00000000000000020250415
202503060060000300000000000000036927000000000000000369279900000000000000000000CONSUMIDOR FINAL              000000000781840000000000000000000000000000000000000000000000000000000000000000000000000000000000000000000000000000000000PES00010000001000000000000000020250415
202503060060000300000000000000036928000000000000000369289900000000000000000000CONSUMIDOR FINAL              000000000538704000000000000000000000000000000000000000000000000000000000000000000000000000000000000000000000000000000000PES00010000001000000000000000020250415
202503060060000300000000000000036929000000000000000369299900000000000000000000CONSUMIDOR FINAL              000000000456750000000000000000000000000000000000000000000000000000000000000000000000000000000000000000000000000000000000PES00010000002E00000000000000020250415
202503060060000300000000000000036930000000000000000369309900000000000000000000CONSUMIDOR FINAL              000000000299860000000000000000000000000000000000000000000000000000000000000000000000000000000000000000000000000000000000PES00010000001000000000000000020250415
202503060060000300000000000000036931000000000000000369319900000000000000000000CONSUMIDOR FINAL              000000000411800000000000000000000000000000000000000000000000000000000000000000000000000000000000000000000000000000000000PES00010000001000000000000000020250415
202503060060000300000000000000036932000000000000000369329900000000000000000000CONSUMIDOR FINAL              000000000260000000000000000000000000000000000000000000000000000000000000000000000000000000000000000000000000000000000000PES00010000001000000000000000020250415
202503060060000300000000000000036933000000000000000369339900000000000000000000CONSUMIDOR FINAL              000000000456228000000000000000000000000000000000000000000000000000000000000000000000000000000000000000000000000000000000PES00010000001000000000000000020250415
202503060060000300000000000000036934000000000000000369349900000000000000000000CONSUMIDOR FINAL              000000000647280000000000000000000000000000000000000000000000000000000000000000000000000000000000000000000000000000000000PES00010000001000000000000000020250415
202503060060000300000000000000036935000000000000000369359900000000000000000000CONSUMIDOR FINAL              000000000551900000000000000000000000000000000000000000000000000000000000000000000000000000000000000000000000000000000000PES00010000001000000000000000020250415
202503060060000300000000000000036936000000000000000369369900000000000000000000CONSUMIDOR FINAL              000000000598212000000000000000000000000000000000000000000000000000000000000000000000000000000000000000000000000000000000PES00010000001000000000000000020250415
202503060060000300000000000000036937000000000000000369379900000000000000000000CONSUMIDOR FINAL              000000000500001000000000000000000000000000000000000000000000000000000000000000000000000000000000000000000000000000000000PES00010000001000000000000000020250415
202503060060000300000000000000036938000000000000000369389900000000000000000000CONSUMIDOR FINAL              000000000900000000000000000000000000000000000000000000000000000000000000000000000000000000000000000000000000000000000000PES00010000001000000000000000020250415
202503060010000300000000000000003202000000000000000032028000000000030605464250FORNER S.R.L.                 000000001350002000000000000000000000000000000000000000000000000000000000000000000000000000000000000000000000000000000000PES00010000001000000000000000020250415
202503060010000300000000000000003203000000000000000032038000000000030605464250FORNER S.R.L.                 000000001350002000000000000000000000000000000000000000000000000000000000000000000000000000000000000000000000000000000000PES00010000001000000000000000020250415
202503060010000300000000000000003204000000000000000032048000000000030605464250FORNER S.R.L.                 000000001350002000000000000000000000000000000000000000000000000000000000000000000000000000000000000000000000000000000000PES00010000001000000000000000020250415
202503060010000300000000000000003205000000000000000032058000000000030605464250FORNER S.R.L.                 000000001350002000000000000000000000000000000000000000000000000000000000000000000000000000000000000000000000000000000000PES00010000001000000000000000020250415
202503060060000300000000000000036939000000000000000369399900000000000000000000CONSUMIDOR FINAL              000000011598000000000000000000000000000000000000000000000000000000000000000000000000000000000000000000000000000000000000PES00010000001000000000000000020250415
202503060060000300000000000000036940000000000000000369409900000000000000000000CONSUMIDOR FINAL              000000001874700000000000000000000000000000000000000000000000000000000000000000000000000000000000000000000000000000000000PES00010000001000000000000000020250415
202503060060000300000000000000036941000000000000000369419900000000000000000000CONSUMIDOR FINAL              000000000219240000000000000000000000000000000000000000000000000000000000000000000000000000000000000000000000000000000000PES00010000001000000000000000020250415
202503060060000300000000000000036942000000000000000369429900000000000000000000CONSUMIDOR FINAL              000000000785900000000000000000000000000000000000000000000000000000000000000000000000000000000000000000000000000000000000PES00010000001000000000000000020250415
202503060060000300000000000000036943000000000000000369439900000000000000000000CONSUMIDOR FINAL              000000000469998000000000000000000000000000000000000000000000000000000000000000000000000000000000000000000000000000000000PES00010000001000000000000000020250415
202503070060000300000000000000036944000000000000000369449900000000000000000000CONSUMIDOR FINAL              000000000760800000000000000000000000000000000000000000000000000000000000000000000000000000000000000000000000000000000000PES00010000001000000000000000020250415
202503070060000300000000000000036945000000000000000369459900000000000000000000CONSUMIDOR FINAL              000000000441612000000000000000000000000000000000000000000000000000000000000000000000000000000000000000000000000000000000PES00010000001000000000000000020250415
202503070060000300000000000000036946000000000000000369469900000000000000000000CONSUMIDOR FINAL              000000000365401000000000000000000000000000000000000000000000000000000000000000000000000000000000000000000000000000000000PES00010000001000000000000000020250415
202503070060000300000000000000036947000000000000000369479900000000000000000000CONSUMIDOR FINAL              000000000260000000000000000000000000000000000000000000000000000000000000000000000000000000000000000000000000000000000000PES00010000001000000000000000020250415
202503070010000300000000000000003206000000000000000032068000000000030605464250FORNER S.R.L.                 000000001350002000000000000000000000000000000000000000000000000000000000000000000000000000000000000000000000000000000000PES00010000001000000000000000020250415
202503070010000300000000000000003207000000000000000032078000000000030605464250FORNER S.R.L.                 000000001111425000000000000000000000000000000000000000000000000000000000000000000000000000000000000000000000000000000000PES00010000001000000000000000020250415
202503070060000300000000000000036948000000000000000369489900000000000000000000CONSUMIDOR FINAL              000000005743329000000000000000000000000000000000000000000000000000000000000000000000000000000000000000000000000000000000PES00010000001000000000000000020250415
202503070060000300000000000000036949000000000000000369499900000000000000000000CONSUMIDOR FINAL              000000000545780000000000000000000000000000000000000000000000000000000000000000000000000000000000000000000000000000000000PES00010000001000000000000000020250415
202503070060000300000000000000036950000000000000000369509900000000000000000000CONSUMIDOR FINAL              000000000400200000000000000000000000000000000000000000000000000000000000000000000000000000000000000000000000000000000000PES00010000001000000000000000020250415
202503070060000300000000000000036951000000000000000369519900000000000000000000CONSUMIDOR FINAL              000000000400780000000000000000000000000000000000000000000000000000000000000000000000000000000000000000000000000000000000PES00010000001000000000000000020250415
202503070060000300000000000000036952000000000000000369529900000000000000000000CONSUMIDOR FINAL              000000000620600000000000000000000000000000000000000000000000000000000000000000000000000000000000000000000000000000000000PES00010000001000000000000000020250415
202503070060000300000000000000036953000000000000000369539900000000000000000000CONSUMIDOR FINAL              000000000545199000000000000000000000000000000000000000000000000000000000000000000000000000000000000000000000000000000000PES00010000001000000000000000020250415
202503070060000300000000000000036954000000000000000369549900000000000000000000CONSUMIDOR FINAL              000000000573040000000000000000000000000000000000000000000000000000000000000000000000000000000000000000000000000000000000PES00010000001000000000000000020250415
202503070060000300000000000000036955000000000000000369559900000000000000000000CONSUMIDOR FINAL              000000000572999000000000000000000000000000000000000000000000000000000000000000000000000000000000000000000000000000000000PES00010000001000000000000000020250415
202503070060000300000000000000036956000000000000000369569900000000000000000000CONSUMIDOR FINAL              000000000566370000000000000000000000000000000000000000000000000000000000000000000000000000000000000000000000000000000000PES00010000002E00000000000000020250415
202503070060000300000000000000036957000000000000000369579900000000000000000000CONSUMIDOR FINAL              000000000511560000000000000000000000000000000000000000000000000000000000000000000000000000000000000000000000000000000000PES00010000001000000000000000020250415
202503070010000300000000000000003208000000000000000032088000000000020230018511BORONAT EDUARDO               000000000828936000000000000000000000000000000000000000000000000000000000000000000000000000000000000000000000000000000000PES00010000001000000000000000020250415
202503070060000300000000000000036958000000000000000369589900000000000000000000CONSUMIDOR FINAL              000000000460520000000000000000000000000000000000000000000000000000000000000000000000000000000000000000000000000000000000PES00010000001000000000000000020250415
202503070010000300000000000000003209000000000000000032098000000000030689275490CAMPAGNA SERVICIO TE          000000000298584000000000000000000000000000000000000000000000000000000000000000000000000000000000000000000000000000000000PES00010000001000000000000000020250415
202503070060000300000000000000036959000000000000000369599900000000000000000000CONSUMIDOR FINAL              000000000514692000000000000000000000000000000000000000000000000000000000000000000000000000000000000000000000000000000000PES00010000001000000000000000020250415
202503070060000300000000000000036960000000000000000369609900000000000000000000CONSUMIDOR FINAL              000000000264479000000000000000000000000000000000000000000000000000000000000000000000000000000000000000000000000000000000PES00010000001000000000000000020250415
202503070060000300000000000000036961000000000000000369619900000000000000000000CONSUMIDOR FINAL              000000000300000000000000000000000000000000000000000000000000000000000000000000000000000000000000000000000000000000000000PES00010000001000000000000000020250415
202503070060000300000000000000036962000000000000000369629900000000000000000000CONSUMIDOR FINAL              000000000300958000000000000000000000000000000000000000000000000000000000000000000000000000000000000000000000000000000000PES00010000001000000000000000020250415
202503070060000300000000000000036963000000000000000369639900000000000000000000CONSUMIDOR FINAL              000000000170000000000000000000000000000000000000000000000000000000000000000000000000000000000000000000000000000000000000PES00010000001000000000000000020250415
202503070060000300000000000000036964000000000000000369649900000000000000000000CONSUMIDOR FINAL              000000000609696000000000000000000000000000000000000000000000000000000000000000000000000000000000000000000000000000000000PES00010000001000000000000000020250415
202503070060000300000000000000036965000000000000000369659900000000000000000000CONSUMIDOR FINAL              000000000546012000000000000000000000000000000000000000000000000000000000000000000000000000000000000000000000000000000000PES00010000001000000000000000020250415
202503070060000300000000000000036966000000000000000369669900000000000000000000CONSUMIDOR FINAL              000000000416556000000000000000000000000000000000000000000000000000000000000000000000000000000000000000000000000000000000PES00010000001000000000000000020250415
202503070060000300000000000000036967000000000000000369679900000000000000000000CONSUMIDOR FINAL              000000000399998000000000000000000000000000000000000000000000000000000000000000000000000000000000000000000000000000000000PES00010000001000000000000000020250415
202503070060000300000000000000036968000000000000000369689900000000000000000000CONSUMIDOR FINAL              000000000400780000000000000000000000000000000000000000000000000000000000000000000000000000000000000000000000000000000000PES00010000001000000000000000020250415
202503070060000300000000000000036969000000000000000369699900000000000000000000CONSUMIDOR FINAL              000000000300000000000000000000000000000000000000000000000000000000000000000000000000000000000000000000000000000000000000PES00010000001000000000000000020250415
202503070060000300000000000000036970000000000000000369709900000000000000000000CONSUMIDOR FINAL              000000000299001000000000000000000000000000000000000000000000000000000000000000000000000000000000000000000000000000000000PES00010000001000000000000000020250415
202503070060000300000000000000036971000000000000000369719900000000000000000000CONSUMIDOR FINAL              000000000706440000000000000000000000000000000000000000000000000000000000000000000000000000000000000000000000000000000000PES00010000001000000000000000020250415
202503070060000300000000000000036972000000000000000369729900000000000000000000CONSUMIDOR FINAL              000000000533020000000000000000000000000000000000000000000000000000000000000000000000000000000000000000000000000000000000PES00010000001000000000000000020250415
202503070060000300000000000000036973000000000000000369739900000000000000000000CONSUMIDOR FINAL              000000000455184000000000000000000000000000000000000000000000000000000000000000000000000000000000000000000000000000000000PES00010000001000000000000000020250415
202503070060000300000000000000036974000000000000000369749900000000000000000000CONSUMIDOR FINAL              000000000300150000000000000000000000000000000000000000000000000000000000000000000000000000000000000000000000000000000000PES00010000002E00000000000000020250415
202503070060000300000000000000036975000000000000000369759900000000000000000000CONSUMIDOR FINAL              000000000405594000000000000000000000000000000000000000000000000000000000000000000000000000000000000000000000000000000000PES00010000002E00000000000000020250415
202503070060000300000000000000036976000000000000000369769900000000000000000000CONSUMIDOR FINAL              000000000245920000000000000000000000000000000000000000000000000000000000000000000000000000000000000000000000000000000000PES00010000001000000000000000020250415
202503070060000300000000000000036977000000000000000369779900000000000000000000CONSUMIDOR FINAL              000000000589860000000000000000000000000000000000000000000000000000000000000000000000000000000000000000000000000000000000PES00010000001000000000000000020250415
202503070060000300000000000000036978000000000000000369789900000000000000000000CONSUMIDOR FINAL              000000000637420000000000000000000000000000000000000000000000000000000000000000000000000000000000000000000000000000000000PES00010000001000000000000000020250415
202503070060000300000000000000036979000000000000000369799900000000000000000000CONSUMIDOR FINAL              000000000552276000000000000000000000000000000000000000000000000000000000000000000000000000000000000000000000000000000000PES00010000001000000000000000020250415
202503070060000300000000000000036980000000000000000369809900000000000000000000CONSUMIDOR FINAL              000000000571300000000000000000000000000000000000000000000000000000000000000000000000000000000000000000000000000000000000PES00010000001000000000000000020250415
202503070060000300000000000000036981000000000000000369819900000000000000000000CONSUMIDOR FINAL              000000000440799000000000000000000000000000000000000000000000000000000000000000000000000000000000000000000000000000000000PES00010000001000000000000000020250415
202503070060000300000000000000036982000000000000000369829900000000000000000000CONSUMIDOR FINAL              000000000492246000000000000000000000000000000000000000000000000000000000000000000000000000000000000000000000000000000000PES00010000002E00000000000000020250415
202503070060000300000000000000036983000000000000000369839900000000000000000000CONSUMIDOR FINAL              000000000399040000000000000000000000000000000000000000000000000000000000000000000000000000000000000000000000000000000000PES00010000001000000000000000020250415
202503070060000300000000000000036984000000000000000369849900000000000000000000CONSUMIDOR FINAL              000000000045100000000000000000000000000000000000000000000000000000000000000000000000000000000000000000000000000000000000PES00010000001000000000000000020250415
202503070060000300000000000000036985000000000000000369859900000000000000000000CONSUMIDOR FINAL              000000000170000000000000000000000000000000000000000000000000000000000000000000000000000000000000000000000000000000000000PES00010000001000000000000000020250415
202503070060000300000000000000036986000000000000000369869900000000000000000000CONSUMIDOR FINAL              000000000577680000000000000000000000000000000000000000000000000000000000000000000000000000000000000000000000000000000000PES00010000001000000000000000020250415
202503070060000300000000000000036987000000000000000369879900000000000000000000CONSUMIDOR FINAL              000000000607840000000000000000000000000000000000000000000000000000000000000000000000000000000000000000000000000000000000PES00010000001000000000000000020250415
202503070060000300000000000000036988000000000000000369889900000000000000000000CONSUMIDOR FINAL              000000000294408000000000000000000000000000000000000000000000000000000000000000000000000000000000000000000000000000000000PES00010000001000000000000000020250415
202503070060000300000000000000036989000000000000000369899900000000000000000000CONSUMIDOR FINAL              000000000558540000000000000000000000000000000000000000000000000000000000000000000000000000000000000000000000000000000000PES00010000001000000000000000020250415
202503070060000300000000000000036990000000000000000369909900000000000000000000CONSUMIDOR FINAL              000000000400309000000000000000000000000000000000000000000000000000000000000000000000000000000000000000000000000000000000PES00010000001000000000000000020250415
202503070010000300000000000000003210000000000000000032108000000000030605464250FORNER S.R.L.                 000000001350002000000000000000000000000000000000000000000000000000000000000000000000000000000000000000000000000000000000PES00010000001000000000000000020250415
202503070010000300000000000000003211000000000000000032118000000000030605464250FORNER S.R.L.                 000000001350002000000000000000000000000000000000000000000000000000000000000000000000000000000000000000000000000000000000PES00010000001000000000000000020250415
202503070010000300000000000000003212000000000000000032128000000000030605464250FORNER S.R.L.                 000000001350002000000000000000000000000000000000000000000000000000000000000000000000000000000000000000000000000000000000PES00010000001000000000000000020250415
202503070010000300000000000000003213000000000000000032138000000000030605464250FORNER S.R.L.                 000000001350002000000000000000000000000000000000000000000000000000000000000000000000000000000000000000000000000000000000PES00010000001000000000000000020250415
202503070010000300000000000000003214000000000000000032148000000000030605464250FORNER S.R.L.                 000000001350002000000000000000000000000000000000000000000000000000000000000000000000000000000000000000000000000000000000PES00010000001000000000000000020250415
202503070060000300000000000000036991000000000000000369919900000000000000000000CONSUMIDOR FINAL              000000011598000000000000000000000000000000000000000000000000000000000000000000000000000000000000000000000000000000000000PES00010000001000000000000000020250415
202503070060000300000000000000036992000000000000000369929900000000000000000000CONSUMIDOR FINAL              000000004985980000000000000000000000000000000000000000000000000000000000000000000000000000000000000000000000000000000000PES00010000001000000000000000020250415
202503070060000300000000000000036993000000000000000369939900000000000000000000CONSUMIDOR FINAL              000000000628140000000000000000000000000000000000000000000000000000000000000000000000000000000000000000000000000000000000PES00010000001000000000000000020250415
202503070060000300000000000000036994000000000000000369949900000000000000000000CONSUMIDOR FINAL              000000000644148000000000000000000000000000000000000000000000000000000000000000000000000000000000000000000000000000000000PES00010000001000000000000000020250415
202503070060000300000000000000036995000000000000000369959900000000000000000000CONSUMIDOR FINAL              000000000500001000000000000000000000000000000000000000000000000000000000000000000000000000000000000000000000000000000000PES00010000001000000000000000020250415
202503070060000300000000000000036996000000000000000369969900000000000000000000CONSUMIDOR FINAL              000000000300000000000000000000000000000000000000000000000000000000000000000000000000000000000000000000000000000000000000PES00010000001000000000000000020250415
202503070060000300000000000000036997000000000000000369979900000000000000000000CONSUMIDOR FINAL              000000000626980000000000000000000000000000000000000000000000000000000000000000000000000000000000000000000000000000000000PES00010000001000000000000000020250415
202503070060000300000000000000036998000000000000000369989900000000000000000000CONSUMIDOR FINAL              000000000410814000000000000000000000000000000000000000000000000000000000000000000000000000000000000000000000000000000000PES00010000002E00000000000000020250415
202503080060000300000000000000036999000000000000000369999900000000000000000000CONSUMIDOR FINAL              000000000496944000000000000000000000000000000000000000000000000000000000000000000000000000000000000000000000000000000000PES00010000001000000000000000020250415
202503080060000300000000000000037000000000000000000370009900000000000000000000CONSUMIDOR FINAL              000000000423864000000000000000000000000000000000000000000000000000000000000000000000000000000000000000000000000000000000PES00010000001000000000000000020250415
202503080060000300000000000000037001000000000000000370019900000000000000000000CONSUMIDOR FINAL              000000001800000000000000000000000000000000000000000000000000000000000000000000000000000000000000000000000000000000000000PES00010000001000000000000000020250415
202503080060000300000000000000037002000000000000000370029900000000000000000000CONSUMIDOR FINAL              000000005018338000000000000000000000000000000000000000000000000000000000000000000000000000000000000000000000000000000000PES00010000001000000000000000020250415
202503080060000300000000000000037003000000000000000370039900000000000000000000CONSUMIDOR FINAL              000000000204512000000000000000000000000000000000000000000000000000000000000000000000000000000000000000000000000000000000PES00010000001000000000000000020250415
202503080060000300000000000000037004000000000000000370049900000000000000000000CONSUMIDOR FINAL              000000000551580000000000000000000000000000000000000000000000000000000000000000000000000000000000000000000000000000000000PES00010000001000000000000000020250415
202503080060000300000000000000037005000000000000000370059900000000000000000000CONSUMIDOR FINAL              000000000450856000000000000000000000000000000000000000000000000000000000000000000000000000000000000000000000000000000000PES00010000001000000000000000020250415
202503080060000300000000000000037006000000000000000370069900000000000000000000CONSUMIDOR FINAL              000000000549260000000000000000000000000000000000000000000000000000000000000000000000000000000000000000000000000000000000PES00010000001000000000000000020250415
202503080060000300000000000000037007000000000000000370079900000000000000000000CONSUMIDOR FINAL              000000000513476000000000000000000000000000000000000000000000000000000000000000000000000000000000000000000000000000000000PES00010000001000000000000000020250415
202503080060000300000000000000037008000000000000000370089900000000000000000000CONSUMIDOR FINAL              000000000445788000000000000000000000000000000000000000000000000000000000000000000000000000000000000000000000000000000000PES00010000001000000000000000020250415
202503080060000300000000000000037009000000000000000370099900000000000000000000CONSUMIDOR FINAL              000000000958900000000000000000000000000000000000000000000000000000000000000000000000000000000000000000000000000000000000PES00010000001000000000000000020250415
202503080060000300000000000000037010000000000000000370109900000000000000000000CONSUMIDOR FINAL              000000000416556000000000000000000000000000000000000000000000000000000000000000000000000000000000000000000000000000000000PES00010000001000000000000000020250415
202503080060000300000000000000037011000000000000000370119900000000000000000000CONSUMIDOR FINAL              000000000454720000000000000000000000000000000000000000000000000000000000000000000000000000000000000000000000000000000000PES00010000001000000000000000020250415
202503080060000300000000000000037012000000000000000370129900000000000000000000CONSUMIDOR FINAL              000000000225370000000000000000000000000000000000000000000000000000000000000000000000000000000000000000000000000000000000PES00010000001000000000000000020250415
202503080060000300000000000000037013000000000000000370139900000000000000000000CONSUMIDOR FINAL              000000000365401000000000000000000000000000000000000000000000000000000000000000000000000000000000000000000000000000000000PES00010000001000000000000000020250415
202503080060000300000000000000037014000000000000000370149900000000000000000000CONSUMIDOR FINAL              000000000677034000000000000000000000000000000000000000000000000000000000000000000000000000000000000000000000000000000000PES00010000002E00000000000000020250415
202503080060000300000000000000037015000000000000000370159900000000000000000000CONSUMIDOR FINAL              000000000304326000000000000000000000000000000000000000000000000000000000000000000000000000000000000000000000000000000000PES00010000002E00000000000000020250415
202503080060000300000000000000037016000000000000000370169900000000000000000000CONSUMIDOR FINAL              000000000912920000000000000000000000000000000000000000000000000000000000000000000000000000000000000000000000000000000000PES00010000001000000000000000020250415
202503080060000300000000000000037017000000000000000370179900000000000000000000CONSUMIDOR FINAL              000000001191900000000000000000000000000000000000000000000000000000000000000000000000000000000000000000000000000000000000PES00010000001000000000000000020250415
202503080060000300000000000000037018000000000000000370189900000000000000000000CONSUMIDOR FINAL              000000000532440000000000000000000000000000000000000000000000000000000000000000000000000000000000000000000000000000000000PES00010000001000000000000000020250415
202503080060000300000000000000037019000000000000000370199900000000000000000000CONSUMIDOR FINAL              000000000791699000000000000000000000000000000000000000000000000000000000000000000000000000000000000000000000000000000000PES00010000001000000000000000020250415
202503080060000300000000000000037020000000000000000370209900000000000000000000CONSUMIDOR FINAL              000000000260000000000000000000000000000000000000000000000000000000000000000000000000000000000000000000000000000000000000PES00010000001000000000000000020250415
202503080060000300000000000000037021000000000000000370219900000000000000000000CONSUMIDOR FINAL              000000000716360000000000000000000000000000000000000000000000000000000000000000000000000000000000000000000000000000000000PES00010000001000000000000000020250415
202503080060000300000000000000037022000000000000000370229900000000000000000000CONSUMIDOR FINAL              000000000777200000000000000000000000000000000000000000000000000000000000000000000000000000000000000000000000000000000000PES00010000001000000000000000020250415
202503080060000300000000000000037023000000000000000370239900000000000000000000CONSUMIDOR FINAL              000000000485982000000000000000000000000000000000000000000000000000000000000000000000000000000000000000000000000000000000PES00010000002E00000000000000020250415
202503080060000300000000000000037024000000000000000370249900000000000000000000CONSUMIDOR FINAL              000000000452980000000000000000000000000000000000000000000000000000000000000000000000000000000000000000000000000000000000PES00010000001000000000000000020250415
202503080060000300000000000000037025000000000000000370259900000000000000000000CONSUMIDOR FINAL              000000011598000000000000000000000000000000000000000000000000000000000000000000000000000000000000000000000000000000000000PES00010000001000000000000000020250415
202503080060000300000000000000037026000000000000000370269900000000000000000000CONSUMIDOR FINAL              000000004709948000000000000000000000000000000000000000000000000000000000000000000000000000000000000000000000000000000000PES00010000001000000000000000020250415
202503080060000300000000000000037027000000000000000370279900000000000000000000CONSUMIDOR FINAL              000000000558540000000000000000000000000000000000000000000000000000000000000000000000000000000000000000000000000000000000PES00010000001000000000000000020250415
202503080060000300000000000000037028000000000000000370289900000000000000000000CONSUMIDOR FINAL              000000001013319000000000000000000000000000000000000000000000000000000000000000000000000000000000000000000000000000000000PES00010000001000000000000000020250415
202503080060000300000000000000037029000000000000000370299900000000000000000000CONSUMIDOR FINAL              000000000538240000000000000000000000000000000000000000000000000000000000000000000000000000000000000000000000000000000000PES00010000001000000000000000020250415
202503080060000300000000000000037030000000000000000370309900000000000000000000CONSUMIDOR FINAL              000000000497466000000000000000000000000000000000000000000000000000000000000000000000000000000000000000000000000000000000PES00010000002E00000000000000020250415
202503080060000300000000000000037031000000000000000370319900000000000000000000CONSUMIDOR FINAL              000000000484300000000000000000000000000000000000000000000000000000000000000000000000000000000000000000000000000000000000PES00010000001000000000000000020250415
202503080060000300000000000000037032000000000000000370329900000000000000000000CONSUMIDOR FINAL              000000000459940000000000000000000000000000000000000000000000000000000000000000000000000000000000000000000000000000000000PES00010000001000000000000000020250415
202503080060000300000000000000037033000000000000000370339900000000000000000000CONSUMIDOR FINAL              000000000391500000000000000000000000000000000000000000000000000000000000000000000000000000000000000000000000000000000000PES00010000001000000000000000020250415
202503080060000300000000000000037034000000000000000370349900000000000000000000CONSUMIDOR FINAL              000000000900000000000000000000000000000000000000000000000000000000000000000000000000000000000000000000000000000000000000PES00010000001000000000000000020250415
202503080060000300000000000000037035000000000000000370359900000000000000000000CONSUMIDOR FINAL              000000000662360000000000000000000000000000000000000000000000000000000000000000000000000000000000000000000000000000000000PES00010000001000000000000000020250415
202503080060000300000000000000037036000000000000000370369900000000000000000000CONSUMIDOR FINAL              000000000407003000000000000000000000000000000000000000000000000000000000000000000000000000000000000000000000000000000000PES00010000001000000000000000020250415
202503080060000300000000000000037037000000000000000370379900000000000000000000CONSUMIDOR FINAL              000000000348696000000000000000000000000000000000000000000000000000000000000000000000000000000000000000000000000000000000PES00010000001000000000000000020250415
202503080060000300000000000000037038000000000000000370389900000000000000000000CONSUMIDOR FINAL              000000000276660000000000000000000000000000000000000000000000000000000000000000000000000000000000000000000000000000000000PES00010000001000000000000000020250415
202503080060000300000000000000037039000000000000000370399900000000000000000000CONSUMIDOR FINAL              000000000300000000000000000000000000000000000000000000000000000000000000000000000000000000000000000000000000000000000000PES00010000001000000000000000020250415
202503080060000300000000000000037040000000000000000370409900000000000000000000CONSUMIDOR FINAL              000000000491260000000000000000000000000000000000000000000000000000000000000000000000000000000000000000000000000000000000PES00010000001000000000000000020250415
202503080060000300000000000000037041000000000000000370419900000000000000000000CONSUMIDOR FINAL              000000000312300000000000000000000000000000000000000000000000000000000000000000000000000000000000000000000000000000000000PES00010000001000000000000000020250415
202503080060000300000000000000037042000000000000000370429900000000000000000000CONSUMIDOR FINAL              000000000406116000000000000000000000000000000000000000000000000000000000000000000000000000000000000000000000000000000000PES00010000001000000000000000020250415
202503080060000300000000000000037043000000000000000370439900000000000000000000CONSUMIDOR FINAL              000000011598000000000000000000000000000000000000000000000000000000000000000000000000000000000000000000000000000000000000PES00010000001000000000000000020250415
