202501020080000400000000000000000604000000000000000006048000000000020329042953CRISTIAN RIVERA               000000007999552000000000000000000000000000000000000000000000000000000000000000000000000000000000000000000000000000000000PES00010000002E00000000000000020250211
202501020080000400000000000000000605000000000000000006058000000000020329042953CRISTIAN RIVERA               000000002799843000000000000000000000000000000000000000000000000000000000000000000000000000000000000000000000000000000000PES00010000002E00000000000000020250211
202501020080000400000000000000000606000000000000000006068000000000027263413488VALERIA HERNANDEZ             000000006199653000000000000000000000000000000000000000000000000000000000000000000000000000000000000000000000000000000000PES00010000002E00000000000000020250211
202501020080000400000000000000000607000000000000000006078000000000020249173291PABLO JAVIER ALFONSO          000000000750000000000000000000000000000000000000000000000000000000000000000000000000000000000000000000000000000000000000PES00010000002E00000000000000020250211
202501020080000400000000000000000608000000000000000006088000000000020131777036MANUEL VENTURA                000000006199653000000000000000000000000000000000000000000000000000000000000000000000000000000000000000000000000000000000PES00010000002E00000000000000020250211
202501020080000400000000000000000609000000000000000006098000000000020208090837DARIO LUCERO                  000000000750000000000000000000000000000000000000000000000000000000000000000000000000000000000000000000000000000000000000PES00010000002E00000000000000020250211
202501020080000400000000000000000610000000000000000006108000000000020165640412CARLOS FERNANDEZ              000000000750000000000000000000000000000000000000000000000000000000000000000000000000000000000000000000000000000000000000PES00010000002E00000000000000020250211
202501020080000400000000000000000611000000000000000006119900000000000000000000CONSUMIDOR FINAL              000000000750000000000000000000000000000000000000000000000000000000000000000000000000000000000000000000000000000000000000PES00010000002E00000000000000020250211
202501020080000400000000000000000612000000000000000006128000000000027342572125PAOLA LASPADA                 000000000750000000000000000000000000000000000000000000000000000000000000000000000000000000000000000000000000000000000000PES00010000002E00000000000000020250211
202501020080000400000000000000000613000000000000000006138000000000020069089314JUAN CARLOS LO BELLO          000000006599630000000000000000000000000000000000000000000000000000000000000000000000000000000000000000000000000000000000PES00010000002E00000000000000020250211
202501020080000400000000000000000614000000000000000006148000000000020930850420JUAN EFRAIN                   000000006199653000000000000000000000000000000000000000000000000000000000000000000000000000000000000000000000000000000000PES00010000002E00000000000000020250211
202501020080000400000000000000000615000000000000000006158000000000020311068920ESTEBAN MAYA                  000000006199653000000000000000000000000000000000000000000000000000000000000000000000000000000000000000000000000000000000PES00010000002E00000000000000020250211
202501020080000400000000000000000616000000000000000006168000000000020218092331JORGE FEDERICO OPEL           000000000750000000000000000000000000000000000000000000000000000000000000000000000000000000000000000000000000000000000000PES00010000002E00000000000000020250211
202501020080000400000000000000000617000000000000000006178000000000020923828959YAï¿½EZ JAVIER FRANCIS          000000000750000000000000000000000000000000000000000000000000000000000000000000000000000000000000000000000000000000000000PES00010000002E00000000000000020250211
202501020080000400000000000000000618000000000000000006188000000000020082393618PERALTA OSCAR                 000000006199653000000000000000000000000000000000000000000000000000000000000000000000000000000000000000000000000000000000PES00010000002E00000000000000020250211
202501020080000400000000000000000619000000000000000006198000000000020941981764REMY ZAVALER FLAMA            000000006199653000000000000000000000000000000000000000000000000000000000000000000000000000000000000000000000000000000000PES00010000002E00000000000000020250211
202501020060000400000000000000019525000000000000000195259900000000000000000000CONSUMIDOR FINAL              000000000296450000000000000000000000000000000000000000000000000000000000000000000000000000000000000000000000000000000000PES00010000001000000000000000020250211
202501020060000400000000000000019526000000000000000195269900000000000000000000CONSUMIDOR FINAL              000000000284394000000000000000000000000000000000000000000000000000000000000000000000000000000000000000000000000000000000PES00010000001000000000000000020250211
202501020060000400000000000000019527000000000000000195279900000000000000000000CONSUMIDOR FINAL              000000000352935000000000000000000000000000000000000000000000000000000000000000000000000000000000000000000000000000000000PES00010000001000000000000000020250211
202501020060000400000000000000019528000000000000000195289900000000000000000000CONSUMIDOR FINAL              000000000426080000000000000000000000000000000000000000000000000000000000000000000000000000000000000000000000000000000000PES00010000001000000000000000020250211
202501020060000400000000000000019529000000000000000195299900000000000000000000CONSUMIDOR FINAL              000000000591800000000000000000000000000000000000000000000000000000000000000000000000000000000000000000000000000000000000PES00010000001000000000000000020250211
202501020060000400000000000000019530000000000000000195309900000000000000000000CONSUMIDOR FINAL              000000000256850000000000000000000000000000000000000000000000000000000000000000000000000000000000000000000000000000000000PES00010000001000000000000000020250211
202501020060000400000000000000019531000000000000000195319900000000000000000000CONSUMIDOR FINAL              000000000571450000000000000000000000000000000000000000000000000000000000000000000000000000000000000000000000000000000000PES00010000001000000000000000020250211
202501020060000400000000000000019532000000000000000195329900000000000000000000CONSUMIDOR FINAL              000000000170000000000000000000000000000000000000000000000000000000000000000000000000000000000000000000000000000000000000PES00010000001000000000000000020250211
202501020060000400000000000000019533000000000000000195339900000000000000000000CONSUMIDOR FINAL              000000000300000000000000000000000000000000000000000000000000000000000000000000000000000000000000000000000000000000000000PES00010000001000000000000000020250211
202501020060000400000000000000019534000000000000000195349900000000000000000000CONSUMIDOR FINAL              000000010998000000000000000000000000000000000000000000000000000000000000000000000000000000000000000000000000000000000000PES00010000001000000000000000020250211
202501020060000400000000000000019535000000000000000195359900000000000000000000CONSUMIDOR FINAL              000000000162770000000000000000000000000000000000000000000000000000000000000000000000000000000000000000000000000000000000PES00010000001000000000000000020250211
202501020060000400000000000000019536000000000000000195369900000000000000000000CONSUMIDOR FINAL              000000000170000000000000000000000000000000000000000000000000000000000000000000000000000000000000000000000000000000000000PES00010000001000000000000000020250211
202501020060000400000000000000019537000000000000000195379900000000000000000000CONSUMIDOR FINAL              000000000326337000000000000000000000000000000000000000000000000000000000000000000000000000000000000000000000000000000000PES00010000001000000000000000020250211
202501020060000400000000000000019538000000000000000195389900000000000000000000CONSUMIDOR FINAL              000000000574750000000000000000000000000000000000000000000000000000000000000000000000000000000000000000000000000000000000PES00010000001000000000000000020250211
202501030060000400000000000000019539000000000000000195399900000000000000000000CONSUMIDOR FINAL              000000000427201000000000000000000000000000000000000000000000000000000000000000000000000000000000000000000000000000000000PES00010000001000000000000000020250211
202501030060000400000000000000019540000000000000000195409900000000000000000000CONSUMIDOR FINAL              000000000427201000000000000000000000000000000000000000000000000000000000000000000000000000000000000000000000000000000000PES00010000001000000000000000020250211
202501030060000400000000000000019541000000000000000195419900000000000000000000CONSUMIDOR FINAL              000000000778250000000000000000000000000000000000000000000000000000000000000000000000000000000000000000000000000000000000PES00010000001000000000000000020250211
202501030060000400000000000000019542000000000000000195429900000000000000000000CONSUMIDOR FINAL              000000000232650000000000000000000000000000000000000000000000000000000000000000000000000000000000000000000000000000000000PES00010000001000000000000000020250211
202501030060000400000000000000019543000000000000000195439900000000000000000000CONSUMIDOR FINAL              000000001724101000000000000000000000000000000000000000000000000000000000000000000000000000000000000000000000000000000000PES00010000001000000000000000020250211
202501030060000400000000000000019544000000000000000195449900000000000000000000CONSUMIDOR FINAL              000000000194882000000000000000000000000000000000000000000000000000000000000000000000000000000000000000000000000000000000PES00010000001000000000000000020250211
202501030060000400000000000000019545000000000000000195459900000000000000000000CONSUMIDOR FINAL              000000000500000000000000000000000000000000000000000000000000000000000000000000000000000000000000000000000000000000000000PES00010000001000000000000000020250211
202501030010000400000000000000001292000000000000000012928000000000030605464250FORNER S.R.L.                 000000002987002000000000000000000000000000000000000000000000000000000000000000000000000000000000000000000000000000000000PES00010000002E00000000000000020250211
202501030060000400000000000000019546000000000000000195469900000000000000000000CONSUMIDOR FINAL              000000000561117000000000000000000000000000000000000000000000000000000000000000000000000000000000000000000000000000000000PES00010000001000000000000000020250211
202501030010000400000000000000001293000000000000000012938000000000030605464250FORNER S.R.L.                 000000002790000000000000000000000000000000000000000000000000000000000000000000000000000000000000000000000000000000000000PES00010000002E00000000000000020250211
202501030060000400000000000000019547000000000000000195479900000000000000000000CONSUMIDOR FINAL              000000000400026000000000000000000000000000000000000000000000000000000000000000000000000000000000000000000000000000000000PES00010000001000000000000000020250211
202501030060000400000000000000019548000000000000000195489900000000000000000000CONSUMIDOR FINAL              000000000353650000000000000000000000000000000000000000000000000000000000000000000000000000000000000000000000000000000000PES00010000001000000000000000020250211
202501030010000400000000000000001294000000000000000012948000000000020297458834CRISTIAN MARCELO VAL          000000000346286000000000000000000000000000000000000000000000000000000000000000000000000000000000000000000000000000000000PES00010000001000000000000000020250211
202501030060000400000000000000019549000000000000000195499900000000000000000000CONSUMIDOR FINAL              000000000697175000000000000000000000000000000000000000000000000000000000000000000000000000000000000000000000000000000000PES00010000001000000000000000020250211
202501030010000400000000000000001295000000000000000012958000000000033714720169COOPERATIVA LA TERRE          000000000562650000000000000000000000000000000000000000000000000000000000000000000000000000000000000000000000000000000000PES00010000001000000000000000020250211
202501030010000400000000000000001296000000000000000012968000000000020140414876OLIVA JUAN MANUEL             000000001208163000000000000000000000000000000000000000000000000000000000000000000000000000000000000000000000000000000000PES00010000001000000000000000020250211
202501030060000400000000000000019550000000000000000195509900000000000000000000CONSUMIDOR FINAL              000000000200000000000000000000000000000000000000000000000000000000000000000000000000000000000000000000000000000000000000PES00010000001000000000000000020250211
202501030060000400000000000000019551000000000000000195519900000000000000000000CONSUMIDOR FINAL              000000000592829000000000000000000000000000000000000000000000000000000000000000000000000000000000000000000000000000000000PES00010000001000000000000000020250211
202501030010000400000000000000001297000000000000000012978000000000030605464250FORNER S.R.L.                 000000002960002000000000000000000000000000000000000000000000000000000000000000000000000000000000000000000000000000000000PES00010000002E00000000000000020250211
202501030060000400000000000000019552000000000000000195529900000000000000000000CONSUMIDOR FINAL              000000004326393000000000000000000000000000000000000000000000000000000000000000000000000000000000000000000000000000000000PES00010000001000000000000000020250211
202501030060000400000000000000019553000000000000000195539900000000000000000000CONSUMIDOR FINAL              000000000410300000000000000000000000000000000000000000000000000000000000000000000000000000000000000000000000000000000000PES00010000001000000000000000020250211
202501030060000400000000000000019554000000000000000195549900000000000000000000CONSUMIDOR FINAL              000000000373395000000000000000000000000000000000000000000000000000000000000000000000000000000000000000000000000000000000PES00010000001000000000000000020250211
202501030060000400000000000000019555000000000000000195559900000000000000000000CONSUMIDOR FINAL              000000000300000000000000000000000000000000000000000000000000000000000000000000000000000000000000000000000000000000000000PES00010000001000000000000000020250211
202501030060000400000000000000019556000000000000000195569900000000000000000000CONSUMIDOR FINAL              000000001000616000000000000000000000000000000000000000000000000000000000000000000000000000000000000000000000000000000000PES00010000001000000000000000020250211
202501030010000400000000000000001298000000000000000012988000000000027249833954PUERTA ROXANA                 000000000429660000000000000000000000000000000000000000000000000000000000000000000000000000000000000000000000000000000000PES00010000001000000000000000020250211
202501030010000400000000000000001299000000000000000012998000000000027180795443CABRILLANA   LILIANA          000000000359150000000000000000000000000000000000000000000000000000000000000000000000000000000000000000000000000000000000PES00010000001000000000000000020250211
202501030060000400000000000000019557000000000000000195579900000000000000000000CONSUMIDOR FINAL              000000000379500000000000000000000000000000000000000000000000000000000000000000000000000000000000000000000000000000000000PES00010000002E00000000000000020250211
202501030060000400000000000000019558000000000000000195589900000000000000000000CONSUMIDOR FINAL              000000001000000000000000000000000000000000000000000000000000000000000000000000000000000000000000000000000000000000000000PES00010000001000000000000000020250211
202501030060000400000000000000019559000000000000000195599900000000000000000000CONSUMIDOR FINAL              000000000366234000000000000000000000000000000000000000000000000000000000000000000000000000000000000000000000000000000000PES00010000001000000000000000020250211
202501030060000400000000000000019560000000000000000195609900000000000000000000CONSUMIDOR FINAL              000000000400026000000000000000000000000000000000000000000000000000000000000000000000000000000000000000000000000000000000PES00010000001000000000000000020250211
202501030060000400000000000000019561000000000000000195619900000000000000000000CONSUMIDOR FINAL              000000010998000000000000000000000000000000000000000000000000000000000000000000000000000000000000000000000000000000000000PES00010000001000000000000000020250211
202501030060000400000000000000019562000000000000000195629900000000000000000000CONSUMIDOR FINAL              000000003565552000000000000000000000000000000000000000000000000000000000000000000000000000000000000000000000000000000000PES00010000001000000000000000020250211
202501030060000400000000000000019563000000000000000195639900000000000000000000CONSUMIDOR FINAL              000000000300000000000000000000000000000000000000000000000000000000000000000000000000000000000000000000000000000000000000PES00010000001000000000000000020250211
202501030060000400000000000000019564000000000000000195649900000000000000000000CONSUMIDOR FINAL              000000000393344000000000000000000000000000000000000000000000000000000000000000000000000000000000000000000000000000000000PES00010000001000000000000000020250211
202501040060000400000000000000019565000000000000000195659900000000000000000000CONSUMIDOR FINAL              000000000300000000000000000000000000000000000000000000000000000000000000000000000000000000000000000000000000000000000000PES00010000001000000000000000020250211
202501040060000400000000000000019566000000000000000195669900000000000000000000CONSUMIDOR FINAL              000000000483879000000000000000000000000000000000000000000000000000000000000000000000000000000000000000000000000000000000PES00010000001000000000000000020250211
202501040060000400000000000000019567000000000000000195679900000000000000000000CONSUMIDOR FINAL              000000000300102000000000000000000000000000000000000000000000000000000000000000000000000000000000000000000000000000000000PES00010000001000000000000000020250211
202501040060000400000000000000019568000000000000000195689900000000000000000000CONSUMIDOR FINAL              000000003037813000000000000000000000000000000000000000000000000000000000000000000000000000000000000000000000000000000000PES00010000001000000000000000020250211
202501040060000400000000000000019569000000000000000195699900000000000000000000CONSUMIDOR FINAL              000000000500000000000000000000000000000000000000000000000000000000000000000000000000000000000000000000000000000000000000PES00010000001000000000000000020250211
202501040060000400000000000000019570000000000000000195709900000000000000000000CONSUMIDOR FINAL              000000000682853000000000000000000000000000000000000000000000000000000000000000000000000000000000000000000000000000000000PES00010000001000000000000000020250211
202501040060000400000000000000019571000000000000000195719900000000000000000000CONSUMIDOR FINAL              000000000348150000000000000000000000000000000000000000000000000000000000000000000000000000000000000000000000000000000000PES00010000001000000000000000020250211
202501040060000400000000000000019572000000000000000195728000000000020082393618PERALTA OSCAR                 000000000200000000000000000000000000000000000000000000000000000000000000000000000000000000000000000000000000000000000000PES00010000001000000000000000020250211
202501040060000400000000000000019573000000000000000195738000000000020082393618PERALTA OSCAR                 000000000200000000000000000000000000000000000000000000000000000000000000000000000000000000000000000000000000000000000000PES00010000001000000000000000020250211
202501040060000400000000000000019574000000000000000195749900000000000000000000CONSUMIDOR FINAL              000000000400026000000000000000000000000000000000000000000000000000000000000000000000000000000000000000000000000000000000PES00010000001000000000000000020250211
202501040060000400000000000000019575000000000000000195759900000000000000000000CONSUMIDOR FINAL              000000000473649000000000000000000000000000000000000000000000000000000000000000000000000000000000000000000000000000000000PES00010000001000000000000000020250211
202501040060000400000000000000019576000000000000000195769900000000000000000000CONSUMIDOR FINAL              000000000658812000000000000000000000000000000000000000000000000000000000000000000000000000000000000000000000000000000000PES00010000001000000000000000020250211
202501040060000400000000000000019577000000000000000195779900000000000000000000CONSUMIDOR FINAL              000000000347600000000000000000000000000000000000000000000000000000000000000000000000000000000000000000000000000000000000PES00010000001000000000000000020250211
202501040060000400000000000000019578000000000000000195789900000000000000000000CONSUMIDOR FINAL              000000000500000000000000000000000000000000000000000000000000000000000000000000000000000000000000000000000000000000000000PES00010000001000000000000000020250211
202501040060000400000000000000019579000000000000000195799900000000000000000000CONSUMIDOR FINAL              000000000175444000000000000000000000000000000000000000000000000000000000000000000000000000000000000000000000000000000000PES00010000001000000000000000020250211
202501040060000400000000000000019580000000000000000195809900000000000000000000CONSUMIDOR FINAL              000000010946859000000000000000000000000000000000000000000000000000000000000000000000000000000000000000000000000000000000PES00010000001000000000000000020250211
202501040060000400000000000000019581000000000000000195819900000000000000000000CONSUMIDOR FINAL              000000000500308000000000000000000000000000000000000000000000000000000000000000000000000000000000000000000000000000000000PES00010000001000000000000000020250211
202501040060000400000000000000019582000000000000000195829900000000000000000000CONSUMIDOR FINAL              000000000495000000000000000000000000000000000000000000000000000000000000000000000000000000000000000000000000000000000000PES00010000001000000000000000020250211
202501040060000400000000000000019583000000000000000195839900000000000000000000CONSUMIDOR FINAL              000000000372900000000000000000000000000000000000000000000000000000000000000000000000000000000000000000000000000000000000PES00010000001000000000000000020250211
202501040010000400000000000000001300000000000000000013008000000000030605464250FORNER S.R.L.                 000000002317999000000000000000000000000000000000000000000000000000000000000000000000000000000000000000000000000000000000PES00010000002E00000000000000020250211
202501040060000400000000000000019584000000000000000195849900000000000000000000CONSUMIDOR FINAL              000000000600000000000000000000000000000000000000000000000000000000000000000000000000000000000000000000000000000000000000PES00010000001000000000000000020250211
202501040010000400000000000000001301000000000000000013018000000000030605464250FORNER S.R.L.                 000000001560000000000000000000000000000000000000000000000000000000000000000000000000000000000000000000000000000000000000PES00010000002E00000000000000020250211
202501040010000400000000000000001302000000000000000013028000000000030605464250FORNER S.R.L.                 000000002336998000000000000000000000000000000000000000000000000000000000000000000000000000000000000000000000000000000000PES00010000002E00000000000000020250211
202501040060000400000000000000019585000000000000000195859900000000000000000000CONSUMIDOR FINAL              000000000652674000000000000000000000000000000000000000000000000000000000000000000000000000000000000000000000000000000000PES00010000001000000000000000020250211
202501040010000400000000000000001303000000000000000013038000000000027239321432CLUAUDIA ANDREA PERA          000000000721050000000000000000000000000000000000000000000000000000000000000000000000000000000000000000000000000000000000PES00010000001000000000000000020250211
202501040060000400000000000000019586000000000000000195869900000000000000000000CONSUMIDOR FINAL              000000000469557000000000000000000000000000000000000000000000000000000000000000000000000000000000000000000000000000000000PES00010000001000000000000000020250211
202501040060000400000000000000019587000000000000000195879900000000000000000000CONSUMIDOR FINAL              000000000383900000000000000000000000000000000000000000000000000000000000000000000000000000000000000000000000000000000000PES00010000001000000000000000020250211
202501040060000400000000000000019588000000000000000195889900000000000000000000CONSUMIDOR FINAL              000000000293150000000000000000000000000000000000000000000000000000000000000000000000000000000000000000000000000000000000PES00010000001000000000000000020250211
202501040060000400000000000000019589000000000000000195899900000000000000000000CONSUMIDOR FINAL              000000000573100000000000000000000000000000000000000000000000000000000000000000000000000000000000000000000000000000000000PES00010000001000000000000000020250211
202501040060000400000000000000019590000000000000000195909900000000000000000000CONSUMIDOR FINAL              000000000267850000000000000000000000000000000000000000000000000000000000000000000000000000000000000000000000000000000000PES00010000001000000000000000020250211
202501040060000400000000000000019591000000000000000195919900000000000000000000CONSUMIDOR FINAL              000000003346691000000000000000000000000000000000000000000000000000000000000000000000000000000000000000000000000000000000PES00010000001000000000000000020250211
2025010400600004000000000000000195920000000000000001959280000000000202222222230                             000000000409200000000000000000000000000000000000000000000000000000000000000000000000000000000000000000000000000000000000PES00010000001000000000000000020250211
202501050060000400000000000000019593000000000000000195939900000000000000000000CONSUMIDOR FINAL              000000000710399000000000000000000000000000000000000000000000000000000000000000000000000000000000000000000000000000000000PES00010000001000000000000000020250211
202501050060000400000000000000019594000000000000000195949900000000000000000000CONSUMIDOR FINAL              000000000418000000000000000000000000000000000000000000000000000000000000000000000000000000000000000000000000000000000000PES00010000001000000000000000020250211
202501050060000400000000000000019595000000000000000195959900000000000000000000CONSUMIDOR FINAL              000000002793547000000000000000000000000000000000000000000000000000000000000000000000000000000000000000000000000000000000PES00010000001000000000000000020250211
202501050060000400000000000000019596000000000000000195969900000000000000000000CONSUMIDOR FINAL              000000000260000000000000000000000000000000000000000000000000000000000000000000000000000000000000000000000000000000000000PES00010000001000000000000000020250211
202501050060000400000000000000019597000000000000000195979900000000000000000000CONSUMIDOR FINAL              000000000279279000000000000000000000000000000000000000000000000000000000000000000000000000000000000000000000000000000000PES00010000001000000000000000020250211
202501050060000400000000000000019598000000000000000195989900000000000000000000CONSUMIDOR FINAL              000000000292066000000000000000000000000000000000000000000000000000000000000000000000000000000000000000000000000000000000PES00010000001000000000000000020250211
202501050060000400000000000000019599000000000000000195999900000000000000000000CONSUMIDOR FINAL              000000000185900000000000000000000000000000000000000000000000000000000000000000000000000000000000000000000000000000000000PES00010000001000000000000000020250211
202501050060000400000000000000019600000000000000000196009900000000000000000000CONSUMIDOR FINAL              000000000835450000000000000000000000000000000000000000000000000000000000000000000000000000000000000000000000000000000000PES00010000001000000000000000020250211
202501050060000400000000000000019601000000000000000196019900000000000000000000CONSUMIDOR FINAL              000000000413292000000000000000000000000000000000000000000000000000000000000000000000000000000000000000000000000000000000PES00010000001000000000000000020250211
202501050060000400000000000000019602000000000000000196029900000000000000000000CONSUMIDOR FINAL              000000000260000000000000000000000000000000000000000000000000000000000000000000000000000000000000000000000000000000000000PES00010000001000000000000000020250211
202501050060000400000000000000019603000000000000000196039900000000000000000000CONSUMIDOR FINAL              000000000500000000000000000000000000000000000000000000000000000000000000000000000000000000000000000000000000000000000000PES00010000001000000000000000020250211
202501050060000400000000000000019604000000000000000196049900000000000000000000CONSUMIDOR FINAL              000000000583110000000000000000000000000000000000000000000000000000000000000000000000000000000000000000000000000000000000PES00010000001000000000000000020250211
202501050060000400000000000000019605000000000000000196059900000000000000000000CONSUMIDOR FINAL              000000000500000000000000000000000000000000000000000000000000000000000000000000000000000000000000000000000000000000000000PES00010000001000000000000000020250211
202501050060000400000000000000019606000000000000000196069900000000000000000000CONSUMIDOR FINAL              000000000300000000000000000000000000000000000000000000000000000000000000000000000000000000000000000000000000000000000000PES00010000001000000000000000020250211
202501050060000400000000000000019607000000000000000196078000000000020222222223D                             000000000300000000000000000000000000000000000000000000000000000000000000000000000000000000000000000000000000000000000000PES00010000001000000000000000020250211
202501050060000400000000000000019608000000000000000196089900000000000000000000CONSUMIDOR FINAL              000000004429994000000000000000000000000000000000000000000000000000000000000000000000000000000000000000000000000000000000PES00010000001000000000000000020250211
202501050010000400000000000000001304000000000000000013048000000000020293850306RABIER GUSTAVO                000000000623007000000000000000000000000000000000000000000000000000000000000000000000000000000000000000000000000000000000PES00010000001000000000000000020250211
202501050060000400000000000000019609000000000000000196099900000000000000000000CONSUMIDOR FINAL              000000000300000000000000000000000000000000000000000000000000000000000000000000000000000000000000000000000000000000000000PES00010000001000000000000000020250211
202501050060000400000000000000019610000000000000000196109900000000000000000000CONSUMIDOR FINAL              000000000276210000000000000000000000000000000000000000000000000000000000000000000000000000000000000000000000000000000000PES00010000001000000000000000020250211
202501050060000400000000000000019611000000000000000196119900000000000000000000CONSUMIDOR FINAL              000000000419650000000000000000000000000000000000000000000000000000000000000000000000000000000000000000000000000000000000PES00010000001000000000000000020250211
202501050060000400000000000000019612000000000000000196129900000000000000000000CONSUMIDOR FINAL              000000000468534000000000000000000000000000000000000000000000000000000000000000000000000000000000000000000000000000000000PES00010000001000000000000000020250211
202501050060000400000000000000019613000000000000000196139900000000000000000000CONSUMIDOR FINAL              000000004456390000000000000000000000000000000000000000000000000000000000000000000000000000000000000000000000000000000000PES00010000001000000000000000020250211
202501060060000400000000000000019614000000000000000196149900000000000000000000CONSUMIDOR FINAL              000000000500002000000000000000000000000000000000000000000000000000000000000000000000000000000000000000000000000000000000PES00010000001000000000000000020250211
202501060060000400000000000000019615000000000000000196159900000000000000000000CONSUMIDOR FINAL              000000000445897000000000000000000000000000000000000000000000000000000000000000000000000000000000000000000000000000000000PES00010000001000000000000000020250211
202501060060000400000000000000019616000000000000000196169900000000000000000000CONSUMIDOR FINAL              000000001859157000000000000000000000000000000000000000000000000000000000000000000000000000000000000000000000000000000000PES00010000001000000000000000020250211
202501060060000400000000000000019617000000000000000196178000000000020222222223JM                            000000000500308000000000000000000000000000000000000000000000000000000000000000000000000000000000000000000000000000000000PES00010000001000000000000000020250211
202501060060000400000000000000019618000000000000000196189900000000000000000000CONSUMIDOR FINAL              000000000500000000000000000000000000000000000000000000000000000000000000000000000000000000000000000000000000000000000000PES00010000001000000000000000020250211
202501060060000400000000000000019619000000000000000196199900000000000000000000CONSUMIDOR FINAL              000000000299736000000000000000000000000000000000000000000000000000000000000000000000000000000000000000000000000000000000PES00010000001000000000000000020250211
202501060010000400000000000000001305000000000000000013058000000000020140414876OLIVA JUAN MANUEL             000000000637329000000000000000000000000000000000000000000000000000000000000000000000000000000000000000000000000000000000PES00010000001000000000000000020250211
202501060060000400000000000000019620000000000000000196209900000000000000000000CONSUMIDOR FINAL              000000000205150000000000000000000000000000000000000000000000000000000000000000000000000000000000000000000000000000000000PES00010000001000000000000000020250211
202501060060000400000000000000019621000000000000000196219900000000000000000000CONSUMIDOR FINAL              000000000495000000000000000000000000000000000000000000000000000000000000000000000000000000000000000000000000000000000000PES00010000001000000000000000020250211
202501060010000400000000000000001306000000000000000013068000000000030605464250FORNER S.R.L.                 000000002840003000000000000000000000000000000000000000000000000000000000000000000000000000000000000000000000000000000000PES00010000002E00000000000000020250211
202501060060000400000000000000019622000000000000000196229900000000000000000000CONSUMIDOR FINAL              000000000170000000000000000000000000000000000000000000000000000000000000000000000000000000000000000000000000000000000000PES00010000001000000000000000020250211
202501060060000400000000000000019623000000000000000196239900000000000000000000CONSUMIDOR FINAL              000000000295136000000000000000000000000000000000000000000000000000000000000000000000000000000000000000000000000000000000PES00010000001000000000000000020250211
202501060060000400000000000000019624000000000000000196249900000000000000000000CONSUMIDOR FINAL              000000000512600000000000000000000000000000000000000000000000000000000000000000000000000000000000000000000000000000000000PES00010000001000000000000000020250211
202501060060000400000000000000019625000000000000000196259900000000000000000000CONSUMIDOR FINAL              000000000465286000000000000000000000000000000000000000000000000000000000000000000000000000000000000000000000000000000000PES00010000001000000000000000020250211
202501060060000400000000000000019626000000000000000196269900000000000000000000CONSUMIDOR FINAL              000000001100026000000000000000000000000000000000000000000000000000000000000000000000000000000000000000000000000000000000PES00010000001000000000000000020250211
202501060060000400000000000000019627000000000000000196279900000000000000000000CONSUMIDOR FINAL              000000000500000000000000000000000000000000000000000000000000000000000000000000000000000000000000000000000000000000000000PES00010000001000000000000000020250211
202501060060000400000000000000019628000000000000000196289900000000000000000000CONSUMIDOR FINAL              000000000300000000000000000000000000000000000000000000000000000000000000000000000000000000000000000000000000000000000000PES00010000001000000000000000020250211
202501060060000400000000000000019629000000000000000196299900000000000000000000CONSUMIDOR FINAL              000000000322700000000000000000000000000000000000000000000000000000000000000000000000000000000000000000000000000000000000PES00010000001000000000000000020250211
202501060060000400000000000000019630000000000000000196309900000000000000000000CONSUMIDOR FINAL              000000001625000000000000000000000000000000000000000000000000000000000000000000000000000000000000000000000000000000000000PES00010000001000000000000000020250211
202501060060000400000000000000019631000000000000000196319900000000000000000000CONSUMIDOR FINAL              000000000499400000000000000000000000000000000000000000000000000000000000000000000000000000000000000000000000000000000000PES00010000001000000000000000020250211
202501060060000400000000000000019632000000000000000196329900000000000000000000CONSUMIDOR FINAL              000000008122793000000000000000000000000000000000000000000000000000000000000000000000000000000000000000000000000000000000PES00010000001000000000000000020250211
202501060010000400000000000000001307000000000000000013078000000000030605464250FORNER S.R.L.                 000000002229999000000000000000000000000000000000000000000000000000000000000000000000000000000000000000000000000000000000PES00010000002E00000000000000020250211
202501060060000400000000000000019633000000000000000196339900000000000000000000CONSUMIDOR FINAL              000000000500000000000000000000000000000000000000000000000000000000000000000000000000000000000000000000000000000000000000PES00010000001000000000000000020250211
202501060060000400000000000000019634000000000000000196349900000000000000000000CONSUMIDOR FINAL              000000000419650000000000000000000000000000000000000000000000000000000000000000000000000000000000000000000000000000000000PES00010000001000000000000000020250211
202501060060000400000000000000019635000000000000000196359900000000000000000000CONSUMIDOR FINAL              000000000290400000000000000000000000000000000000000000000000000000000000000000000000000000000000000000000000000000000000PES00010000001000000000000000020250211
202501060060000400000000000000019636000000000000000196369900000000000000000000CONSUMIDOR FINAL              000000000170000000000000000000000000000000000000000000000000000000000000000000000000000000000000000000000000000000000000PES00010000001000000000000000020250211
202501060060000400000000000000019637000000000000000196379900000000000000000000CONSUMIDOR FINAL              000000000384648000000000000000000000000000000000000000000000000000000000000000000000000000000000000000000000000000000000PES00010000001000000000000000020250211
202501060060000400000000000000019638000000000000000196389900000000000000000000CONSUMIDOR FINAL              000000000755000000000000000000000000000000000000000000000000000000000000000000000000000000000000000000000000000000000000PES00010000001000000000000000020250211
202501060060000400000000000000019639000000000000000196399900000000000000000000CONSUMIDOR FINAL              000000000300000000000000000000000000000000000000000000000000000000000000000000000000000000000000000000000000000000000000PES00010000001000000000000000020250211
202501060010000400000000000000001308000000000000000013088000000000030629495505HUGO DEL CARMEN OJED          000000000200000000000000000000000000000000000000000000000000000000000000000000000000000000000000000000000000000000000000PES00010000002000000000000000020250211
202501060060000400000000000000019640000000000000000196409900000000000000000000CONSUMIDOR FINAL              000000000170000000000000000000000000000000000000000000000000000000000000000000000000000000000000000000000000000000000000PES00010000001000000000000000020250211
202501060060000400000000000000019641000000000000000196419900000000000000000000CONSUMIDOR FINAL              000000000517127000000000000000000000000000000000000000000000000000000000000000000000000000000000000000000000000000000000PES00010000001000000000000000020250211
202501060060000400000000000000019642000000000000000196429900000000000000000000CONSUMIDOR FINAL              000000000570000000000000000000000000000000000000000000000000000000000000000000000000000000000000000000000000000000000000PES00010000001000000000000000020250211
202501060060000400000000000000019643000000000000000196439900000000000000000000CONSUMIDOR FINAL              000000000580800000000000000000000000000000000000000000000000000000000000000000000000000000000000000000000000000000000000PES00010000001000000000000000020250211
202501060010000400000000000000001309000000000000000013098000000000020293850306RABIER GUSTAVO                000000000637329000000000000000000000000000000000000000000000000000000000000000000000000000000000000000000000000000000000PES00010000001000000000000000020250211
202501060060000400000000000000019644000000000000000196449900000000000000000000CONSUMIDOR FINAL              000000009801253000000000000000000000000000000000000000000000000000000000000000000000000000000000000000000000000000000000PES00010000001000000000000000020250211
202501060060000400000000000000019645000000000000000196459900000000000000000000CONSUMIDOR FINAL              000000000200000000000000000000000000000000000000000000000000000000000000000000000000000000000000000000000000000000000000PES00010000001000000000000000020250211
202501070060000400000000000000019646000000000000000196469900000000000000000000CONSUMIDOR FINAL              000000000349866000000000000000000000000000000000000000000000000000000000000000000000000000000000000000000000000000000000PES00010000001000000000000000020250211
2025010700600004000000000000000196470000000000000001964780000000000202222222230                             000000000170000000000000000000000000000000000000000000000000000000000000000000000000000000000000000000000000000000000000PES00010000001000000000000000020250211
202501070060000400000000000000019648000000000000000196489900000000000000000000CONSUMIDOR FINAL              000000001209780000000000000000000000000000000000000000000000000000000000000000000000000000000000000000000000000000000000PES00010000001000000000000000020250211
202501070060000400000000000000019649000000000000000196499900000000000000000000CONSUMIDOR FINAL              000000000281600000000000000000000000000000000000000000000000000000000000000000000000000000000000000000000000000000000000PES00010000001000000000000000020250211
202501070060000400000000000000019650000000000000000196509900000000000000000000CONSUMIDOR FINAL              000000000352935000000000000000000000000000000000000000000000000000000000000000000000000000000000000000000000000000000000PES00010000001000000000000000020250211
202501070060000400000000000000019651000000000000000196519900000000000000000000CONSUMIDOR FINAL              000000000260000000000000000000000000000000000000000000000000000000000000000000000000000000000000000000000000000000000000PES00010000001000000000000000020250211
202501070060000400000000000000019652000000000000000196529900000000000000000000CONSUMIDOR FINAL              000000000676203000000000000000000000000000000000000000000000000000000000000000000000000000000000000000000000000000000000PES00010000001000000000000000020250211
202501070060000400000000000000019653000000000000000196539900000000000000000000CONSUMIDOR FINAL              000000000500000000000000000000000000000000000000000000000000000000000000000000000000000000000000000000000000000000000000PES00010000001000000000000000020250211
202501070060000400000000000000019654000000000000000196549900000000000000000000CONSUMIDOR FINAL              000000000937750000000000000000000000000000000000000000000000000000000000000000000000000000000000000000000000000000000000PES00010000001000000000000000020250211
202501070010000400000000000000001310000000000000000013108000000000030605464250FORNER S.R.L.                 000000029735001000000000000000000000000000000000000000000000000000000000000000000000000000000000000000000000000000000000PES00010000002000000000000000020250211
202501070060000400000000000000019655000000000000000196559900000000000000000000CONSUMIDOR FINAL              000000000500000000000000000000000000000000000000000000000000000000000000000000000000000000000000000000000000000000000000PES00010000001000000000000000020250211
202501070060000400000000000000019656000000000000000196569900000000000000000000CONSUMIDOR FINAL              000000000190300000000000000000000000000000000000000000000000000000000000000000000000000000000000000000000000000000000000PES00010000001000000000000000020250211
202501070060000400000000000000019657000000000000000196578000000000020082393618PERALTA OSCAR                 000000000200000000000000000000000000000000000000000000000000000000000000000000000000000000000000000000000000000000000000PES00010000001000000000000000020250211
202501070010000400000000000000001311000000000000000013118000000000030605464250FORNER S.R.L.                 000000002658998000000000000000000000000000000000000000000000000000000000000000000000000000000000000000000000000000000000PES00010000002E00000000000000020250211
202501070060000400000000000000019659000000000000000196599900000000000000000000CONSUMIDOR FINAL              000000000482350000000000000000000000000000000000000000000000000000000000000000000000000000000000000000000000000000000000PES00010000001000000000000000020250211
202501070060000400000000000000019660000000000000000196609900000000000000000000CONSUMIDOR FINAL              000000000500000000000000000000000000000000000000000000000000000000000000000000000000000000000000000000000000000000000000PES00010000001000000000000000020250211
202501070060000400000000000000019661000000000000000196619900000000000000000000CONSUMIDOR FINAL              000000000388228000000000000000000000000000000000000000000000000000000000000000000000000000000000000000000000000000000000PES00010000001000000000000000020250211
202501070060000400000000000000019662000000000000000196629900000000000000000000CONSUMIDOR FINAL              000000000497057000000000000000000000000000000000000000000000000000000000000000000000000000000000000000000000000000000000PES00010000001000000000000000020250211
202501070060000400000000000000019663000000000000000196639900000000000000000000CONSUMIDOR FINAL              000000000500000000000000000000000000000000000000000000000000000000000000000000000000000000000000000000000000000000000000PES00010000001000000000000000020250211
202501070080000400000000000000000620000000000000000006209900000000000000000000CONSUMIDOR FINAL              000000010998000000000000000000000000000000000000000000000000000000000000000000000000000000000000000000000000000000000000PES00010000001000000000000000020250211
202501070080000400000000000000000621000000000000000006219900000000000000000000CONSUMIDOR FINAL              000000009990523000000000000000000000000000000000000000000000000000000000000000000000000000000000000000000000000000000000PES00010000001000000000000000020250211
202501070010000400000000000000001312000000000000000013128000000000027180795443CABRILLANA   LILIANA          000000000222750000000000000000000000000000000000000000000000000000000000000000000000000000000000000000000000000000000000PES00010000001000000000000000020250211
202501070060000400000000000000019664000000000000000196649900000000000000000000CONSUMIDOR FINAL              000000000275000000000000000000000000000000000000000000000000000000000000000000000000000000000000000000000000000000000000PES00010000001000000000000000020250211
202501070060000400000000000000019665000000000000000196659900000000000000000000CONSUMIDOR FINAL              000000000623007000000000000000000000000000000000000000000000000000000000000000000000000000000000000000000000000000000000PES00010000001000000000000000020250211
202501070060000400000000000000019666000000000000000196669900000000000000000000CONSUMIDOR FINAL              000000000381579000000000000000000000000000000000000000000000000000000000000000000000000000000000000000000000000000000000PES00010000001000000000000000020250211
202501070060000400000000000000019667000000000000000196679900000000000000000000CONSUMIDOR FINAL              000000000199994000000000000000000000000000000000000000000000000000000000000000000000000000000000000000000000000000000000PES00010000001000000000000000020250211
202501070060000400000000000000019668000000000000000196689900000000000000000000CONSUMIDOR FINAL              000000000264000000000000000000000000000000000000000000000000000000000000000000000000000000000000000000000000000000000000PES00010000001000000000000000020250211
202501070060000400000000000000019669000000000000000196699900000000000000000000CONSUMIDOR FINAL              000000000345950000000000000000000000000000000000000000000000000000000000000000000000000000000000000000000000000000000000PES00010000001000000000000000020250211
202501070060000400000000000000019670000000000000000196709900000000000000000000CONSUMIDOR FINAL              000000000507408000000000000000000000000000000000000000000000000000000000000000000000000000000000000000000000000000000000PES00010000001000000000000000020250211
202501070060000400000000000000019671000000000000000196719900000000000000000000CONSUMIDOR FINAL              000000008397523000000000000000000000000000000000000000000000000000000000000000000000000000000000000000000000000000000000PES00010000001000000000000000020250211
202501070060000400000000000000019672000000000000000196729900000000000000000000CONSUMIDOR FINAL              000000000769150000000000000000000000000000000000000000000000000000000000000000000000000000000000000000000000000000000000PES00010000001000000000000000020250211
202501080060000400000000000000019673000000000000000196739900000000000000000000CONSUMIDOR FINAL              000000000300000000000000000000000000000000000000000000000000000000000000000000000000000000000000000000000000000000000000PES00010000001000000000000000020250211
202501080060000400000000000000019674000000000000000196749900000000000000000000CONSUMIDOR FINAL              000000000600000000000000000000000000000000000000000000000000000000000000000000000000000000000000000000000000000000000000PES00010000001000000000000000020250211
202501080060000400000000000000019675000000000000000196759900000000000000000000CONSUMIDOR FINAL              000000000457281000000000000000000000000000000000000000000000000000000000000000000000000000000000000000000000000000000000PES00010000001000000000000000020250211
202501080060000400000000000000019676000000000000000196769900000000000000000000CONSUMIDOR FINAL              000000001488029000000000000000000000000000000000000000000000000000000000000000000000000000000000000000000000000000000000PES00010000001000000000000000020250211
202501080060000400000000000000019677000000000000000196779900000000000000000000CONSUMIDOR FINAL              000000000445516000000000000000000000000000000000000000000000000000000000000000000000000000000000000000000000000000000000PES00010000001000000000000000020250211
202501080060000400000000000000019678000000000000000196789900000000000000000000CONSUMIDOR FINAL              000000000500308000000000000000000000000000000000000000000000000000000000000000000000000000000000000000000000000000000000PES00010000001000000000000000020250211
202501080060000400000000000000019679000000000000000196799900000000000000000000CONSUMIDOR FINAL              000000000613800000000000000000000000000000000000000000000000000000000000000000000000000000000000000000000000000000000000PES00010000001000000000000000020250211
202501080060000400000000000000019680000000000000000196809900000000000000000000CONSUMIDOR FINAL              000000000501050000000000000000000000000000000000000000000000000000000000000000000000000000000000000000000000000000000000PES00010000001000000000000000020250211
202501080060000400000000000000019681000000000000000196819900000000000000000000CONSUMIDOR FINAL              000000000484391000000000000000000000000000000000000000000000000000000000000000000000000000000000000000000000000000000000PES00010000001000000000000000020250211
202501080060000400000000000000019682000000000000000196829900000000000000000000CONSUMIDOR FINAL              000000000900000000000000000000000000000000000000000000000000000000000000000000000000000000000000000000000000000000000000PES00010000001000000000000000020250211
202501080060000400000000000000019683000000000000000196839900000000000000000000CONSUMIDOR FINAL              000000000304342000000000000000000000000000000000000000000000000000000000000000000000000000000000000000000000000000000000PES00010000001000000000000000020250211
202501080060000400000000000000019684000000000000000196849900000000000000000000CONSUMIDOR FINAL              000000000376200000000000000000000000000000000000000000000000000000000000000000000000000000000000000000000000000000000000PES00010000001000000000000000020250211
202501080060000400000000000000019685000000000000000196859900000000000000000000CONSUMIDOR FINAL              000000000546795000000000000000000000000000000000000000000000000000000000000000000000000000000000000000000000000000000000PES00010000001000000000000000020250211
202501080060000400000000000000019686000000000000000196869900000000000000000000CONSUMIDOR FINAL              000000000275187000000000000000000000000000000000000000000000000000000000000000000000000000000000000000000000000000000000PES00010000001000000000000000020250211
202501080060000400000000000000019687000000000000000196879900000000000000000000CONSUMIDOR FINAL              000000000999471000000000000000000000000000000000000000000000000000000000000000000000000000000000000000000000000000000000PES00010000001000000000000000020250211
202501080060000400000000000000019688000000000000000196889900000000000000000000CONSUMIDOR FINAL              000000000369814000000000000000000000000000000000000000000000000000000000000000000000000000000000000000000000000000000000PES00010000001000000000000000020250211
202501080060000400000000000000019689000000000000000196899900000000000000000000CONSUMIDOR FINAL              000000000599990000000000000000000000000000000000000000000000000000000000000000000000000000000000000000000000000000000000PES00010000001000000000000000020250211
202501080060000400000000000000019690000000000000000196909900000000000000000000CONSUMIDOR FINAL              000000000547305000000000000000000000000000000000000000000000000000000000000000000000000000000000000000000000000000000000PES00010000001000000000000000020250211
202501080060000400000000000000019691000000000000000196919900000000000000000000CONSUMIDOR FINAL              000000000393250000000000000000000000000000000000000000000000000000000000000000000000000000000000000000000000000000000000PES00010000001000000000000000020250211
202501080060000400000000000000019692000000000000000196929900000000000000000000CONSUMIDOR FINAL              000000000177650000000000000000000000000000000000000000000000000000000000000000000000000000000000000000000000000000000000PES00010000001000000000000000020250211
202501080060000400000000000000019693000000000000000196939900000000000000000000CONSUMIDOR FINAL              000000000600000000000000000000000000000000000000000000000000000000000000000000000000000000000000000000000000000000000000PES00010000001000000000000000020250211
202501080010000400000000000000001313000000000000000013138000000000020297458834CRISTIAN MARCELO VAL          000000000485925000000000000000000000000000000000000000000000000000000000000000000000000000000000000000000000000000000000PES00010000002E00000000000000020250211
202501080060000400000000000000019694000000000000000196949900000000000000000000CONSUMIDOR FINAL              000000000600050000000000000000000000000000000000000000000000000000000000000000000000000000000000000000000000000000000000PES00010000001000000000000000020250211
202501080060000400000000000000019695000000000000000196959900000000000000000000CONSUMIDOR FINAL              000000000312526000000000000000000000000000000000000000000000000000000000000000000000000000000000000000000000000000000000PES00010000001000000000000000020250211
202501080060000400000000000000019696000000000000000196969900000000000000000000CONSUMIDOR FINAL              000000000702350000000000000000000000000000000000000000000000000000000000000000000000000000000000000000000000000000000000PES00010000001000000000000000020250211
202501080060000400000000000000019697000000000000000196979900000000000000000000CONSUMIDOR FINAL              000000010998000000000000000000000000000000000000000000000000000000000000000000000000000000000000000000000000000000000000PES00010000001000000000000000020250211
202501080060000400000000000000019698000000000000000196989900000000000000000000CONSUMIDOR FINAL              000000004407998000000000000000000000000000000000000000000000000000000000000000000000000000000000000000000000000000000000PES00010000001000000000000000020250211
202501080060000400000000000000019699000000000000000196999900000000000000000000CONSUMIDOR FINAL              000000000383625000000000000000000000000000000000000000000000000000000000000000000000000000000000000000000000000000000000PES00010000002E00000000000000020250211
202501080060000400000000000000019700000000000000000197009900000000000000000000CONSUMIDOR FINAL              000000000583000000000000000000000000000000000000000000000000000000000000000000000000000000000000000000000000000000000000PES00010000001000000000000000020250211
202501080060000400000000000000019701000000000000000197019900000000000000000000CONSUMIDOR FINAL              000000000500000000000000000000000000000000000000000000000000000000000000000000000000000000000000000000000000000000000000PES00010000001000000000000000020250211
202501080060000400000000000000019702000000000000000197029900000000000000000000CONSUMIDOR FINAL              000000000170000000000000000000000000000000000000000000000000000000000000000000000000000000000000000000000000000000000000PES00010000001000000000000000020250211
202501080060000400000000000000019703000000000000000197039900000000000000000000CONSUMIDOR FINAL              000000000400000000000000000000000000000000000000000000000000000000000000000000000000000000000000000000000000000000000000PES00010000001000000000000000020250211
202501080060000400000000000000019704000000000000000197049900000000000000000000CONSUMIDOR FINAL              000000000721050000000000000000000000000000000000000000000000000000000000000000000000000000000000000000000000000000000000PES00010000001000000000000000020250211
202501080060000400000000000000019705000000000000000197059900000000000000000000CONSUMIDOR FINAL              000000000385000000000000000000000000000000000000000000000000000000000000000000000000000000000000000000000000000000000000PES00010000001000000000000000020250211
202501080060000400000000000000019706000000000000000197069900000000000000000000CONSUMIDOR FINAL              000000000984000000000000000000000000000000000000000000000000000000000000000000000000000000000000000000000000000000000000PES00010000001000000000000000020250211
202501080060000400000000000000019707000000000000000197079900000000000000000000CONSUMIDOR FINAL              000000010998000000000000000000000000000000000000000000000000000000000000000000000000000000000000000000000000000000000000PES00010000001000000000000000020250211
202501080060000400000000000000019708000000000000000197089900000000000000000000CONSUMIDOR FINAL              000000000930431000000000000000000000000000000000000000000000000000000000000000000000000000000000000000000000000000000000PES00010000001000000000000000020250211
202501090060000400000000000000019709000000000000000197099900000000000000000000CONSUMIDOR FINAL              000000002527340000000000000000000000000000000000000000000000000000000000000000000000000000000000000000000000000000000000PES00010000001000000000000000020250211
202501090060000400000000000000019710000000000000000197109900000000000000000000CONSUMIDOR FINAL              000000000500000000000000000000000000000000000000000000000000000000000000000000000000000000000000000000000000000000000000PES00010000001000000000000000020250211
202501090060000400000000000000019711000000000000000197119900000000000000000000CONSUMIDOR FINAL              000000000520850000000000000000000000000000000000000000000000000000000000000000000000000000000000000000000000000000000000PES00010000001000000000000000020250211
202501090010000400000000000000001314000000000000000013148000000000030605464250FORNER S.R.L.                 000000002530002000000000000000000000000000000000000000000000000000000000000000000000000000000000000000000000000000000000PES00010000002E00000000000000020250211
202501090060000400000000000000019712000000000000000197129900000000000000000000CONSUMIDOR FINAL              000000000200000000000000000000000000000000000000000000000000000000000000000000000000000000000000000000000000000000000000PES00010000001000000000000000020250211
202501090060000400000000000000019713000000000000000197139900000000000000000000CONSUMIDOR FINAL              000000000500000000000000000000000000000000000000000000000000000000000000000000000000000000000000000000000000000000000000PES00010000001000000000000000020250211
202501090010000400000000000000001315000000000000000013158000000000020140414876OLIVA JUAN MANUEL             000000000623007000000000000000000000000000000000000000000000000000000000000000000000000000000000000000000000000000000000PES00010000001000000000000000020250211
202501090060000400000000000000019714000000000000000197149900000000000000000000CONSUMIDOR FINAL              000000000500000000000000000000000000000000000000000000000000000000000000000000000000000000000000000000000000000000000000PES00010000001000000000000000020250211
202501090060000400000000000000019715000000000000000197159900000000000000000000CONSUMIDOR FINAL              000000000233750000000000000000000000000000000000000000000000000000000000000000000000000000000000000000000000000000000000PES00010000001000000000000000020250211
202501090060000400000000000000019716000000000000000197168000000000020082393618PERALTA OSCAR                 000000000200000000000000000000000000000000000000000000000000000000000000000000000000000000000000000000000000000000000000PES00010000001000000000000000020250211
202501090060000400000000000000019717000000000000000197179900000000000000000000CONSUMIDOR FINAL              000000000321600000000000000000000000000000000000000000000000000000000000000000000000000000000000000000000000000000000000PES00010000001000000000000000020250211
202501090060000400000000000000019718000000000000000197189900000000000000000000CONSUMIDOR FINAL              000000000315700000000000000000000000000000000000000000000000000000000000000000000000000000000000000000000000000000000000PES00010000001000000000000000020250211
202501090060000400000000000000019719000000000000000197199900000000000000000000CONSUMIDOR FINAL              000000000263422000000000000000000000000000000000000000000000000000000000000000000000000000000000000000000000000000000000PES00010000001000000000000000020250211
202501090060000400000000000000019720000000000000000197209900000000000000000000CONSUMIDOR FINAL              000000000299736000000000000000000000000000000000000000000000000000000000000000000000000000000000000000000000000000000000PES00010000001000000000000000020250211
202501090060000400000000000000019721000000000000000197219900000000000000000000CONSUMIDOR FINAL              000000000593340000000000000000000000000000000000000000000000000000000000000000000000000000000000000000000000000000000000PES00010000001000000000000000020250211
202501090060000400000000000000019722000000000000000197229900000000000000000000CONSUMIDOR FINAL              000000000398750000000000000000000000000000000000000000000000000000000000000000000000000000000000000000000000000000000000PES00010000001000000000000000020250211
202501090060000400000000000000019723000000000000000197239900000000000000000000CONSUMIDOR FINAL              000000000295136000000000000000000000000000000000000000000000000000000000000000000000000000000000000000000000000000000000PES00010000001000000000000000020250211
202501090060000400000000000000019724000000000000000197249900000000000000000000CONSUMIDOR FINAL              000000010998000000000000000000000000000000000000000000000000000000000000000000000000000000000000000000000000000000000000PES00010000001000000000000000020250211
202501090060000400000000000000019725000000000000000197259900000000000000000000CONSUMIDOR FINAL              000000003994584000000000000000000000000000000000000000000000000000000000000000000000000000000000000000000000000000000000PES00010000001000000000000000020250211
202501090060000400000000000000019726000000000000000197269900000000000000000000CONSUMIDOR FINAL              000000000328350000000000000000000000000000000000000000000000000000000000000000000000000000000000000000000000000000000000PES00010000001000000000000000020250211
202501090060000400000000000000019727000000000000000197279900000000000000000000CONSUMIDOR FINAL              000000000452166000000000000000000000000000000000000000000000000000000000000000000000000000000000000000000000000000000000PES00010000001000000000000000020250211
202501090060000400000000000000019728000000000000000197289900000000000000000000CONSUMIDOR FINAL              000000000500000000000000000000000000000000000000000000000000000000000000000000000000000000000000000000000000000000000000PES00010000001000000000000000020250211
202501090010000400000000000000001316000000000000000013168000000000027180795443CABRILLANA   LILIANA          000000000458150000000000000000000000000000000000000000000000000000000000000000000000000000000000000000000000000000000000PES00010000001000000000000000020250211
202501090060000400000000000000019729000000000000000197299900000000000000000000CONSUMIDOR FINAL              000000000354981000000000000000000000000000000000000000000000000000000000000000000000000000000000000000000000000000000000PES00010000001000000000000000020250211
202501090060000400000000000000019730000000000000000197309900000000000000000000CONSUMIDOR FINAL              000000000260000000000000000000000000000000000000000000000000000000000000000000000000000000000000000000000000000000000000PES00010000001000000000000000020250211
202501090060000400000000000000019731000000000000000197319900000000000000000000CONSUMIDOR FINAL              000000000500000000000000000000000000000000000000000000000000000000000000000000000000000000000000000000000000000000000000PES00010000001000000000000000020250211
202501090060000400000000000000019732000000000000000197329900000000000000000000CONSUMIDOR FINAL              000000000285000000000000000000000000000000000000000000000000000000000000000000000000000000000000000000000000000000000000PES00010000001000000000000000020250211
202501090010000400000000000000001317000000000000000013178000000000030709295817METALURGICA CAMP              000000000744700000000000000000000000000000000000000000000000000000000000000000000000000000000000000000000000000000000000PES00010000002E00000000000000020250211
202501090060000400000000000000019733000000000000000197339900000000000000000000CONSUMIDOR FINAL              000000000393800000000000000000000000000000000000000000000000000000000000000000000000000000000000000000000000000000000000PES00010000001000000000000000020250211
202501090060000400000000000000019734000000000000000197349900000000000000000000CONSUMIDOR FINAL              000000000436821000000000000000000000000000000000000000000000000000000000000000000000000000000000000000000000000000000000PES00010000001000000000000000020250211
202501090060000400000000000000019735000000000000000197359900000000000000000000CONSUMIDOR FINAL              000000009944942000000000000000000000000000000000000000000000000000000000000000000000000000000000000000000000000000000000PES00010000001000000000000000020250211
202501090060000400000000000000019736000000000000000197369900000000000000000000CONSUMIDOR FINAL              000000000299736000000000000000000000000000000000000000000000000000000000000000000000000000000000000000000000000000000000PES00010000001000000000000000020250211
202501100060000400000000000000019737000000000000000197379900000000000000000000CONSUMIDOR FINAL              000000000424034000000000000000000000000000000000000000000000000000000000000000000000000000000000000000000000000000000000PES00010000001000000000000000020250211
2025011000600004000000000000000197380000000000000001973880000000000202222222230                             000000000300000000000000000000000000000000000000000000000000000000000000000000000000000000000000000000000000000000000000PES00010000001000000000000000020250211
202501100060000400000000000000019739000000000000000197399900000000000000000000CONSUMIDOR FINAL              000000002577381000000000000000000000000000000000000000000000000000000000000000000000000000000000000000000000000000000000PES00010000001000000000000000020250211
202501100060000400000000000000019740000000000000000197409900000000000000000000CONSUMIDOR FINAL              000000000497057000000000000000000000000000000000000000000000000000000000000000000000000000000000000000000000000000000000PES00010000001000000000000000020250211
202501100060000400000000000000019741000000000000000197419900000000000000000000CONSUMIDOR FINAL              000000000429780000000000000000000000000000000000000000000000000000000000000000000000000000000000000000000000000000000000PES00010000001000000000000000020250211
202501100060000400000000000000019742000000000000000197429900000000000000000000CONSUMIDOR FINAL              000000000439378000000000000000000000000000000000000000000000000000000000000000000000000000000000000000000000000000000000PES00010000001000000000000000020250211
202501100060000400000000000000019743000000000000000197439900000000000000000000CONSUMIDOR FINAL              000000000400026000000000000000000000000000000000000000000000000000000000000000000000000000000000000000000000000000000000PES00010000001000000000000000020250211
202501100060000400000000000000019744000000000000000197449900000000000000000000CONSUMIDOR FINAL              000000000432850000000000000000000000000000000000000000000000000000000000000000000000000000000000000000000000000000000000PES00010000001000000000000000020250211
202501100060000400000000000000019745000000000000000197459900000000000000000000CONSUMIDOR FINAL              000000000264957000000000000000000000000000000000000000000000000000000000000000000000000000000000000000000000000000000000PES00010000001000000000000000020250211
202501100060000400000000000000019746000000000000000197469900000000000000000000CONSUMIDOR FINAL              000000000246950000000000000000000000000000000000000000000000000000000000000000000000000000000000000000000000000000000000PES00010000001000000000000000020250211
202501100060000400000000000000019747000000000000000197479900000000000000000000CONSUMIDOR FINAL              000000000596921000000000000000000000000000000000000000000000000000000000000000000000000000000000000000000000000000000000PES00010000001000000000000000020250211
202501100060000400000000000000019748000000000000000197489900000000000000000000CONSUMIDOR FINAL              000000000646800000000000000000000000000000000000000000000000000000000000000000000000000000000000000000000000000000000000PES00010000001000000000000000020250211
202501100060000400000000000000019749000000000000000197498000000000020082393618PERALTA OSCAR                 000000000200000000000000000000000000000000000000000000000000000000000000000000000000000000000000000000000000000000000000PES00010000001000000000000000020250211
202501100060000400000000000000019750000000000000000197509900000000000000000000CONSUMIDOR FINAL              000000000399482000000000000000000000000000000000000000000000000000000000000000000000000000000000000000000000000000000000PES00010000001000000000000000020250211
202501100060000400000000000000019751000000000000000197519900000000000000000000CONSUMIDOR FINAL              000000000364650000000000000000000000000000000000000000000000000000000000000000000000000000000000000000000000000000000000PES00010000001000000000000000020250211
202501100010000400000000000000001318000000000000000013188000000000030605464250FORNER S.R.L.                 000000003144900000000000000000000000000000000000000000000000000000000000000000000000000000000000000000000000000000000000PES00010000002E00000000000000020250211
202501100060000400000000000000019752000000000000000197529900000000000000000000CONSUMIDOR FINAL              000000000500000000000000000000000000000000000000000000000000000000000000000000000000000000000000000000000000000000000000PES00010000001000000000000000020250211
202501100060000400000000000000019753000000000000000197539900000000000000000000CONSUMIDOR FINAL              000000000507650000000000000000000000000000000000000000000000000000000000000000000000000000000000000000000000000000000000PES00010000001000000000000000020250211
202501100060000400000000000000019754000000000000000197549900000000000000000000CONSUMIDOR FINAL              000000006091242000000000000000000000000000000000000000000000000000000000000000000000000000000000000000000000000000000000PES00010000001000000000000000020250211
202501100060000400000000000000019755000000000000000197559900000000000000000000CONSUMIDOR FINAL              000000000421002000000000000000000000000000000000000000000000000000000000000000000000000000000000000000000000000000000000PES00010000001000000000000000020250211
202501100060000400000000000000019756000000000000000197569900000000000000000000CONSUMIDOR FINAL              000000000500000000000000000000000000000000000000000000000000000000000000000000000000000000000000000000000000000000000000PES00010000001000000000000000020250211
202501100060000400000000000000019757000000000000000197579900000000000000000000CONSUMIDOR FINAL              000000000572298000000000000000000000000000000000000000000000000000000000000000000000000000000000000000000000000000000000PES00010000001000000000000000020250211
202501100060000400000000000000019758000000000000000197589900000000000000000000CONSUMIDOR FINAL              000000000500000000000000000000000000000000000000000000000000000000000000000000000000000000000000000000000000000000000000PES00010000001000000000000000020250211
202501100060000400000000000000019759000000000000000197599900000000000000000000CONSUMIDOR FINAL              000000001019830000000000000000000000000000000000000000000000000000000000000000000000000000000000000000000000000000000000PES00010000001000000000000000020250211
202501100060000400000000000000019760000000000000000197609900000000000000000000CONSUMIDOR FINAL              000000000570000000000000000000000000000000000000000000000000000000000000000000000000000000000000000000000000000000000000PES00010000001000000000000000020250211
202501100060000400000000000000019761000000000000000197619900000000000000000000CONSUMIDOR FINAL              000000000297693000000000000000000000000000000000000000000000000000000000000000000000000000000000000000000000000000000000PES00010000002E00000000000000020250211
202501100060000400000000000000019762000000000000000197629900000000000000000000CONSUMIDOR FINAL              000000000582452000000000000000000000000000000000000000000000000000000000000000000000000000000000000000000000000000000000PES00010000001000000000000000020250211
202501100060000400000000000000019763000000000000000197639900000000000000000000CONSUMIDOR FINAL              000000000299796000000000000000000000000000000000000000000000000000000000000000000000000000000000000000000000000000000000PES00010000001000000000000000020250211
202501100060000400000000000000019764000000000000000197649900000000000000000000CONSUMIDOR FINAL              000000011598000000000000000000000000000000000000000000000000000000000000000000000000000000000000000000000000000000000000PES00010000001000000000000000020250211
202501100060000400000000000000019765000000000000000197659900000000000000000000CONSUMIDOR FINAL              000000002264567000000000000000000000000000000000000000000000000000000000000000000000000000000000000000000000000000000000PES00010000001000000000000000020250211
202501100060000400000000000000019766000000000000000197669900000000000000000000CONSUMIDOR FINAL              000000000299796000000000000000000000000000000000000000000000000000000000000000000000000000000000000000000000000000000000PES00010000001000000000000000020250211
202501100060000400000000000000019767000000000000000197679900000000000000000000CONSUMIDOR FINAL              000000000232981000000000000000000000000000000000000000000000000000000000000000000000000000000000000000000000000000000000PES00010000001000000000000000020250211
202501100060000400000000000000019768000000000000000197689900000000000000000000CONSUMIDOR FINAL              000000001990000000000000000000000000000000000000000000000000000000000000000000000000000000000000000000000000000000000000PES00010000002000000000000000020250211
202501110060000400000000000000019769000000000000000197699900000000000000000000CONSUMIDOR FINAL              000000000300000000000000000000000000000000000000000000000000000000000000000000000000000000000000000000000000000000000000PES00010000001000000000000000020250211
202501110060000400000000000000019770000000000000000197709900000000000000000000CONSUMIDOR FINAL              000000000458098000000000000000000000000000000000000000000000000000000000000000000000000000000000000000000000000000000000PES00010000001000000000000000020250211
202501110060000400000000000000019771000000000000000197719900000000000000000000CONSUMIDOR FINAL              000000003008521000000000000000000000000000000000000000000000000000000000000000000000000000000000000000000000000000000000PES00010000001000000000000000020250211
202501110060000400000000000000019772000000000000000197729900000000000000000000CONSUMIDOR FINAL              000000000411252000000000000000000000000000000000000000000000000000000000000000000000000000000000000000000000000000000000PES00010000001000000000000000020250211
202501110060000400000000000000019773000000000000000197739900000000000000000000CONSUMIDOR FINAL              000000000500241000000000000000000000000000000000000000000000000000000000000000000000000000000000000000000000000000000000PES00010000001000000000000000020250211
202501110060000400000000000000019774000000000000000197749900000000000000000000CONSUMIDOR FINAL              000000000199969000000000000000000000000000000000000000000000000000000000000000000000000000000000000000000000000000000000PES00010000001000000000000000020250211
202501110060000400000000000000019775000000000000000197759900000000000000000000CONSUMIDOR FINAL              000000000464580000000000000000000000000000000000000000000000000000000000000000000000000000000000000000000000000000000000PES00010000001000000000000000020250211
202501110060000400000000000000019776000000000000000197769900000000000000000000CONSUMIDOR FINAL              000000000410413000000000000000000000000000000000000000000000000000000000000000000000000000000000000000000000000000000000PES00010000001000000000000000020250211
202501110060000400000000000000019777000000000000000197779900000000000000000000CONSUMIDOR FINAL              000000000538820000000000000000000000000000000000000000000000000000000000000000000000000000000000000000000000000000000000PES00010000001000000000000000020250211
202501110060000400000000000000019778000000000000000197789900000000000000000000CONSUMIDOR FINAL              000000000548680000000000000000000000000000000000000000000000000000000000000000000000000000000000000000000000000000000000PES00010000001000000000000000020250211
202501110060000400000000000000019779000000000000000197799900000000000000000000CONSUMIDOR FINAL              000000000500000000000000000000000000000000000000000000000000000000000000000000000000000000000000000000000000000000000000PES00010000001000000000000000020250211
202501110060000400000000000000019780000000000000000197809900000000000000000000CONSUMIDOR FINAL              000000000684381000000000000000000000000000000000000000000000000000000000000000000000000000000000000000000000000000000000PES00010000001000000000000000020250211
202501110060000400000000000000019781000000000000000197818000000000020222222223D                             000000000200000000000000000000000000000000000000000000000000000000000000000000000000000000000000000000000000000000000000PES00010000001000000000000000020250211
202501110060000400000000000000019782000000000000000197829900000000000000000000CONSUMIDOR FINAL              000000000720798000000000000000000000000000000000000000000000000000000000000000000000000000000000000000000000000000000000PES00010000001000000000000000020250211
202501110060000400000000000000019783000000000000000197839900000000000000000000CONSUMIDOR FINAL              000000009140384000000000000000000000000000000000000000000000000000000000000000000000000000000000000000000000000000000000PES00010000001000000000000000020250211
202501110060000400000000000000019784000000000000000197848000000000020222222223RRRUB                         000000000393240000000000000000000000000000000000000000000000000000000000000000000000000000000000000000000000000000000000PES00010000001000000000000000020250211
202501110060000400000000000000019785000000000000000197859900000000000000000000CONSUMIDOR FINAL              000000000500241000000000000000000000000000000000000000000000000000000000000000000000000000000000000000000000000000000000PES00010000001000000000000000020250211
202501110060000400000000000000019786000000000000000197869900000000000000000000CONSUMIDOR FINAL              000000000298602000000000000000000000000000000000000000000000000000000000000000000000000000000000000000000000000000000000PES00010000001000000000000000020250211
202501110060000400000000000000019787000000000000000197879900000000000000000000CONSUMIDOR FINAL              000000000182825000000000000000000000000000000000000000000000000000000000000000000000000000000000000000000000000000000000PES00010000001000000000000000020250211
202501110060000400000000000000019788000000000000000197889900000000000000000000CONSUMIDOR FINAL              000000000299796000000000000000000000000000000000000000000000000000000000000000000000000000000000000000000000000000000000PES00010000001000000000000000020250211
202501110060000400000000000000019789000000000000000197899900000000000000000000CONSUMIDOR FINAL              000000000401360000000000000000000000000000000000000000000000000000000000000000000000000000000000000000000000000000000000PES00010000001000000000000000020250211
202501110060000400000000000000019790000000000000000197909900000000000000000000CONSUMIDOR FINAL              000000000408326000000000000000000000000000000000000000000000000000000000000000000000000000000000000000000000000000000000PES00010000001000000000000000020250211
202501110060000400000000000000019791000000000000000197919900000000000000000000CONSUMIDOR FINAL              000000011356820000000000000000000000000000000000000000000000000000000000000000000000000000000000000000000000000000000000PES00010000001000000000000000020250211
202501110060000400000000000000019792000000000000000197929900000000000000000000CONSUMIDOR FINAL              000000001690000000000000000000000000000000000000000000000000000000000000000000000000000000000000000000000000000000000000PES00010000001000000000000000020250211
202501120060000400000000000000019793000000000000000197939900000000000000000000CONSUMIDOR FINAL              000000000300000000000000000000000000000000000000000000000000000000000000000000000000000000000000000000000000000000000000PES00010000001000000000000000020250211
202501120060000400000000000000019794000000000000000197949900000000000000000000CONSUMIDOR FINAL              000000000300000000000000000000000000000000000000000000000000000000000000000000000000000000000000000000000000000000000000PES00010000001000000000000000020250211
202501120060000400000000000000019797000000000000000197979900000000000000000000CONSUMIDOR FINAL              000000000500000000000000000000000000000000000000000000000000000000000000000000000000000000000000000000000000000000000000PES00010000001000000000000000020250211
202501120060000400000000000000019798000000000000000197989900000000000000000000CONSUMIDOR FINAL              000000000474672000000000000000000000000000000000000000000000000000000000000000000000000000000000000000000000000000000000PES00010000001000000000000000020250211
202501120060000400000000000000019799000000000000000197999900000000000000000000CONSUMIDOR FINAL              000000000152540000000000000000000000000000000000000000000000000000000000000000000000000000000000000000000000000000000000PES00010000001000000000000000020250211
202501120010000400000000000000001319000000000000000013198000000000027239321432CLUAUDIA ANDREA PERA          000000000640320000000000000000000000000000000000000000000000000000000000000000000000000000000000000000000000000000000000PES00010000001000000000000000020250211
202501120060000400000000000000019800000000000000000198009900000000000000000000CONSUMIDOR FINAL              000000000424508000000000000000000000000000000000000000000000000000000000000000000000000000000000000000000000000000000000PES00010000001000000000000000020250211
202501120060000400000000000000019801000000000000000198019900000000000000000000CONSUMIDOR FINAL              000000000338743000000000000000000000000000000000000000000000000000000000000000000000000000000000000000000000000000000000PES00010000001000000000000000020250211
202501120060000400000000000000019802000000000000000198029900000000000000000000CONSUMIDOR FINAL              000000000500241000000000000000000000000000000000000000000000000000000000000000000000000000000000000000000000000000000000PES00010000001000000000000000020250211
202501120060000400000000000000019803000000000000000198039900000000000000000000CONSUMIDOR FINAL              000000000341440000000000000000000000000000000000000000000000000000000000000000000000000000000000000000000000000000000000PES00010000001000000000000000020250211
202501120060000400000000000000019804000000000000000198049900000000000000000000CONSUMIDOR FINAL              000000007605968000000000000000000000000000000000000000000000000000000000000000000000000000000000000000000000000000000000PES00010000001000000000000000020250211
202501120060000400000000000000019805000000000000000198059900000000000000000000CONSUMIDOR FINAL              000000000300000000000000000000000000000000000000000000000000000000000000000000000000000000000000000000000000000000000000PES00010000001000000000000000020250211
202501120060000400000000000000019806000000000000000198069900000000000000000000CONSUMIDOR FINAL              000000000300000000000000000000000000000000000000000000000000000000000000000000000000000000000000000000000000000000000000PES00010000001000000000000000020250211
202501120060000400000000000000019807000000000000000198079900000000000000000000CONSUMIDOR FINAL              000000000170000000000000000000000000000000000000000000000000000000000000000000000000000000000000000000000000000000000000PES00010000001000000000000000020250211
202501120060000400000000000000019808000000000000000198088000000000020082393618PERALTA OSCAR                 000000000200000000000000000000000000000000000000000000000000000000000000000000000000000000000000000000000000000000000000PES00010000001000000000000000020250211
202501120060000400000000000000019809000000000000000198099900000000000000000000CONSUMIDOR FINAL              000000000449320000000000000000000000000000000000000000000000000000000000000000000000000000000000000000000000000000000000PES00010000001000000000000000020250211
202501120060000400000000000000019810000000000000000198109900000000000000000000CONSUMIDOR FINAL              000000000302180000000000000000000000000000000000000000000000000000000000000000000000000000000000000000000000000000000000PES00010000001000000000000000020250211
202501120060000400000000000000019811000000000000000198119900000000000000000000CONSUMIDOR FINAL              000000000226200000000000000000000000000000000000000000000000000000000000000000000000000000000000000000000000000000000000PES00010000001000000000000000020250211
202501120060000400000000000000019812000000000000000198129900000000000000000000CONSUMIDOR FINAL              000000000300000000000000000000000000000000000000000000000000000000000000000000000000000000000000000000000000000000000000PES00010000001000000000000000020250211
202501120060000400000000000000019813000000000000000198139900000000000000000000CONSUMIDOR FINAL              000000000300000000000000000000000000000000000000000000000000000000000000000000000000000000000000000000000000000000000000PES00010000001000000000000000020250211
202501120060000400000000000000019814000000000000000198149900000000000000000000CONSUMIDOR FINAL              000000000874680000000000000000000000000000000000000000000000000000000000000000000000000000000000000000000000000000000000PES00010000001000000000000000020250211
202501120060000400000000000000019815000000000000000198159900000000000000000000CONSUMIDOR FINAL              000000000668160000000000000000000000000000000000000000000000000000000000000000000000000000000000000000000000000000000000PES00010000001000000000000000020250211
202501120060000400000000000000019816000000000000000198169900000000000000000000CONSUMIDOR FINAL              000000000684499000000000000000000000000000000000000000000000000000000000000000000000000000000000000000000000000000000000PES00010000001000000000000000020250211
202501120060000400000000000000019817000000000000000198179900000000000000000000CONSUMIDOR FINAL              000000000414799000000000000000000000000000000000000000000000000000000000000000000000000000000000000000000000000000000000PES00010000002E00000000000000020250211
202501120060000400000000000000019818000000000000000198189900000000000000000000CONSUMIDOR FINAL              000000009209972000000000000000000000000000000000000000000000000000000000000000000000000000000000000000000000000000000000PES00010000001000000000000000020250211
202501130060000400000000000000019819000000000000000198199900000000000000000000CONSUMIDOR FINAL              000000000879708000000000000000000000000000000000000000000000000000000000000000000000000000000000000000000000000000000000PES00010000001000000000000000020250211
202501130060000400000000000000019820000000000000000198208000000000020222222223WW                            000000000555060000000000000000000000000000000000000000000000000000000000000000000000000000000000000000000000000000000000PES00010000001000000000000000020250211
202501130060000400000000000000019821000000000000000198219900000000000000000000CONSUMIDOR FINAL              000000000284200000000000000000000000000000000000000000000000000000000000000000000000000000000000000000000000000000000000PES00010000001000000000000000020250211
202501130060000400000000000000019822000000000000000198229900000000000000000000CONSUMIDOR FINAL              000000000199969000000000000000000000000000000000000000000000000000000000000000000000000000000000000000000000000000000000PES00010000001000000000000000020250211
202501130060000400000000000000019823000000000000000198239900000000000000000000CONSUMIDOR FINAL              000000000477369000000000000000000000000000000000000000000000000000000000000000000000000000000000000000000000000000000000PES00010000001000000000000000020250211
202501130060000400000000000000019824000000000000000198249900000000000000000000CONSUMIDOR FINAL              000000000200000000000000000000000000000000000000000000000000000000000000000000000000000000000000000000000000000000000000PES00010000001000000000000000020250211
202501130060000400000000000000019825000000000000000198259900000000000000000000CONSUMIDOR FINAL              000000000870568000000000000000000000000000000000000000000000000000000000000000000000000000000000000000000000000000000000PES00010000001000000000000000020250211
202501130010000400000000000000001320000000000000000013208000000000030709653020EK LOGISTICA                  000000000371747000000000000000000000000000000000000000000000000000000000000000000000000000000000000000000000000000000000PES00010000001000000000000000020250211
202501130010000400000000000000001321000000000000000013218000000000030605464250FORNER S.R.L.                 000000002954898000000000000000000000000000000000000000000000000000000000000000000000000000000000000000000000000000000000PES00010000002000000000000000020250211
202501130060000400000000000000019826000000000000000198269900000000000000000000CONSUMIDOR FINAL              000000000422820000000000000000000000000000000000000000000000000000000000000000000000000000000000000000000000000000000000PES00010000001000000000000000020250211
202501130060000400000000000000019827000000000000000198279900000000000000000000CONSUMIDOR FINAL              000000000299796000000000000000000000000000000000000000000000000000000000000000000000000000000000000000000000000000000000PES00010000001000000000000000020250211
202501130060000400000000000000019828000000000000000198289900000000000000000000CONSUMIDOR FINAL              000000003400244000000000000000000000000000000000000000000000000000000000000000000000000000000000000000000000000000000000PES00010000001000000000000000020250211
202501130060000400000000000000019829000000000000000198299900000000000000000000CONSUMIDOR FINAL              000000000544620000000000000000000000000000000000000000000000000000000000000000000000000000000000000000000000000000000000PES00010000001000000000000000020250211
202501130060000400000000000000019830000000000000000198309900000000000000000000CONSUMIDOR FINAL              000000000995828000000000000000000000000000000000000000000000000000000000000000000000000000000000000000000000000000000000PES00010000001000000000000000020250211
202501130080000400000000000000000622000000000000000006229900000000000000000000CONSUMIDOR FINAL              000000006919612000000000000000000000000000000000000000000000000000000000000000000000000000000000000000000000000000000000PES00010000002E00000000000000020250211
202501130080000400000000000000000623000000000000000006238000000000020340122810FACUNDO ALONSO                000000008000000000000000000000000000000000000000000000000000000000000000000000000000000000000000000000000000000000000000PES00010000002E00000000000000020250211
202501130080000400000000000000000624000000000000000006248000000000020149626930ANGEL DANILO DITTADI          000000008000000000000000000000000000000000000000000000000000000000000000000000000000000000000000000000000000000000000000PES00010000002E00000000000000020250211
202501130080000400000000000000000625000000000000000006258000000000020227983974DANIEL PEREZ OJEDA            000000008000000000000000000000000000000000000000000000000000000000000000000000000000000000000000000000000000000000000000PES00010000002E00000000000000020250211
202501130080000400000000000000000626000000000000000006268000000000020269228130OSCAR QUIROGA                 000000000750000000000000000000000000000000000000000000000000000000000000000000000000000000000000000000000000000000000000PES00010000002E00000000000000020250211
202501130080000400000000000000000627000000000000000006278000000000020340122810FACUNDO ALONSO                000000003600000000000000000000000000000000000000000000000000000000000000000000000000000000000000000000000000000000000000PES00010000002E00000000000000020250211
202501130060000400000000000000019831000000000000000198319900000000000000000000CONSUMIDOR FINAL              000000000170000000000000000000000000000000000000000000000000000000000000000000000000000000000000000000000000000000000000PES00010000001000000000000000020250211
202501130080000400000000000000000628000000000000000006288000000000020149626930ANGEL DANILO DITTADI          000000004400000000000000000000000000000000000000000000000000000000000000000000000000000000000000000000000000000000000000PES00010000002E00000000000000020250211
202501130080000400000000000000000629000000000000000006298000000000020227983974DANIEL PEREZ OJEDA            000000004400000000000000000000000000000000000000000000000000000000000000000000000000000000000000000000000000000000000000PES00010000002E00000000000000020250211
202501130080000400000000000000000630000000000000000006308000000000020122336736JORGE BELVISO                 000000000850000000000000000000000000000000000000000000000000000000000000000000000000000000000000000000000000000000000000PES00010000002E00000000000000020250211
202501130080000400000000000000000631000000000000000006318000000000020269603160MUNOZ SEBASTIAN               000000000750000000000000000000000000000000000000000000000000000000000000000000000000000000000000000000000000000000000000PES00010000002E00000000000000020250211
202501130080000400000000000000000632000000000000000006328000000000020268299980PABLO PACHECO                 000000000850000000000000000000000000000000000000000000000000000000000000000000000000000000000000000000000000000000000000PES00010000002E00000000000000020250211
202501130080000400000000000000000633000000000000000006338000000000020387563092EMILIANO ORREGO               000000001200000000000000000000000000000000000000000000000000000000000000000000000000000000000000000000000000000000000000PES00010000002E00000000000000020250211
202501130070000400000000000000000004000000000000000000048000000000020387563092EMILIANO ORREGO               000000001200000000000000000000000000000000000000000000000000000000000000000000000000000000000000000000000000000000000000PES00010000002E00000000000000020250211
202501130070000400000000000000000005000000000000000000058000000000020268299980PABLO PACHECO                 000000000850000000000000000000000000000000000000000000000000000000000000000000000000000000000000000000000000000000000000PES00010000002E00000000000000020250211
202501130080000400000000000000000634000000000000000006348000000000020113004933ROBERTO ORREGO                000000000850000000000000000000000000000000000000000000000000000000000000000000000000000000000000000000000000000000000000PES00010000002E00000000000000020250211
202501130080000400000000000000000635000000000000000006358000000000020244263721ORTIZ PEDRO                   000000000850000000000000000000000000000000000000000000000000000000000000000000000000000000000000000000000000000000000000PES00010000002E00000000000000020250211
202501130080000400000000000000000636000000000000000006368000000000020081408263JORGE ROJAS                   000000000750000000000000000000000000000000000000000000000000000000000000000000000000000000000000000000000000000000000000PES00010000002E00000000000000020250211
202501130080000400000000000000000637000000000000000006378000000000020172533958JULIO FERNANDEZ               000000000750000000000000000000000000000000000000000000000000000000000000000000000000000000000000000000000000000000000000PES00010000002E00000000000000020250211
202501130080000400000000000000000638000000000000000006388000000000020294254200ROBERTO FERREYRA              000000000750000000000000000000000000000000000000000000000000000000000000000000000000000000000000000000000000000000000000PES00010000002E00000000000000020250211
202501130080000400000000000000000639000000000000000006398000000000020356918445LUCIANO ESTRELLA              000000000850000000000000000000000000000000000000000000000000000000000000000000000000000000000000000000000000000000000000PES00010000002E00000000000000020250211
202501130080000400000000000000000640000000000000000006408000000000020055230030MANSILLA MIGUEL               000000000850000000000000000000000000000000000000000000000000000000000000000000000000000000000000000000000000000000000000PES00010000002E00000000000000020250211
