202502100010002000000000000000000129000000000000000001298000000000030716119951COMBUSTIBLES ITALO A          000000104161156000000000000000000000000000000000000000000000000000000000000000000000000000000000000000000000000000000000PES00010000001000000000000000020250315
202502180010002000000000000000000130000000000000000001308000000000030716119951COMBUSTIBLES ITALO A          000000162996317000000000000000000000000000000000000000000000000000000000000000000000000000000000000000000000000000000000PES00010000001000000000000000020250315
202502210010002000000000000000000131000000000000000001318000000000030716119951COMBUSTIBLES ITALO A          000000168431046000000000000000000000000000000000000000000000000000000000000000000000000000000000000000000000000000000000PES00010000001000000000000000020250315
202502280060002000000000000000000019000000000000000000198000000000020180823876GUSTAVO LEANDRO TORR          000000051431621000000000000000000000000000000000000000000000000000000000000000000000000000000000000000000000000000000000PES00010000001000000000000000020250315
202502010060000100000000000000043575000000000000000435759900000000000000000000CONSUMIDOR FINAL              000000000441090000000000000000000000000000000000000000000000000000000000000000000000000000000000000000000000000000000000PES00010000002E00000000000000020250315
202502010060000100000000000000043576000000000000000435769900000000000000000000CONSUMIDOR FINAL              000000007774719000000000000000000000000000000000000000000000000000000000000000000000000000000000000000000000000000000000PES00010000001000000000000000020250315
202502010060000100000000000000043577000000000000000435779900000000000000000000CONSUMIDOR FINAL              000000000500540000000000000000000000000000000000000000000000000000000000000000000000000000000000000000000000000000000000PES00010000001000000000000000020250315
202502010060000100000000000000043578000000000000000435789900000000000000000000CONSUMIDOR FINAL              000000000638580000000000000000000000000000000000000000000000000000000000000000000000000000000000000000000000000000000000PES00010000001000000000000000020250315
202502010060000100000000000000043579000000000000000435799900000000000000000000CONSUMIDOR FINAL              000000000498800000000000000000000000000000000000000000000000000000000000000000000000000000000000000000000000000000000000PES00010000001000000000000000020250315
202502010060000100000000000000043580000000000000000435809900000000000000000000CONSUMIDOR FINAL              000000000351480000000000000000000000000000000000000000000000000000000000000000000000000000000000000000000000000000000000PES00010000001000000000000000020250315
202502010060000100000000000000043581000000000000000435819900000000000000000000CONSUMIDOR FINAL              000000000690200000000000000000000000000000000000000000000000000000000000000000000000000000000000000000000000000000000000PES00010000001000000000000000020250315
202502010060000100000000000000043582000000000000000435829900000000000000000000CONSUMIDOR FINAL              000000011598000000000000000000000000000000000000000000000000000000000000000000000000000000000000000000000000000000000000PES00010000001000000000000000020250315
202502010060000100000000000000043583000000000000000435839900000000000000000000CONSUMIDOR FINAL              000000573289200000000000000000000000000000000000000000000000000000000000000000000000000000000000000000000000000000000000PES00010000001000000000000000020250315
202502010010000100000000000000003741000000000000000037418000000000023162780859MARIO ENRIQUE POSTIG          000000000299796000000000000000000000000000000000000000000000000000000000000000000000000000000000000000000000000000000000PES00010000001000000000000000020250315
202502010060000100000000000000043584000000000000000435849900000000000000000000CONSUMIDOR FINAL              000000000356120000000000000000000000000000000000000000000000000000000000000000000000000000000000000000000000000000000000PES00010000001000000000000000020250315
202502010060000100000000000000043585000000000000000435859900000000000000000000CONSUMIDOR FINAL              000000010977507000000000000000000000000000000000000000000000000000000000000000000000000000000000000000000000000000000000PES00010000001000000000000000020250315
202502020060000100000000000000043586000000000000000435869900000000000000000000CONSUMIDOR FINAL              000000484738500000000000000000000000000000000000000000000000000000000000000000000000000000000000000000000000000000000000PES00010000001000000000000000020250315
202502020060000100000000000000043587000000000000000435879900000000000000000000CONSUMIDOR FINAL              000000000352872000000000000000000000000000000000000000000000000000000000000000000000000000000000000000000000000000000000PES00010000001000000000000000020250315
202502020060000100000000000000043588000000000000000435889900000000000000000000CONSUMIDOR FINAL              000000040657900000000000000000000000000000000000000000000000000000000000000000000000000000000000000000000000000000000000PES00010000001000000000000000020250315
202502020010000100000000000000003742000000000000000037428000000000020105149833MIGUEL ANGEL TELLO            000000000588120000000000000000000000000000000000000000000000000000000000000000000000000000000000000000000000000000000000PES00010000001000000000000000020250315
202502020060000100000000000000043589000000000000000435899900000000000000000000CONSUMIDOR FINAL              000000008099463000000000000000000000000000000000000000000000000000000000000000000000000000000000000000000000000000000000PES00010000001000000000000000020250315
202502020060000100000000000000043590000000000000000435909900000000000000000000CONSUMIDOR FINAL              000000000500540000000000000000000000000000000000000000000000000000000000000000000000000000000000000000000000000000000000PES00010000001000000000000000020250315
202502020060000100000000000000043591000000000000000435919900000000000000000000CONSUMIDOR FINAL              000000000522000000000000000000000000000000000000000000000000000000000000000000000000000000000000000000000000000000000000PES00010000001000000000000000020250315
202502020060000100000000000000043592000000000000000435929900000000000000000000CONSUMIDOR FINAL              000000000576288000000000000000000000000000000000000000000000000000000000000000000000000000000000000000000000000000000000PES00010000001000000000000000020250315
202502020060000100000000000000043593000000000000000435939900000000000000000000CONSUMIDOR FINAL              000000000312620000000000000000000000000000000000000000000000000000000000000000000000000000000000000000000000000000000000PES00010000001000000000000000020250315
202502020060000100000000000000043594000000000000000435949900000000000000000000CONSUMIDOR FINAL              000000000605520000000000000000000000000000000000000000000000000000000000000000000000000000000000000000000000000000000000PES00010000001000000000000000020250315
202502020060000100000000000000043595000000000000000435959900000000000000000000CONSUMIDOR FINAL              000000008366217000000000000000000000000000000000000000000000000000000000000000000000000000000000000000000000000000000000PES00010000001000000000000000020250315
202502020060000100000000000000043596000000000000000435969900000000000000000000CONSUMIDOR FINAL              000000000668160000000000000000000000000000000000000000000000000000000000000000000000000000000000000000000000000000000000PES00010000001000000000000000020250315
202502020060000100000000000000043597000000000000000435979900000000000000000000CONSUMIDOR FINAL              000000000288840000000000000000000000000000000000000000000000000000000000000000000000000000000000000000000000000000000000PES00010000001000000000000000020250315
202502030060000100000000000000043598000000000000000435989900000000000000000000CONSUMIDOR FINAL              000000000187920000000000000000000000000000000000000000000000000000000000000000000000000000000000000000000000000000000000PES00010000001000000000000000020250315
202502030010000100000000000000003743000000000000000037438000000000030605464250FORNER S.R.L.                 000000135000200000000000000000000000000000000000000000000000000000000000000000000000000000000000000000000000000000000000PES00010000001000000000000000020250315
202502030010000100000000000000003744000000000000000037448000000000030605464250FORNER S.R.L.                 000000135000200000000000000000000000000000000000000000000000000000000000000000000000000000000000000000000000000000000000PES00010000001000000000000000020250315
202502030010000100000000000000003745000000000000000037458000000000030605464250FORNER S.R.L.                 000000000857684000000000000000000000000000000000000000000000000000000000000000000000000000000000000000000000000000000000PES00010000001000000000000000020250315
202502030060000100000000000000043599000000000000000435999900000000000000000000CONSUMIDOR FINAL              000000003557687000000000000000000000000000000000000000000000000000000000000000000000000000000000000000000000000000000000PES00010000001000000000000000020250315
202502030060000100000000000000043600000000000000000436009900000000000000000000CONSUMIDOR FINAL              000000000514460000000000000000000000000000000000000000000000000000000000000000000000000000000000000000000000000000000000PES00010000001000000000000000020250315
202502030060000100000000000000043601000000000000000436019900000000000000000000CONSUMIDOR FINAL              000000029700800000000000000000000000000000000000000000000000000000000000000000000000000000000000000000000000000000000000PES00010000001000000000000000020250315
202502030010000100000000000000003746000000000000000037468000000000030605464250FORNER S.R.L.                 000000135000200000000000000000000000000000000000000000000000000000000000000000000000000000000000000000000000000000000000PES00010000001000000000000000020250315
202502030010000100000000000000003747000000000000000037478000000000030605464250FORNER S.R.L.                 000000135000200000000000000000000000000000000000000000000000000000000000000000000000000000000000000000000000000000000000PES00010000001000000000000000020250315
202502030010000100000000000000003748000000000000000037488000000000030605464250FORNER S.R.L.                 000000135000200000000000000000000000000000000000000000000000000000000000000000000000000000000000000000000000000000000000PES00010000001000000000000000020250315
202502030010000100000000000000003749000000000000000037498000000000030605464250FORNER S.R.L.                 000000135000200000000000000000000000000000000000000000000000000000000000000000000000000000000000000000000000000000000000PES00010000001000000000000000020250315
202502030010000100000000000000003750000000000000000037508000000000030605464250FORNER S.R.L.                 000000135000200000000000000000000000000000000000000000000000000000000000000000000000000000000000000000000000000000000000PES00010000001000000000000000020250315
202502030010000100000000000000003751000000000000000037518000000000030605464250FORNER S.R.L.                 000000135000200000000000000000000000000000000000000000000000000000000000000000000000000000000000000000000000000000000000PES00010000001000000000000000020250315
202502030010000100000000000000003752000000000000000037528000000000030605464250FORNER S.R.L.                 000000135000200000000000000000000000000000000000000000000000000000000000000000000000000000000000000000000000000000000000PES00010000001000000000000000020250315
202502030010000100000000000000003753000000000000000037538000000000030605464250FORNER S.R.L.                 000000123580800000000000000000000000000000000000000000000000000000000000000000000000000000000000000000000000000000000000PES00010000001000000000000000020250315
202502030060000100000000000000043602000000000000000436029900000000000000000000CONSUMIDOR FINAL              000000010685817000000000000000000000000000000000000000000000000000000000000000000000000000000000000000000000000000000000PES00010000001000000000000000020250315
202502030060000100000000000000043603000000000000000436039900000000000000000000CONSUMIDOR FINAL              000000000000997000000000000000000000000000000000000000000000000000000000000000000000000000000000000000000000000000000000PES00010000001000000000000000020250315
202502030060000100000000000000043604000000000000000436049900000000000000000000CONSUMIDOR FINAL              000000000681120000000000000000000000000000000000000000000000000000000000000000000000000000000000000000000000000000000000PES00010000002E00000000000000020250315
202502030060000100000000000000043605000000000000000436059900000000000000000000CONSUMIDOR FINAL              000000000777258000000000000000000000000000000000000000000000000000000000000000000000000000000000000000000000000000000000PES00010000002E00000000000000020250315
202502030010000100000000000000003754000000000000000037548000000000020230018511BORONAT EDUARDO               000000000765600000000000000000000000000000000000000000000000000000000000000000000000000000000000000000000000000000000000PES00010000001000000000000000020250315
202502030060000100000000000000043606000000000000000436069900000000000000000000CONSUMIDOR FINAL              000000000170520000000000000000000000000000000000000000000000000000000000000000000000000000000000000000000000000000000000PES00010000001000000000000000020250315
202502030060000100000000000000043607000000000000000436079900000000000000000000CONSUMIDOR FINAL              000000000430940000000000000000000000000000000000000000000000000000000000000000000000000000000000000000000000000000000000PES00010000001000000000000000020250315
202502030060000100000000000000043608000000000000000436089900000000000000000000CONSUMIDOR FINAL              000000000732540000000000000000000000000000000000000000000000000000000000000000000000000000000000000000000000000000000000PES00010000001000000000000000020250315
202502030060000100000000000000043609000000000000000436099900000000000000000000CONSUMIDOR FINAL              000000000540560000000000000000000000000000000000000000000000000000000000000000000000000000000000000000000000000000000000PES00010000001000000000000000020250315
202502030010000100000000000000003755000000000000000037558000000000030605464250FORNER S.R.L.                 000000135000200000000000000000000000000000000000000000000000000000000000000000000000000000000000000000000000000000000000PES00010000001000000000000000020250315
202502030010000100000000000000003756000000000000000037568000000000030605464250FORNER S.R.L.                 000000135000200000000000000000000000000000000000000000000000000000000000000000000000000000000000000000000000000000000000PES00010000001000000000000000020250315
202502030010000100000000000000003757000000000000000037578000000000030605464250FORNER S.R.L.                 000000135000200000000000000000000000000000000000000000000000000000000000000000000000000000000000000000000000000000000000PES00010000001000000000000000020250315
202502030010000100000000000000003758000000000000000037588000000000030605464250FORNER S.R.L.                 000000135000200000000000000000000000000000000000000000000000000000000000000000000000000000000000000000000000000000000000PES00010000001000000000000000020250315
202502030010000100000000000000003759000000000000000037598000000000030605464250FORNER S.R.L.                 000000135000200000000000000000000000000000000000000000000000000000000000000000000000000000000000000000000000000000000000PES00010000001000000000000000020250315
202502030010000100000000000000003760000000000000000037608000000000030605464250FORNER S.R.L.                 000000135000200000000000000000000000000000000000000000000000000000000000000000000000000000000000000000000000000000000000PES00010000001000000000000000020250315
202502030010000100000000000000003761000000000000000037618000000000030605464250FORNER S.R.L.                 000000000946513000000000000000000000000000000000000000000000000000000000000000000000000000000000000000000000000000000000PES00010000001000000000000000020250315
202502030060000100000000000000043610000000000000000436109900000000000000000000CONSUMIDOR FINAL              000000009046498000000000000000000000000000000000000000000000000000000000000000000000000000000000000000000000000000000000PES00010000001000000000000000020250315
202502030060000100000000000000043611000000000000000436119900000000000000000000CONSUMIDOR FINAL              000000000388368000000000000000000000000000000000000000000000000000000000000000000000000000000000000000000000000000000000PES00010000001000000000000000020250315
202502030060000100000000000000043612000000000000000436129900000000000000000000CONSUMIDOR FINAL              000000000219996000000000000000000000000000000000000000000000000000000000000000000000000000000000000000000000000000000000PES00010000001000000000000000020250315
202502030060000100000000000000043613000000000000000436139900000000000000000000CONSUMIDOR FINAL              000000000609475000000000000000000000000000000000000000000000000000000000000000000000000000000000000000000000000000000000PES00010000001000000000000000020250315
202502030060000100000000000000043614000000000000000436149900000000000000000000CONSUMIDOR FINAL              000000000673844000000000000000000000000000000000000000000000000000000000000000000000000000000000000000000000000000000000PES00010000001000000000000000020250315
202502030060000100000000000000043615000000000000000436159900000000000000000000CONSUMIDOR FINAL              000000000663406000000000000000000000000000000000000000000000000000000000000000000000000000000000000000000000000000000000PES00010000001000000000000000020250315
202502030060000100000000000000043616000000000000000436169900000000000000000000CONSUMIDOR FINAL              000000000711537000000000000000000000000000000000000000000000000000000000000000000000000000000000000000000000000000000000PES00010000001000000000000000020250315
202502030060000100000000000000043617000000000000000436179900000000000000000000CONSUMIDOR FINAL              000000000497554000000000000000000000000000000000000000000000000000000000000000000000000000000000000000000000000000000000PES00010000001000000000000000020250315
202502030060000100000000000000043618000000000000000436189900000000000000000000CONSUMIDOR FINAL              000000000481897000000000000000000000000000000000000000000000000000000000000000000000000000000000000000000000000000000000PES00010000001000000000000000020250315
202502040060000100000000000000043619000000000000000436199900000000000000000000CONSUMIDOR FINAL              000000000448920000000000000000000000000000000000000000000000000000000000000000000000000000000000000000000000000000000000PES00010000001000000000000000020250315
202502040060000100000000000000043620000000000000000436209900000000000000000000CONSUMIDOR FINAL              000000002433840000000000000000000000000000000000000000000000000000000000000000000000000000000000000000000000000000000000PES00010000001000000000000000020250315
202502040060000100000000000000043621000000000000000436219900000000000000000000CONSUMIDOR FINAL              000000000360760000000000000000000000000000000000000000000000000000000000000000000000000000000000000000000000000000000000PES00010000001000000000000000020250315
202502040060000100000000000000043622000000000000000436229900000000000000000000CONSUMIDOR FINAL              000000000961640000000000000000000000000000000000000000000000000000000000000000000000000000000000000000000000000000000000PES00010000001000000000000000020250315
202502040060000100000000000000043623000000000000000436239900000000000000000000CONSUMIDOR FINAL              000000000341040000000000000000000000000000000000000000000000000000000000000000000000000000000000000000000000000000000000PES00010000001000000000000000020250315
202502040010000100000000000000003762000000000000000037628000000000030709202304EXEDRA CONSTRUCTORA           000000000730220000000000000000000000000000000000000000000000000000000000000000000000000000000000000000000000000000000000PES00010000001000000000000000020250315
202502040060000100000000000000043624000000000000000436249900000000000000000000CONSUMIDOR FINAL              000000011598000000000000000000000000000000000000000000000000000000000000000000000000000000000000000000000000000000000000PES00010000001000000000000000020250315
202502040060000100000000000000043625000000000000000436259900000000000000000000CONSUMIDOR FINAL              000000642703100000000000000000000000000000000000000000000000000000000000000000000000000000000000000000000000000000000000PES00010000001000000000000000020250315
202502040060000100000000000000043626000000000000000436269900000000000000000000CONSUMIDOR FINAL              000000011598000000000000000000000000000000000000000000000000000000000000000000000000000000000000000000000000000000000000PES00010000001000000000000000020250315
202502040060000100000000000000043627000000000000000436279900000000000000000000CONSUMIDOR FINAL              000000603269900000000000000000000000000000000000000000000000000000000000000000000000000000000000000000000000000000000000PES00010000001000000000000000020250315
202502040060000100000000000000043628000000000000000436289900000000000000000000CONSUMIDOR FINAL              000000000199864000000000000000000000000000000000000000000000000000000000000000000000000000000000000000000000000000000000PES00010000001000000000000000020250315
202502040060000100000000000000043629000000000000000436299900000000000000000000CONSUMIDOR FINAL              000000000382800000000000000000000000000000000000000000000000000000000000000000000000000000000000000000000000000000000000PES00010000001000000000000000020250315
202502050060000100000000000000043630000000000000000436309900000000000000000000CONSUMIDOR FINAL              000000000654098000000000000000000000000000000000000000000000000000000000000000000000000000000000000000000000000000000000PES00010000001000000000000000020250315
202502050060000100000000000000043631000000000000000436319900000000000000000000CONSUMIDOR FINAL              000000000197316000000000000000000000000000000000000000000000000000000000000000000000000000000000000000000000000000000000PES00010000001000000000000000020250315
202502050010000100000000000000003764000000000000000037648000000000030605464250FORNER S.R.L.                 000000135000200000000000000000000000000000000000000000000000000000000000000000000000000000000000000000000000000000000000PES00010000001000000000000000020250315
202502050060000100000000000000043632000000000000000436329900000000000000000000CONSUMIDOR FINAL              000000255683800000000000000000000000000000000000000000000000000000000000000000000000000000000000000000000000000000000000PES00010000001000000000000000020250315
202502050060000100000000000000043633000000000000000436339900000000000000000000CONSUMIDOR FINAL              000000000493000000000000000000000000000000000000000000000000000000000000000000000000000000000000000000000000000000000000PES00010000001000000000000000020250315
202502050060000100000000000000043634000000000000000436349900000000000000000000CONSUMIDOR FINAL              000000000674424000000000000000000000000000000000000000000000000000000000000000000000000000000000000000000000000000000000PES00010000001000000000000000020250315
202502050010000100000000000000003766000000000000000037668000000000030605464250FORNER S.R.L.                 000000135000200000000000000000000000000000000000000000000000000000000000000000000000000000000000000000000000000000000000PES00010000001000000000000000020250315
202502050010000100000000000000003767000000000000000037678000000000030605464250FORNER S.R.L.                 000000135000200000000000000000000000000000000000000000000000000000000000000000000000000000000000000000000000000000000000PES00010000001000000000000000020250315
202502050010000100000000000000003768000000000000000037688000000000030605464250FORNER S.R.L.                 000000135000200000000000000000000000000000000000000000000000000000000000000000000000000000000000000000000000000000000000PES00010000001000000000000000020250315
202502050010000100000000000000003769000000000000000037698000000000030605464250FORNER S.R.L.                 000000135000200000000000000000000000000000000000000000000000000000000000000000000000000000000000000000000000000000000000PES00010000001000000000000000020250315
202502050010000100000000000000003770000000000000000037708000000000030605464250FORNER S.R.L.                 000000135000200000000000000000000000000000000000000000000000000000000000000000000000000000000000000000000000000000000000PES00010000001000000000000000020250315
202502050010000100000000000000003771000000000000000037718000000000030605464250FORNER S.R.L.                 000000135000200000000000000000000000000000000000000000000000000000000000000000000000000000000000000000000000000000000000PES00010000001000000000000000020250315
202502050060000100000000000000043635000000000000000436359900000000000000000000CONSUMIDOR FINAL              000000008344819000000000000000000000000000000000000000000000000000000000000000000000000000000000000000000000000000000000PES00010000001000000000000000020250315
202502050060000100000000000000043636000000000000000436369900000000000000000000CONSUMIDOR FINAL              000000000682080000000000000000000000000000000000000000000000000000000000000000000000000000000000000000000000000000000000PES00010000001000000000000000020250315
202502050010000100000000000000003772000000000000000037728000000000030605464250FORNER S.R.L.                 000000135000200000000000000000000000000000000000000000000000000000000000000000000000000000000000000000000000000000000000PES00010000001000000000000000020250315
202502050010000100000000000000003773000000000000000037738000000000030605464250FORNER S.R.L.                 000000135000200000000000000000000000000000000000000000000000000000000000000000000000000000000000000000000000000000000000PES00010000001000000000000000020250315
202502050010000100000000000000003774000000000000000037748000000000030605464250FORNER S.R.L.                 000000135000200000000000000000000000000000000000000000000000000000000000000000000000000000000000000000000000000000000000PES00010000001000000000000000020250315
202502050010000100000000000000003775000000000000000037758000000000030605464250FORNER S.R.L.                 000000135000200000000000000000000000000000000000000000000000000000000000000000000000000000000000000000000000000000000000PES00010000001000000000000000020250315
202502050010000100000000000000003776000000000000000037768000000000030605464250FORNER S.R.L.                 000000135000200000000000000000000000000000000000000000000000000000000000000000000000000000000000000000000000000000000000PES00010000001000000000000000020250315
202502050060000100000000000000043637000000000000000436379900000000000000000000CONSUMIDOR FINAL              000000007399524000000000000000000000000000000000000000000000000000000000000000000000000000000000000000000000000000000000PES00010000001000000000000000020250315
202502050060000100000000000000043638000000000000000436389900000000000000000000CONSUMIDOR FINAL              000000000270860000000000000000000000000000000000000000000000000000000000000000000000000000000000000000000000000000000000PES00010000001000000000000000020250315
202502050060000100000000000000043639000000000000000436399900000000000000000000CONSUMIDOR FINAL              000000000495186000000000000000000000000000000000000000000000000000000000000000000000000000000000000000000000000000000000PES00010000001000000000000000020250315
202502050060000100000000000000043640000000000000000436409900000000000000000000CONSUMIDOR FINAL              000000000358614000000000000000000000000000000000000000000000000000000000000000000000000000000000000000000000000000000000PES00010000002E00000000000000020250315
202502060060000100000000000000043641000000000000000436419900000000000000000000CONSUMIDOR FINAL              000000000302760000000000000000000000000000000000000000000000000000000000000000000000000000000000000000000000000000000000PES00010000001000000000000000020250315
202502060010000100000000000000003777000000000000000037778000000000030605464250FORNER S.R.L.                 000000135000200000000000000000000000000000000000000000000000000000000000000000000000000000000000000000000000000000000000PES00010000001000000000000000020250315
202502060010000100000000000000003778000000000000000037788000000000030605464250FORNER S.R.L.                 000000001164735000000000000000000000000000000000000000000000000000000000000000000000000000000000000000000000000000000000PES00010000001000000000000000020250315
202502060060000100000000000000043642000000000000000436429900000000000000000000CONSUMIDOR FINAL              000000251473700000000000000000000000000000000000000000000000000000000000000000000000000000000000000000000000000000000000PES00010000001000000000000000020250315
202502060060000100000000000000043643000000000000000436439900000000000000000000CONSUMIDOR FINAL              000000000499960000000000000000000000000000000000000000000000000000000000000000000000000000000000000000000000000000000000PES00010000001000000000000000020250315
202502060060000100000000000000043644000000000000000436449900000000000000000000CONSUMIDOR FINAL              000000000527220000000000000000000000000000000000000000000000000000000000000000000000000000000000000000000000000000000000PES00010000001000000000000000020250315
202502060010000100000000000000003779000000000000000037798000000000030605464250FORNER S.R.L.                 000000135000200000000000000000000000000000000000000000000000000000000000000000000000000000000000000000000000000000000000PES00010000001000000000000000020250315
202502060010000100000000000000003780000000000000000037808000000000030605464250FORNER S.R.L.                 000000135000200000000000000000000000000000000000000000000000000000000000000000000000000000000000000000000000000000000000PES00010000001000000000000000020250315
202502060010000100000000000000003781000000000000000037818000000000030605464250FORNER S.R.L.                 000000135000200000000000000000000000000000000000000000000000000000000000000000000000000000000000000000000000000000000000PES00010000001000000000000000020250315
202502060010000100000000000000003782000000000000000037828000000000030605464250FORNER S.R.L.                 000000135000200000000000000000000000000000000000000000000000000000000000000000000000000000000000000000000000000000000000PES00010000001000000000000000020250315
202502060010000100000000000000003783000000000000000037838000000000030605464250FORNER S.R.L.                 000000135000200000000000000000000000000000000000000000000000000000000000000000000000000000000000000000000000000000000000PES00010000001000000000000000020250315
202502060010000100000000000000003784000000000000000037848000000000030605464250FORNER S.R.L.                 000000135000200000000000000000000000000000000000000000000000000000000000000000000000000000000000000000000000000000000000PES00010000001000000000000000020250315
202502060010000100000000000000003785000000000000000037858000000000030605464250FORNER S.R.L.                 000000001022398000000000000000000000000000000000000000000000000000000000000000000000000000000000000000000000000000000000PES00010000001000000000000000020250315
202502060060000100000000000000043645000000000000000436459900000000000000000000CONSUMIDOR FINAL              000000009122407000000000000000000000000000000000000000000000000000000000000000000000000000000000000000000000000000000000PES00010000001000000000000000020250315
202502060060000100000000000000043646000000000000000436469900000000000000000000CONSUMIDOR FINAL              000000000299796000000000000000000000000000000000000000000000000000000000000000000000000000000000000000000000000000000000PES00010000001000000000000000020250315
202502060060000100000000000000043647000000000000000436479900000000000000000000CONSUMIDOR FINAL              000000000960480000000000000000000000000000000000000000000000000000000000000000000000000000000000000000000000000000000000PES00010000001000000000000000020250315
202502060060000100000000000000043648000000000000000436489900000000000000000000CONSUMIDOR FINAL              000000000469800000000000000000000000000000000000000000000000000000000000000000000000000000000000000000000000000000000000PES00010000001000000000000000020250315
202502060010000100000000000000003786000000000000000037868000000000030605464250FORNER S.R.L.                 000000135000200000000000000000000000000000000000000000000000000000000000000000000000000000000000000000000000000000000000PES00010000001000000000000000020250315
202502060010000100000000000000003787000000000000000037878000000000030605464250FORNER S.R.L.                 000000135000200000000000000000000000000000000000000000000000000000000000000000000000000000000000000000000000000000000000PES00010000001000000000000000020250315
202502060010000100000000000000003788000000000000000037888000000000030605464250FORNER S.R.L.                 000000135000200000000000000000000000000000000000000000000000000000000000000000000000000000000000000000000000000000000000PES00010000001000000000000000020250315
202502060010000100000000000000003789000000000000000037898000000000030605464250FORNER S.R.L.                 000000135000200000000000000000000000000000000000000000000000000000000000000000000000000000000000000000000000000000000000PES00010000001000000000000000020250315
202502060010000100000000000000003790000000000000000037908000000000030605464250FORNER S.R.L.                 000000135000200000000000000000000000000000000000000000000000000000000000000000000000000000000000000000000000000000000000PES00010000001000000000000000020250315
202502060010000100000000000000003791000000000000000037918000000000030605464250FORNER S.R.L.                 000000135000200000000000000000000000000000000000000000000000000000000000000000000000000000000000000000000000000000000000PES00010000001000000000000000020250315
202502060010000100000000000000003792000000000000000037928000000000030605464250FORNER S.R.L.                 000000135000200000000000000000000000000000000000000000000000000000000000000000000000000000000000000000000000000000000000PES00010000001000000000000000020250315
202502060010000100000000000000003793000000000000000037938000000000030605464250FORNER S.R.L.                 000000135000200000000000000000000000000000000000000000000000000000000000000000000000000000000000000000000000000000000000PES00010000001000000000000000020250315
202502060010000100000000000000003794000000000000000037948000000000030605464250FORNER S.R.L.                 000000000723762000000000000000000000000000000000000000000000000000000000000000000000000000000000000000000000000000000000PES00010000001000000000000000020250315
202502060060000100000000000000043649000000000000000436499900000000000000000000CONSUMIDOR FINAL              000000011523773000000000000000000000000000000000000000000000000000000000000000000000000000000000000000000000000000000000PES00010000001000000000000000020250315
202502060060000100000000000000043650000000000000000436509900000000000000000000CONSUMIDOR FINAL              000000000328280000000000000000000000000000000000000000000000000000000000000000000000000000000000000000000000000000000000PES00010000001000000000000000020250315
202502060060000100000000000000043651000000000000000436519900000000000000000000CONSUMIDOR FINAL              000000000287100000000000000000000000000000000000000000000000000000000000000000000000000000000000000000000000000000000000PES00010000001000000000000000020250315
202502070060000100000000000000043652000000000000000436529900000000000000000000CONSUMIDOR FINAL              000000000150858000000000000000000000000000000000000000000000000000000000000000000000000000000000000000000000000000000000PES00010000002E00000000000000020250315
202502070060000100000000000000043653000000000000000436539900000000000000000000CONSUMIDOR FINAL              000000000268830000000000000000000000000000000000000000000000000000000000000000000000000000000000000000000000000000000000PES00010000002E00000000000000020250315
202502070010000100000000000000003795000000000000000037958000000000030605464250FORNER S.R.L.                 000000135000200000000000000000000000000000000000000000000000000000000000000000000000000000000000000000000000000000000000PES00010000001000000000000000020250315
202502070010000100000000000000003796000000000000000037968000000000030605464250FORNER S.R.L.                 000000135000200000000000000000000000000000000000000000000000000000000000000000000000000000000000000000000000000000000000PES00010000001000000000000000020250315
202502070060000100000000000000043654000000000000000436549900000000000000000000CONSUMIDOR FINAL              000000003677726000000000000000000000000000000000000000000000000000000000000000000000000000000000000000000000000000000000PES00010000001000000000000000020250315
202502070060000100000000000000043655000000000000000436559900000000000000000000CONSUMIDOR FINAL              000000000476180000000000000000000000000000000000000000000000000000000000000000000000000000000000000000000000000000000000PES00010000001000000000000000020250315
202502070060000100000000000000043656000000000000000436569900000000000000000000CONSUMIDOR FINAL              000000000446600000000000000000000000000000000000000000000000000000000000000000000000000000000000000000000000000000000000PES00010000001000000000000000020250315
202502070010000100000000000000003797000000000000000037978000000000030709157589MOVILSAT COMUNICACIO          000000000441380000000000000000000000000000000000000000000000000000000000000000000000000000000000000000000000000000000000PES00010000001000000000000000020250315
202502070010000100000000000000003798000000000000000037988000000000020184480655ZAPATA ANDRES F.              000000000717228000000000000000000000000000000000000000000000000000000000000000000000000000000000000000000000000000000000PES00010000001000000000000000020250315
202502070060000100000000000000043657000000000000000436579900000000000000000000CONSUMIDOR FINAL              000000000299796000000000000000000000000000000000000000000000000000000000000000000000000000000000000000000000000000000000PES00010000001000000000000000020250315
202502070010000100000000000000003799000000000000000037998000000000030605464250FORNER S.R.L.                 000000135000200000000000000000000000000000000000000000000000000000000000000000000000000000000000000000000000000000000000PES00010000001000000000000000020250315
202502070010000100000000000000003800000000000000000038008000000000030605464250FORNER S.R.L.                 000000135000200000000000000000000000000000000000000000000000000000000000000000000000000000000000000000000000000000000000PES00010000001000000000000000020250315
202502070010000100000000000000003801000000000000000038018000000000030605464250FORNER S.R.L.                 000000135000200000000000000000000000000000000000000000000000000000000000000000000000000000000000000000000000000000000000PES00010000001000000000000000020250315
202502070010000100000000000000003802000000000000000038028000000000030605464250FORNER S.R.L.                 000000135000200000000000000000000000000000000000000000000000000000000000000000000000000000000000000000000000000000000000PES00010000001000000000000000020250315
202502070010000100000000000000003803000000000000000038038000000000030605464250FORNER S.R.L.                 000000135000200000000000000000000000000000000000000000000000000000000000000000000000000000000000000000000000000000000000PES00010000001000000000000000020250315
202502070060000100000000000000043658000000000000000436589900000000000000000000CONSUMIDOR FINAL              000000007996821000000000000000000000000000000000000000000000000000000000000000000000000000000000000000000000000000000000PES00010000001000000000000000020250315
202502070060000100000000000000043659000000000000000436599900000000000000000000CONSUMIDOR FINAL              000000049921300000000000000000000000000000000000000000000000000000000000000000000000000000000000000000000000000000000000PES00010000001000000000000000020250315
202502070060000100000000000000043660000000000000000436609900000000000000000000CONSUMIDOR FINAL              000000000393240000000000000000000000000000000000000000000000000000000000000000000000000000000000000000000000000000000000PES00010000001000000000000000020250315
202502070010000100000000000000003804000000000000000038048000000000023162780859MARIO ENRIQUE POSTIG          000000000349762000000000000000000000000000000000000000000000000000000000000000000000000000000000000000000000000000000000PES00010000001000000000000000020250315
202502070060000100000000000000043661000000000000000436619900000000000000000000CONSUMIDOR FINAL              000000000458780000000000000000000000000000000000000000000000000000000000000000000000000000000000000000000000000000000000PES00010000001000000000000000020250315
202502070060000100000000000000043662000000000000000436629900000000000000000000CONSUMIDOR FINAL              000000000562716000000000000000000000000000000000000000000000000000000000000000000000000000000000000000000000000000000000PES00010000001000000000000000020250315
202502070010000100000000000000003805000000000000000038058000000000030605464250FORNER S.R.L.                 000000135000200000000000000000000000000000000000000000000000000000000000000000000000000000000000000000000000000000000000PES00010000001000000000000000020250315
202502070010000100000000000000003806000000000000000038068000000000030605464250FORNER S.R.L.                 000000135000200000000000000000000000000000000000000000000000000000000000000000000000000000000000000000000000000000000000PES00010000001000000000000000020250315
202502070010000100000000000000003807000000000000000038078000000000030605464250FORNER S.R.L.                 000000135000200000000000000000000000000000000000000000000000000000000000000000000000000000000000000000000000000000000000PES00010000001000000000000000020250315
202502070010000100000000000000003808000000000000000038088000000000030605464250FORNER S.R.L.                 000000135000200000000000000000000000000000000000000000000000000000000000000000000000000000000000000000000000000000000000PES00010000001000000000000000020250315
202502070010000100000000000000003809000000000000000038098000000000030605464250FORNER S.R.L.                 000000135000200000000000000000000000000000000000000000000000000000000000000000000000000000000000000000000000000000000000PES00010000001000000000000000020250315
202502070010000100000000000000003810000000000000000038108000000000030605464250FORNER S.R.L.                 000000135000200000000000000000000000000000000000000000000000000000000000000000000000000000000000000000000000000000000000PES00010000001000000000000000020250315
202502070010000100000000000000003811000000000000000038118000000000030605464250FORNER S.R.L.                 000000135000200000000000000000000000000000000000000000000000000000000000000000000000000000000000000000000000000000000000PES00010000001000000000000000020250315
202502070060000100000000000000043663000000000000000436639900000000000000000000CONSUMIDOR FINAL              000000010688195000000000000000000000000000000000000000000000000000000000000000000000000000000000000000000000000000000000PES00010000001000000000000000020250315
202502070010000100000000000000003812000000000000000038128000000000023162780859MARIO ENRIQUE POSTIG          000000000600173000000000000000000000000000000000000000000000000000000000000000000000000000000000000000000000000000000000PES00010000001000000000000000020250315
202502080060000100000000000000043664000000000000000436649900000000000000000000CONSUMIDOR FINAL              000000000211932000000000000000000000000000000000000000000000000000000000000000000000000000000000000000000000000000000000PES00010000001000000000000000020250315
202502080060000100000000000000043665000000000000000436659900000000000000000000CONSUMIDOR FINAL              000000000221850000000000000000000000000000000000000000000000000000000000000000000000000000000000000000000000000000000000PES00010000002E00000000000000020250315
202502080060000100000000000000043666000000000000000436669900000000000000000000CONSUMIDOR FINAL              000000000429606000000000000000000000000000000000000000000000000000000000000000000000000000000000000000000000000000000000PES00010000002E00000000000000020250315
202502080060000100000000000000043667000000000000000436679900000000000000000000CONSUMIDOR FINAL              000000777355900000000000000000000000000000000000000000000000000000000000000000000000000000000000000000000000000000000000PES00010000001000000000000000020250315
202502080060000100000000000000043668000000000000000436689900000000000000000000CONSUMIDOR FINAL              000000000328280000000000000000000000000000000000000000000000000000000000000000000000000000000000000000000000000000000000PES00010000001000000000000000020250315
202502080060000100000000000000043669000000000000000436699900000000000000000000CONSUMIDOR FINAL              000000000447760000000000000000000000000000000000000000000000000000000000000000000000000000000000000000000000000000000000PES00010000001000000000000000020250315
202502080060000100000000000000043670000000000000000436709900000000000000000000CONSUMIDOR FINAL              000000000537660000000000000000000000000000000000000000000000000000000000000000000000000000000000000000000000000000000000PES00010000001000000000000000020250315
202502080060000100000000000000043671000000000000000436719900000000000000000000CONSUMIDOR FINAL              000000000493290000000000000000000000000000000000000000000000000000000000000000000000000000000000000000000000000000000000PES00010000002E00000000000000020250315
202502080010000100000000000000003813000000000000000038138000000000020230018511BORONAT EDUARDO               000000000904800000000000000000000000000000000000000000000000000000000000000000000000000000000000000000000000000000000000PES00010000001000000000000000020250315
202502080060000100000000000000043672000000000000000436729900000000000000000000CONSUMIDOR FINAL              000000000683240000000000000000000000000000000000000000000000000000000000000000000000000000000000000000000000000000000000PES00010000001000000000000000020250315
202502080010000100000000000000003814000000000000000038148000000000020144417810AMAYA JUAN CARLOS             000000000499660000000000000000000000000000000000000000000000000000000000000000000000000000000000000000000000000000000000PES00010000001000000000000000020250315
202502080060000100000000000000043673000000000000000436739900000000000000000000CONSUMIDOR FINAL              000000000585800000000000000000000000000000000000000000000000000000000000000000000000000000000000000000000000000000000000PES00010000001000000000000000020250315
202502080060000100000000000000043674000000000000000436749900000000000000000000CONSUMIDOR FINAL              000000011598000000000000000000000000000000000000000000000000000000000000000000000000000000000000000000000000000000000000PES00010000001000000000000000020250315
202502080060000100000000000000043675000000000000000436759900000000000000000000CONSUMIDOR FINAL              000000007549138000000000000000000000000000000000000000000000000000000000000000000000000000000000000000000000000000000000PES00010000001000000000000000020250315
202502080060000100000000000000043676000000000000000436769900000000000000000000CONSUMIDOR FINAL              000000000578260000000000000000000000000000000000000000000000000000000000000000000000000000000000000000000000000000000000PES00010000001000000000000000020250315
202502090060000100000000000000043677000000000000000436779900000000000000000000CONSUMIDOR FINAL              000000000299860000000000000000000000000000000000000000000000000000000000000000000000000000000000000000000000000000000000PES00010000001000000000000000020250315
202502090060000100000000000000043678000000000000000436789900000000000000000000CONSUMIDOR FINAL              000000000377580000000000000000000000000000000000000000000000000000000000000000000000000000000000000000000000000000000000PES00010000001000000000000000020250315
202502090060000100000000000000043679000000000000000436799900000000000000000000CONSUMIDOR FINAL              000000005368714000000000000000000000000000000000000000000000000000000000000000000000000000000000000000000000000000000000PES00010000001000000000000000020250315
202502090060000100000000000000043680000000000000000436809900000000000000000000CONSUMIDOR FINAL              000000000339300000000000000000000000000000000000000000000000000000000000000000000000000000000000000000000000000000000000PES00010000001000000000000000020250315
202502090060000100000000000000043681000000000000000436819900000000000000000000CONSUMIDOR FINAL              000000011598000000000000000000000000000000000000000000000000000000000000000000000000000000000000000000000000000000000000PES00010000001000000000000000020250315
202502090060000100000000000000043682000000000000000436829900000000000000000000CONSUMIDOR FINAL              000000005485854000000000000000000000000000000000000000000000000000000000000000000000000000000000000000000000000000000000PES00010000001000000000000000020250315
202502090060000100000000000000043683000000000000000436839900000000000000000000CONSUMIDOR FINAL              000000000443120000000000000000000000000000000000000000000000000000000000000000000000000000000000000000000000000000000000PES00010000001000000000000000020250315
202502090060000100000000000000043684000000000000000436849900000000000000000000CONSUMIDOR FINAL              000000007092177000000000000000000000000000000000000000000000000000000000000000000000000000000000000000000000000000000000PES00010000001000000000000000020250315
202502090060000100000000000000043685000000000000000436859900000000000000000000CONSUMIDOR FINAL              000000000528380000000000000000000000000000000000000000000000000000000000000000000000000000000000000000000000000000000000PES00010000001000000000000000020250315
202502090060000100000000000000043686000000000000000436869900000000000000000000CONSUMIDOR FINAL              000000000424386000000000000000000000000000000000000000000000000000000000000000000000000000000000000000000000000000000000PES00010000002E00000000000000020250315
202502090060000100000000000000043687000000000000000436879900000000000000000000CONSUMIDOR FINAL              000000000299796000000000000000000000000000000000000000000000000000000000000000000000000000000000000000000000000000000000PES00010000001000000000000000020250315
202502090060000100000000000000043688000000000000000436889900000000000000000000CONSUMIDOR FINAL              000000011598000000000000000000000000000000000000000000000000000000000000000000000000000000000000000000000000000000000000PES00010000001000000000000000020250315
202502090060000100000000000000043689000000000000000436899900000000000000000000CONSUMIDOR FINAL              000000003078109000000000000000000000000000000000000000000000000000000000000000000000000000000000000000000000000000000000PES00010000001000000000000000020250315
202502100060000100000000000000043690000000000000000436909900000000000000000000CONSUMIDOR FINAL              000000000246384000000000000000000000000000000000000000000000000000000000000000000000000000000000000000000000000000000000PES00010000001000000000000000020250315
202502100010000100000000000000003815000000000000000038158000000000030605464250FORNER S.R.L.                 000000120822100000000000000000000000000000000000000000000000000000000000000000000000000000000000000000000000000000000000PES00010000001000000000000000020250315
202502100060000100000000000000043691000000000000000436919900000000000000000000CONSUMIDOR FINAL              000000120822100000000000000000000000000000000000000000000000000000000000000000000000000000000000000000000000000000000000PES00010000001000000000000000020250315
202502100010000100000000000000003816000000000000000038168000000000020184480655ZAPATA ANDRES F.              000000000412380000000000000000000000000000000000000000000000000000000000000000000000000000000000000000000000000000000000PES00010000001000000000000000020250315
202502100060000100000000000000043692000000000000000436929900000000000000000000CONSUMIDOR FINAL              000000000612480000000000000000000000000000000000000000000000000000000000000000000000000000000000000000000000000000000000PES00010000001000000000000000020250315
202502100060000100000000000000043693000000000000000436939900000000000000000000CONSUMIDOR FINAL              000000000449964000000000000000000000000000000000000000000000000000000000000000000000000000000000000000000000000000000000PES00010000001000000000000000020250315
202502100060000100000000000000043694000000000000000436949900000000000000000000CONSUMIDOR FINAL              000000000264654000000000000000000000000000000000000000000000000000000000000000000000000000000000000000000000000000000000PES00010000002E00000000000000020250315
202502100060000100000000000000043695000000000000000436959900000000000000000000CONSUMIDOR FINAL              000000000371664000000000000000000000000000000000000000000000000000000000000000000000000000000000000000000000000000000000PES00010000001000000000000000020250315
202502100060000100000000000000043696000000000000000436969900000000000000000000CONSUMIDOR FINAL              000000000499892000000000000000000000000000000000000000000000000000000000000000000000000000000000000000000000000000000000PES00010000001000000000000000020250315
202502100060000100000000000000043697000000000000000436979900000000000000000000CONSUMIDOR FINAL              000000000377928000000000000000000000000000000000000000000000000000000000000000000000000000000000000000000000000000000000PES00010000001000000000000000020250315
202502100010000100000000000000003817000000000000000038178000000000030709556076EFMARCO ARGENTINA SR          000000000707600000000000000000000000000000000000000000000000000000000000000000000000000000000000000000000000000000000000PES00010000001000000000000000020250315
202502100060000100000000000000043698000000000000000436989900000000000000000000CONSUMIDOR FINAL              000000000538240000000000000000000000000000000000000000000000000000000000000000000000000000000000000000000000000000000000PES00010000001000000000000000020250315
202502100010000100000000000000003818000000000000000038188000000000030605464250FORNER S.R.L.                 000000135000200000000000000000000000000000000000000000000000000000000000000000000000000000000000000000000000000000000000PES00010000001000000000000000020250315
202502100010000100000000000000003819000000000000000038198000000000030605464250FORNER S.R.L.                 000000135000200000000000000000000000000000000000000000000000000000000000000000000000000000000000000000000000000000000000PES00010000001000000000000000020250315
202502100010000100000000000000003820000000000000000038208000000000030605464250FORNER S.R.L.                 000000135000200000000000000000000000000000000000000000000000000000000000000000000000000000000000000000000000000000000000PES00010000001000000000000000020250315
202502100010000100000000000000003821000000000000000038218000000000030605464250FORNER S.R.L.                 000000135000200000000000000000000000000000000000000000000000000000000000000000000000000000000000000000000000000000000000PES00010000001000000000000000020250315
202502100010000100000000000000003822000000000000000038228000000000030605464250FORNER S.R.L.                 000000135000200000000000000000000000000000000000000000000000000000000000000000000000000000000000000000000000000000000000PES00010000001000000000000000020250315
202502100010000100000000000000003823000000000000000038238000000000030605464250FORNER S.R.L.                 000000135000200000000000000000000000000000000000000000000000000000000000000000000000000000000000000000000000000000000000PES00010000001000000000000000020250315
202502100010000100000000000000003824000000000000000038248000000000030605464250FORNER S.R.L.                 000000000815374000000000000000000000000000000000000000000000000000000000000000000000000000000000000000000000000000000000PES00010000001000000000000000020250315
202502100060000100000000000000043699000000000000000436999900000000000000000000CONSUMIDOR FINAL              000000008915383000000000000000000000000000000000000000000000000000000000000000000000000000000000000000000000000000000000PES00010000001000000000000000020250315
202502100060000100000000000000043700000000000000000437009900000000000000000000CONSUMIDOR FINAL              000000000483140000000000000000000000000000000000000000000000000000000000000000000000000000000000000000000000000000000000PES00010000001000000000000000020250315
202502100010000100000000000000003825000000000000000038258000000000030605464250FORNER S.R.L.                 000000135000200000000000000000000000000000000000000000000000000000000000000000000000000000000000000000000000000000000000PES00010000001000000000000000020250315
202502100060000100000000000000043701000000000000000437019900000000000000000000CONSUMIDOR FINAL              000000164459700000000000000000000000000000000000000000000000000000000000000000000000000000000000000000000000000000000000PES00010000001000000000000000020250315
202502100010000100000000000000003828000000000000000038288000000000030715432133BLO BIENESTAR LOGIS           000000380096000000000000000000000000000000000000000000000000000000000000000000000000000000000000000000000000000000800191PES00010000001000000000000000020250315
202502010060000300000000000000035517000000000000000355179900000000000000000000CONSUMIDOR FINAL              000000000451974000000000000000000000000000000000000000000000000000000000000000000000000000000000000000000000000000000000PES00010000001000000000000000020250315
202502010060000300000000000000035518000000000000000355189900000000000000000000CONSUMIDOR FINAL              000000006151057000000000000000000000000000000000000000000000000000000000000000000000000000000000000000000000000000000000PES00010000001000000000000000020250315
202502010060000300000000000000035519000000000000000355199900000000000000000000CONSUMIDOR FINAL              000000000389345000000000000000000000000000000000000000000000000000000000000000000000000000000000000000000000000000000000PES00010000001000000000000000020250315
202502010010000300000000000000002949000000000000000029498000000000020141492056ARTURO ALEJANDRO ANI          000000049477000000000000000000000000000000000000000000000000000000000000000000000000000000000000000000000000000000000000PES00010000001000000000000000020250315
202502010060000300000000000000035520000000000000000355209900000000000000000000CONSUMIDOR FINAL              000000000170000000000000000000000000000000000000000000000000000000000000000000000000000000000000000000000000000000000000PES00010000001000000000000000020250315
202502010060000300000000000000035521000000000000000355219900000000000000000000CONSUMIDOR FINAL              000000000409177000000000000000000000000000000000000000000000000000000000000000000000000000000000000000000000000000000000PES00010000001000000000000000020250315
202502010060000300000000000000035522000000000000000355229900000000000000000000CONSUMIDOR FINAL              000000000300000000000000000000000000000000000000000000000000000000000000000000000000000000000000000000000000000000000000PES00010000001000000000000000020250315
202502010060000300000000000000035523000000000000000355239900000000000000000000CONSUMIDOR FINAL              000000000433185000000000000000000000000000000000000000000000000000000000000000000000000000000000000000000000000000000000PES00010000001000000000000000020250315
202502010060000300000000000000035524000000000000000355249900000000000000000000CONSUMIDOR FINAL              000000049999900000000000000000000000000000000000000000000000000000000000000000000000000000000000000000000000000000000000PES00010000001000000000000000020250315
202502010010000300000000000000002950000000000000000029508000000000020182690539GARCIA JOSE LUIS              000000000623682000000000000000000000000000000000000000000000000000000000000000000000000000000000000000000000000000000000PES00010000001000000000000000020250315
202502010060000300000000000000035525000000000000000355259900000000000000000000CONSUMIDOR FINAL              000000000616898000000000000000000000000000000000000000000000000000000000000000000000000000000000000000000000000000000000PES00010000001000000000000000020250315
202502010060000300000000000000035526000000000000000355269900000000000000000000CONSUMIDOR FINAL              000000000668404000000000000000000000000000000000000000000000000000000000000000000000000000000000000000000000000000000000PES00010000001000000000000000020250315
202502010060000300000000000000035527000000000000000355279900000000000000000000CONSUMIDOR FINAL              000000000408800000000000000000000000000000000000000000000000000000000000000000000000000000000000000000000000000000000000PES00010000001000000000000000020250315
202502010060000300000000000000035528000000000000000355289900000000000000000000CONSUMIDOR FINAL              000000000630000000000000000000000000000000000000000000000000000000000000000000000000000000000000000000000000000000000000PES00010000001000000000000000020250315
202502010060000300000000000000035529000000000000000355299900000000000000000000CONSUMIDOR FINAL              000000000562619000000000000000000000000000000000000000000000000000000000000000000000000000000000000000000000000000000000PES00010000001000000000000000020250315
202502010060000300000000000000035530000000000000000355309900000000000000000000CONSUMIDOR FINAL              000000000547397000000000000000000000000000000000000000000000000000000000000000000000000000000000000000000000000000000000PES00010000001000000000000000020250315
202502010060000300000000000000035531000000000000000355319900000000000000000000CONSUMIDOR FINAL              000000000377863000000000000000000000000000000000000000000000000000000000000000000000000000000000000000000000000000000000PES00010000001000000000000000020250315
202502010060000300000000000000035532000000000000000355329900000000000000000000CONSUMIDOR FINAL              000000047285100000000000000000000000000000000000000000000000000000000000000000000000000000000000000000000000000000000000PES00010000001000000000000000020250315
202502010060000300000000000000035533000000000000000355339900000000000000000000CONSUMIDOR FINAL              000000011342438000000000000000000000000000000000000000000000000000000000000000000000000000000000000000000000000000000000PES00010000001000000000000000020250315
202502010060000300000000000000035534000000000000000355349900000000000000000000CONSUMIDOR FINAL              000000041240300000000000000000000000000000000000000000000000000000000000000000000000000000000000000000000000000000000000PES00010000001000000000000000020250315
202502010060000300000000000000035535000000000000000355359900000000000000000000CONSUMIDOR FINAL              000000000521910000000000000000000000000000000000000000000000000000000000000000000000000000000000000000000000000000000000PES00010000001000000000000000020250315
202502010060000300000000000000035536000000000000000355369900000000000000000000CONSUMIDOR FINAL              000000000515125000000000000000000000000000000000000000000000000000000000000000000000000000000000000000000000000000000000PES00010000001000000000000000020250315
202502010060000300000000000000035537000000000000000355379900000000000000000000CONSUMIDOR FINAL              000000000442058000000000000000000000000000000000000000000000000000000000000000000000000000000000000000000000000000000000PES00010000001000000000000000020250315
202502010060000300000000000000035538000000000000000355389900000000000000000000CONSUMIDOR FINAL              000000038279800000000000000000000000000000000000000000000000000000000000000000000000000000000000000000000000000000000000PES00010000001000000000000000020250315
202502010060000300000000000000035539000000000000000355399900000000000000000000CONSUMIDOR FINAL              000000000090570000000000000000000000000000000000000000000000000000000000000000000000000000000000000000000000000000000000PES00010000001000000000000000020250315
202502010060000300000000000000035540000000000000000355409900000000000000000000CONSUMIDOR FINAL              000000000615000000000000000000000000000000000000000000000000000000000000000000000000000000000000000000000000000000000000PES00010000001000000000000000020250315
202502010010000300000000000000002951000000000000000029518000000000020266775165PABLO OSCAR NICITO F          000000000300000000000000000000000000000000000000000000000000000000000000000000000000000000000000000000000000000000000000PES00010000001000000000000000020250315
202502010060000300000000000000035541000000000000000355419900000000000000000000CONSUMIDOR FINAL              000000000601240000000000000000000000000000000000000000000000000000000000000000000000000000000000000000000000000000000000PES00010000001000000000000000020250315
202502010060000300000000000000035542000000000000000355429900000000000000000000CONSUMIDOR FINAL              000000069070200000000000000000000000000000000000000000000000000000000000000000000000000000000000000000000000000000000000PES00010000001000000000000000020250315
202502010060000300000000000000035543000000000000000355439900000000000000000000CONSUMIDOR FINAL              000000000419198000000000000000000000000000000000000000000000000000000000000000000000000000000000000000000000000000000000PES00010000001000000000000000020250315
202502010060000300000000000000035544000000000000000355449900000000000000000000CONSUMIDOR FINAL              000000000380003000000000000000000000000000000000000000000000000000000000000000000000000000000000000000000000000000000000PES00010000001000000000000000020250315
202502010060000300000000000000035545000000000000000355459900000000000000000000CONSUMIDOR FINAL              000000079210200000000000000000000000000000000000000000000000000000000000000000000000000000000000000000000000000000000000PES00010000001000000000000000020250315
202502010060000300000000000000035546000000000000000355469900000000000000000000CONSUMIDOR FINAL              000000070409800000000000000000000000000000000000000000000000000000000000000000000000000000000000000000000000000000000000PES00010000001000000000000000020250315
202502010060000300000000000000035547000000000000000355479900000000000000000000CONSUMIDOR FINAL              000000000291748000000000000000000000000000000000000000000000000000000000000000000000000000000000000000000000000000000000PES00010000001000000000000000020250315
202502010060000300000000000000035548000000000000000355489900000000000000000000CONSUMIDOR FINAL              000000000630034000000000000000000000000000000000000000000000000000000000000000000000000000000000000000000000000000000000PES00010000001000000000000000020250315
202502010060000300000000000000035549000000000000000355499900000000000000000000CONSUMIDOR FINAL              000000000658129000000000000000000000000000000000000000000000000000000000000000000000000000000000000000000000000000000000PES00010000001000000000000000020250315
202502010060000300000000000000035550000000000000000355509900000000000000000000CONSUMIDOR FINAL              000000000900000000000000000000000000000000000000000000000000000000000000000000000000000000000000000000000000000000000000PES00010000001000000000000000020250315
202502010060000300000000000000035551000000000000000355519900000000000000000000CONSUMIDOR FINAL              000000000300000000000000000000000000000000000000000000000000000000000000000000000000000000000000000000000000000000000000PES00010000001000000000000000020250315
202502010060000300000000000000035552000000000000000355529900000000000000000000CONSUMIDOR FINAL              000000011598000000000000000000000000000000000000000000000000000000000000000000000000000000000000000000000000000000000000PES00010000001000000000000000020250315
202502010060000300000000000000035553000000000000000355539900000000000000000000CONSUMIDOR FINAL              000000001640189000000000000000000000000000000000000000000000000000000000000000000000000000000000000000000000000000000000PES00010000001000000000000000020250315
202502010060000300000000000000035554000000000000000355549900000000000000000000CONSUMIDOR FINAL              000000000599999000000000000000000000000000000000000000000000000000000000000000000000000000000000000000000000000000000000PES00010000001000000000000000020250315
202502010060000300000000000000035555000000000000000355559900000000000000000000CONSUMIDOR FINAL              000000000363997000000000000000000000000000000000000000000000000000000000000000000000000000000000000000000000000000000000PES00010000001000000000000000020250315
202502020060000300000000000000035556000000000000000355569900000000000000000000CONSUMIDOR FINAL              000000000599999000000000000000000000000000000000000000000000000000000000000000000000000000000000000000000000000000000000PES00010000001000000000000000020250315
202502020060000300000000000000035557000000000000000355579900000000000000000000CONSUMIDOR FINAL              000000000500001000000000000000000000000000000000000000000000000000000000000000000000000000000000000000000000000000000000PES00010000001000000000000000020250315
202502020060000300000000000000035558000000000000000355589900000000000000000000CONSUMIDOR FINAL              000000008525574000000000000000000000000000000000000000000000000000000000000000000000000000000000000000000000000000000000PES00010000001000000000000000020250315
202502020060000300000000000000035559000000000000000355599900000000000000000000CONSUMIDOR FINAL              000000000500297000000000000000000000000000000000000000000000000000000000000000000000000000000000000000000000000000000000PES00010000001000000000000000020250315
202502020060000300000000000000035560000000000000000355609900000000000000000000CONSUMIDOR FINAL              000000000495400000000000000000000000000000000000000000000000000000000000000000000000000000000000000000000000000000000000PES00010000001000000000000000020250315
202502020060000300000000000000035561000000000000000355619900000000000000000000CONSUMIDOR FINAL              000000000455198000000000000000000000000000000000000000000000000000000000000000000000000000000000000000000000000000000000PES00010000001000000000000000020250315
202502020060000300000000000000035562000000000000000355629900000000000000000000CONSUMIDOR FINAL              000000068309800000000000000000000000000000000000000000000000000000000000000000000000000000000000000000000000000000000000PES00010000001000000000000000020250315
202502020060000300000000000000035563000000000000000355639900000000000000000000CONSUMIDOR FINAL              000000000300000000000000000000000000000000000000000000000000000000000000000000000000000000000000000000000000000000000000PES00010000001000000000000000020250315
202502020060000300000000000000035564000000000000000355649900000000000000000000CONSUMIDOR FINAL              000000002750000000000000000000000000000000000000000000000000000000000000000000000000000000000000000000000000000000000000PES00010000001000000000000000020250315
202502020060000300000000000000035565000000000000000355659900000000000000000000CONSUMIDOR FINAL              000000058871500000000000000000000000000000000000000000000000000000000000000000000000000000000000000000000000000000000000PES00010000001000000000000000020250315
202502020060000300000000000000035566000000000000000355669900000000000000000000CONSUMIDOR FINAL              000000001026602000000000000000000000000000000000000000000000000000000000000000000000000000000000000000000000000000000000PES00010000001000000000000000020250315
202502020060000300000000000000035567000000000000000355679900000000000000000000CONSUMIDOR FINAL              000000000497380000000000000000000000000000000000000000000000000000000000000000000000000000000000000000000000000000000000PES00010000001000000000000000020250315
202502020060000300000000000000035568000000000000000355689900000000000000000000CONSUMIDOR FINAL              000000000315000000000000000000000000000000000000000000000000000000000000000000000000000000000000000000000000000000000000PES00010000001000000000000000020250315
202502020060000300000000000000035569000000000000000355699900000000000000000000CONSUMIDOR FINAL              000000000300000000000000000000000000000000000000000000000000000000000000000000000000000000000000000000000000000000000000PES00010000001000000000000000020250315
202502020060000300000000000000035570000000000000000355709900000000000000000000CONSUMIDOR FINAL              000000000720203000000000000000000000000000000000000000000000000000000000000000000000000000000000000000000000000000000000PES00010000001000000000000000020250315
202502020060000300000000000000035571000000000000000355719900000000000000000000CONSUMIDOR FINAL              000000060069700000000000000000000000000000000000000000000000000000000000000000000000000000000000000000000000000000000000PES00010000001000000000000000020250315
202502020060000300000000000000035572000000000000000355729900000000000000000000CONSUMIDOR FINAL              000000006203306000000000000000000000000000000000000000000000000000000000000000000000000000000000000000000000000000000000PES00010000001000000000000000020250315
202502020060000300000000000000035573000000000000000355739900000000000000000000CONSUMIDOR FINAL              000000000720798000000000000000000000000000000000000000000000000000000000000000000000000000000000000000000000000000000000PES00010000001000000000000000020250315
202502020060000300000000000000035574000000000000000355749900000000000000000000CONSUMIDOR FINAL              000000000494249000000000000000000000000000000000000000000000000000000000000000000000000000000000000000000000000000000000PES00010000001000000000000000020250315
202502020060000300000000000000035575000000000000000355759900000000000000000000CONSUMIDOR FINAL              000000000546898000000000000000000000000000000000000000000000000000000000000000000000000000000000000000000000000000000000PES00010000001000000000000000020250315
202502020060000300000000000000035576000000000000000355769900000000000000000000CONSUMIDOR FINAL              000000000562497000000000000000000000000000000000000000000000000000000000000000000000000000000000000000000000000000000000PES00010000001000000000000000020250315
202502020060000300000000000000035577000000000000000355779900000000000000000000CONSUMIDOR FINAL              000000000548007000000000000000000000000000000000000000000000000000000000000000000000000000000000000000000000000000000000PES00010000001000000000000000020250315
202502020060000300000000000000035578000000000000000355789900000000000000000000CONSUMIDOR FINAL              000000000631500000000000000000000000000000000000000000000000000000000000000000000000000000000000000000000000000000000000PES00010000001000000000000000020250315
202502020060000300000000000000035579000000000000000355799900000000000000000000CONSUMIDOR FINAL              000000004813170000000000000000000000000000000000000000000000000000000000000000000000000000000000000000000000000000000000PES00010000001000000000000000020250315
202502020060000300000000000000035580000000000000000355809900000000000000000000CONSUMIDOR FINAL              000000000570970000000000000000000000000000000000000000000000000000000000000000000000000000000000000000000000000000000000PES00010000001000000000000000020250315
202502020060000300000000000000035581000000000000000355819900000000000000000000CONSUMIDOR FINAL              000000000599999000000000000000000000000000000000000000000000000000000000000000000000000000000000000000000000000000000000PES00010000001000000000000000020250315
202502030060000300000000000000035582000000000000000355829900000000000000000000CONSUMIDOR FINAL              000000000250001000000000000000000000000000000000000000000000000000000000000000000000000000000000000000000000000000000000PES00010000001000000000000000020250315
202502030060000300000000000000035583000000000000000355839900000000000000000000CONSUMIDOR FINAL              000000029399700000000000000000000000000000000000000000000000000000000000000000000000000000000000000000000000000000000000PES00010000001000000000000000020250315
202502030060000300000000000000035584000000000000000355849900000000000000000000CONSUMIDOR FINAL              000000001713141000000000000000000000000000000000000000000000000000000000000000000000000000000000000000000000000000000000PES00010000001000000000000000020250315
202502030060000300000000000000035585000000000000000355859900000000000000000000CONSUMIDOR FINAL              000000000485376000000000000000000000000000000000000000000000000000000000000000000000000000000000000000000000000000000000PES00010000001000000000000000020250315
202502030060000300000000000000035586000000000000000355869900000000000000000000CONSUMIDOR FINAL              000000000225465000000000000000000000000000000000000000000000000000000000000000000000000000000000000000000000000000000000PES00010000001000000000000000020250315
202502030060000300000000000000035587000000000000000355879900000000000000000000CONSUMIDOR FINAL              000000000314801000000000000000000000000000000000000000000000000000000000000000000000000000000000000000000000000000000000PES00010000001000000000000000020250315
202502030060000300000000000000035588000000000000000355889900000000000000000000CONSUMIDOR FINAL              000000056418400000000000000000000000000000000000000000000000000000000000000000000000000000000000000000000000000000000000PES00010000001000000000000000020250315
202502030060000300000000000000035589000000000000000355899900000000000000000000CONSUMIDOR FINAL              000000000556356000000000000000000000000000000000000000000000000000000000000000000000000000000000000000000000000000000000PES00010000001000000000000000020250315
202502030060000300000000000000035590000000000000000355909900000000000000000000CONSUMIDOR FINAL              000000051825600000000000000000000000000000000000000000000000000000000000000000000000000000000000000000000000000000000000PES00010000001000000000000000020250315
202502030060000300000000000000035591000000000000000355919900000000000000000000CONSUMIDOR FINAL              000000030739900000000000000000000000000000000000000000000000000000000000000000000000000000000000000000000000000000000000PES00010000001000000000000000020250315
202502030060000300000000000000035592000000000000000355929900000000000000000000CONSUMIDOR FINAL              000000000335501000000000000000000000000000000000000000000000000000000000000000000000000000000000000000000000000000000000PES00010000001000000000000000020250315
202502030060000300000000000000035593000000000000000355939900000000000000000000CONSUMIDOR FINAL              000000000493727000000000000000000000000000000000000000000000000000000000000000000000000000000000000000000000000000000000PES00010000001000000000000000020250315
202502030010000300000000000000002952000000000000000029528000000000030689275490CAMPAGNA SERVICIO TE          000000000339242000000000000000000000000000000000000000000000000000000000000000000000000000000000000000000000000000000000PES00010000001000000000000000020250315
202502030060000300000000000000035594000000000000000355949900000000000000000000CONSUMIDOR FINAL              000000000759002000000000000000000000000000000000000000000000000000000000000000000000000000000000000000000000000000000000PES00010000001000000000000000020250315
202502030060000300000000000000035595000000000000000355959900000000000000000000CONSUMIDOR FINAL              000000076139500000000000000000000000000000000000000000000000000000000000000000000000000000000000000000000000000000000000PES00010000001000000000000000020250315
202502030060000300000000000000035596000000000000000355969900000000000000000000CONSUMIDOR FINAL              000000053230000000000000000000000000000000000000000000000000000000000000000000000000000000000000000000000000000000000000PES00010000001000000000000000020250315
202502030010000300000000000000002953000000000000000029538000000000030605464250FORNER S.R.L.                 000000135000200000000000000000000000000000000000000000000000000000000000000000000000000000000000000000000000000000000000PES00010000001000000000000000020250315
202502030010000300000000000000002954000000000000000029548000000000030605464250FORNER S.R.L.                 000000135000200000000000000000000000000000000000000000000000000000000000000000000000000000000000000000000000000000000000PES00010000001000000000000000020250315
202502030010000300000000000000002955000000000000000029558000000000030605464250FORNER S.R.L.                 000000135000200000000000000000000000000000000000000000000000000000000000000000000000000000000000000000000000000000000000PES00010000001000000000000000020250315
202502030010000300000000000000002956000000000000000029568000000000030605464250FORNER S.R.L.                 000000097054900000000000000000000000000000000000000000000000000000000000000000000000000000000000000000000000000000000000PES00010000001000000000000000020250315
202502030060000300000000000000035597000000000000000355979900000000000000000000CONSUMIDOR FINAL              000000011598000000000000000000000000000000000000000000000000000000000000000000000000000000000000000000000000000000000000PES00010000001000000000000000020250315
202502030060000300000000000000035598000000000000000355989900000000000000000000CONSUMIDOR FINAL              000000011661700000000000000000000000000000000000000000000000000000000000000000000000000000000000000000000000000000000000PES00010000001000000000000000020250315
202502030060000300000000000000035599000000000000000355999900000000000000000000CONSUMIDOR FINAL              000000000489999000000000000000000000000000000000000000000000000000000000000000000000000000000000000000000000000000000000PES00010000001000000000000000020250315
202502030060000300000000000000035600000000000000000356009900000000000000000000CONSUMIDOR FINAL              000000000709399000000000000000000000000000000000000000000000000000000000000000000000000000000000000000000000000000000000PES00010000001000000000000000020250315
202502030060000300000000000000035601000000000000000356019900000000000000000000CONSUMIDOR FINAL              000000000256470000000000000000000000000000000000000000000000000000000000000000000000000000000000000000000000000000000000PES00010000001000000000000000020250315
202502030060000300000000000000035602000000000000000356029900000000000000000000CONSUMIDOR FINAL              000000000562619000000000000000000000000000000000000000000000000000000000000000000000000000000000000000000000000000000000PES00010000001000000000000000020250315
202502030060000300000000000000035603000000000000000356039900000000000000000000CONSUMIDOR FINAL              000000000300000000000000000000000000000000000000000000000000000000000000000000000000000000000000000000000000000000000000PES00010000001000000000000000020250315
202502030060000300000000000000035604000000000000000356049900000000000000000000CONSUMIDOR FINAL              000000000300000000000000000000000000000000000000000000000000000000000000000000000000000000000000000000000000000000000000PES00010000001000000000000000020250315
202502030060000300000000000000035605000000000000000356059900000000000000000000CONSUMIDOR FINAL              000000000528202000000000000000000000000000000000000000000000000000000000000000000000000000000000000000000000000000000000PES00010000001000000000000000020250315
202502030060000300000000000000035606000000000000000356069900000000000000000000CONSUMIDOR FINAL              000000000567838000000000000000000000000000000000000000000000000000000000000000000000000000000000000000000000000000000000PES00010000001000000000000000020250315
202502030060000300000000000000035607000000000000000356079900000000000000000000CONSUMIDOR FINAL              000000039874000000000000000000000000000000000000000000000000000000000000000000000000000000000000000000000000000000000000PES00010000001000000000000000020250315
202502030010000300000000000000002957000000000000000029578000000000030689275490CAMPAGNA SERVICIO TE          000000000567703000000000000000000000000000000000000000000000000000000000000000000000000000000000000000000000000000000000PES00010000001000000000000000020250315
202502030060000300000000000000035608000000000000000356089900000000000000000000CONSUMIDOR FINAL              000000000457499000000000000000000000000000000000000000000000000000000000000000000000000000000000000000000000000000000000PES00010000001000000000000000020250315
202502030060000300000000000000035609000000000000000356099900000000000000000000CONSUMIDOR FINAL              000000000254170000000000000000000000000000000000000000000000000000000000000000000000000000000000000000000000000000000000PES00010000001000000000000000020250315
202502030060000300000000000000035610000000000000000356109900000000000000000000CONSUMIDOR FINAL              000000000545402000000000000000000000000000000000000000000000000000000000000000000000000000000000000000000000000000000000PES00010000001000000000000000020250315
202502030060000300000000000000035611000000000000000356119900000000000000000000CONSUMIDOR FINAL              000000052999900000000000000000000000000000000000000000000000000000000000000000000000000000000000000000000000000000000000PES00010000001000000000000000020250315
202502030060000300000000000000035612000000000000000356128000000000030711555524CREAR ONG                     000000000236874000000000000000000000000000000000000000000000000000000000000000000000000000000000000000000000000000000000PES00010000001000000000000000020250315
202502030060000300000000000000035613000000000000000356139900000000000000000000CONSUMIDOR FINAL              000000060860000000000000000000000000000000000000000000000000000000000000000000000000000000000000000000000000000000000000PES00010000001000000000000000020250315
202502030060000300000000000000035614000000000000000356149900000000000000000000CONSUMIDOR FINAL              000000000060000000000000000000000000000000000000000000000000000000000000000000000000000000000000000000000000000000000000PES00010000001000000000000000020250315
202502030060000300000000000000035615000000000000000356159900000000000000000000CONSUMIDOR FINAL              000000000500512000000000000000000000000000000000000000000000000000000000000000000000000000000000000000000000000000000000PES00010000001000000000000000020250315
202502030060000300000000000000035616000000000000000356169900000000000000000000CONSUMIDOR FINAL              000000000388301000000000000000000000000000000000000000000000000000000000000000000000000000000000000000000000000000000000PES00010000001000000000000000020250315
202502030060000300000000000000035617000000000000000356179900000000000000000000CONSUMIDOR FINAL              000000000300000000000000000000000000000000000000000000000000000000000000000000000000000000000000000000000000000000000000PES00010000001000000000000000020250315
202502030060000300000000000000035618000000000000000356189900000000000000000000CONSUMIDOR FINAL              000000000595499000000000000000000000000000000000000000000000000000000000000000000000000000000000000000000000000000000000PES00010000001000000000000000020250315
202502030060000300000000000000035619000000000000000356199900000000000000000000CONSUMIDOR FINAL              000000000456903000000000000000000000000000000000000000000000000000000000000000000000000000000000000000000000000000000000PES00010000001000000000000000020250315
202502030060000300000000000000035620000000000000000356209900000000000000000000CONSUMIDOR FINAL              000000000520866000000000000000000000000000000000000000000000000000000000000000000000000000000000000000000000000000000000PES00010000001000000000000000020250315
202502030060000300000000000000035621000000000000000356219900000000000000000000CONSUMIDOR FINAL              000000000388301000000000000000000000000000000000000000000000000000000000000000000000000000000000000000000000000000000000PES00010000001000000000000000020250315
202502030060000300000000000000035622000000000000000356229900000000000000000000CONSUMIDOR FINAL              000000000300000000000000000000000000000000000000000000000000000000000000000000000000000000000000000000000000000000000000PES00010000001000000000000000020250315
202502030060000300000000000000035623000000000000000356239900000000000000000000CONSUMIDOR FINAL              000000000315000000000000000000000000000000000000000000000000000000000000000000000000000000000000000000000000000000000000PES00010000001000000000000000020250315
202502030010000300000000000000002958000000000000000029588000000000030605464250FORNER S.R.L.                 000000135000200000000000000000000000000000000000000000000000000000000000000000000000000000000000000000000000000000000000PES00010000001000000000000000020250315
202502030010000300000000000000002959000000000000000029598000000000030605464250FORNER S.R.L.                 000000135000200000000000000000000000000000000000000000000000000000000000000000000000000000000000000000000000000000000000PES00010000001000000000000000020250315
202502030060000300000000000000035624000000000000000356249900000000000000000000CONSUMIDOR FINAL              000000008496753000000000000000000000000000000000000000000000000000000000000000000000000000000000000000000000000000000000PES00010000001000000000000000020250315
202502030060000300000000000000035625000000000000000356259900000000000000000000CONSUMIDOR FINAL              000000000493727000000000000000000000000000000000000000000000000000000000000000000000000000000000000000000000000000000000PES00010000001000000000000000020250315
202502030060000300000000000000035626000000000000000356269900000000000000000000CONSUMIDOR FINAL              000000000300000000000000000000000000000000000000000000000000000000000000000000000000000000000000000000000000000000000000PES00010000001000000000000000020250315
202502030060000300000000000000035627000000000000000356279900000000000000000000CONSUMIDOR FINAL              000000061000200000000000000000000000000000000000000000000000000000000000000000000000000000000000000000000000000000000000PES00010000001000000000000000020250315
202502040060000300000000000000035628000000000000000356289900000000000000000000CONSUMIDOR FINAL              000000000367999000000000000000000000000000000000000000000000000000000000000000000000000000000000000000000000000000000000PES00010000001000000000000000020250315
202502040060000300000000000000035629000000000000000356299900000000000000000000CONSUMIDOR FINAL              000000002372661000000000000000000000000000000000000000000000000000000000000000000000000000000000000000000000000000000000PES00010000001000000000000000020250315
202502040060000300000000000000035630000000000000000356309900000000000000000000CONSUMIDOR FINAL              000000000471285000000000000000000000000000000000000000000000000000000000000000000000000000000000000000000000000000000000PES00010000001000000000000000020250315
202502040060000300000000000000035631000000000000000356319900000000000000000000CONSUMIDOR FINAL              000000000400101000000000000000000000000000000000000000000000000000000000000000000000000000000000000000000000000000000000PES00010000001000000000000000020250315
202502040010000300000000000000002960000000000000000029608000000000020141492056ARTURO ALEJANDRO ANI          000000000603850000000000000000000000000000000000000000000000000000000000000000000000000000000000000000000000000000000000PES00010000001000000000000000020250315
202502040060000300000000000000035632000000000000000356329900000000000000000000CONSUMIDOR FINAL              000000000797478000000000000000000000000000000000000000000000000000000000000000000000000000000000000000000000000000000000PES00010000001000000000000000020250315
202502040060000300000000000000035633000000000000000356339900000000000000000000CONSUMIDOR FINAL              000000000749463000000000000000000000000000000000000000000000000000000000000000000000000000000000000000000000000000000000PES00010000001000000000000000020250315
202502040060000300000000000000035634000000000000000356349900000000000000000000CONSUMIDOR FINAL              000000000456903000000000000000000000000000000000000000000000000000000000000000000000000000000000000000000000000000000000PES00010000001000000000000000020250315
202502040060000300000000000000035635000000000000000356359900000000000000000000CONSUMIDOR FINAL              000000000940001000000000000000000000000000000000000000000000000000000000000000000000000000000000000000000000000000000000PES00010000001000000000000000020250315
202502040060000300000000000000035636000000000000000356369900000000000000000000CONSUMIDOR FINAL              000000000474938000000000000000000000000000000000000000000000000000000000000000000000000000000000000000000000000000000000PES00010000001000000000000000020250315
202502040060000300000000000000035637000000000000000356379900000000000000000000CONSUMIDOR FINAL              000000000607698000000000000000000000000000000000000000000000000000000000000000000000000000000000000000000000000000000000PES00010000001000000000000000020250315
202502040060000300000000000000035638000000000000000356389900000000000000000000CONSUMIDOR FINAL              000000000209999000000000000000000000000000000000000000000000000000000000000000000000000000000000000000000000000000000000PES00010000001000000000000000020250315
202502040060000300000000000000035639000000000000000356399900000000000000000000CONSUMIDOR FINAL              000000000209999000000000000000000000000000000000000000000000000000000000000000000000000000000000000000000000000000000000PES00010000001000000000000000020250315
202502040010000300000000000000002961000000000000000029618000000000020300760113GUERRERO EMILIANO             000000071500500000000000000000000000000000000000000000000000000000000000000000000000000000000000000000000000000000000000PES00010000001000000000000000020250315
202502040060000300000000000000035640000000000000000356409900000000000000000000CONSUMIDOR FINAL              000000000453018000000000000000000000000000000000000000000000000000000000000000000000000000000000000000000000000000000000PES00010000001000000000000000020250315
202502040060000300000000000000035641000000000000000356419900000000000000000000CONSUMIDOR FINAL              000000000726799000000000000000000000000000000000000000000000000000000000000000000000000000000000000000000000000000000000PES00010000001000000000000000020250315
202502040060000300000000000000035642000000000000000356429900000000000000000000CONSUMIDOR FINAL              000000068309800000000000000000000000000000000000000000000000000000000000000000000000000000000000000000000000000000000000PES00010000001000000000000000020250315
202502040060000300000000000000035643000000000000000356439900000000000000000000CONSUMIDOR FINAL              000000000699881000000000000000000000000000000000000000000000000000000000000000000000000000000000000000000000000000000000PES00010000001000000000000000020250315
202502040060000300000000000000035644000000000000000356449900000000000000000000CONSUMIDOR FINAL              000000065350000000000000000000000000000000000000000000000000000000000000000000000000000000000000000000000000000000000000PES00010000001000000000000000020250315
202502040080000300000000000000000048000000000000000000489900000000000000000000CONSUMIDOR FINAL              000000889556800000000000000000000000000000000000000000000000000000000000000000000000000000000000000000000000000000000000PES00010000001000000000000000020250315
202502040060000300000000000000035645000000000000000356459900000000000000000000CONSUMIDOR FINAL              000000000427902000000000000000000000000000000000000000000000000000000000000000000000000000000000000000000000000000000000PES00010000001000000000000000020250315
202502040060000300000000000000035646000000000000000356469900000000000000000000CONSUMIDOR FINAL              000000049999900000000000000000000000000000000000000000000000000000000000000000000000000000000000000000000000000000000000PES00010000001000000000000000020250315
202502040060000300000000000000035647000000000000000356479900000000000000000000CONSUMIDOR FINAL              000000001064174000000000000000000000000000000000000000000000000000000000000000000000000000000000000000000000000000000000PES00010000001000000000000000020250315
202502040060000300000000000000035648000000000000000356489900000000000000000000CONSUMIDOR FINAL              000000000199370000000000000000000000000000000000000000000000000000000000000000000000000000000000000000000000000000000000PES00010000001000000000000000020250315
202502040060000300000000000000035649000000000000000356499900000000000000000000CONSUMIDOR FINAL              000000024217100000000000000000000000000000000000000000000000000000000000000000000000000000000000000000000000000000000000PES00010000001000000000000000020250315
202502040060000300000000000000035650000000000000000356509900000000000000000000CONSUMIDOR FINAL              000000000297489000000000000000000000000000000000000000000000000000000000000000000000000000000000000000000000000000000000PES00010000001000000000000000020250315
202502040060000300000000000000035651000000000000000356519900000000000000000000CONSUMIDOR FINAL              000000000363900000000000000000000000000000000000000000000000000000000000000000000000000000000000000000000000000000000000PES00010000001000000000000000020250315
202502040060000300000000000000035652000000000000000356529900000000000000000000CONSUMIDOR FINAL              000000000498424000000000000000000000000000000000000000000000000000000000000000000000000000000000000000000000000000000000PES00010000001000000000000000020250315
202502040060000300000000000000035653000000000000000356539900000000000000000000CONSUMIDOR FINAL              000000000317802000000000000000000000000000000000000000000000000000000000000000000000000000000000000000000000000000000000PES00010000001000000000000000020250315
202502040060000300000000000000035654000000000000000356549900000000000000000000CONSUMIDOR FINAL              000000000400309000000000000000000000000000000000000000000000000000000000000000000000000000000000000000000000000000000000PES00010000001000000000000000020250315
202502040060000300000000000000035655000000000000000356559900000000000000000000CONSUMIDOR FINAL              000000000135175000000000000000000000000000000000000000000000000000000000000000000000000000000000000000000000000000000000PES00010000001000000000000000020250315
202502040060000300000000000000035656000000000000000356569900000000000000000000CONSUMIDOR FINAL              000000000507297000000000000000000000000000000000000000000000000000000000000000000000000000000000000000000000000000000000PES00010000001000000000000000020250315
202502040060000300000000000000035657000000000000000356579900000000000000000000CONSUMIDOR FINAL              000000000494000000000000000000000000000000000000000000000000000000000000000000000000000000000000000000000000000000000000PES00010000001000000000000000020250315
202502040060000300000000000000035658000000000000000356589900000000000000000000CONSUMIDOR FINAL              000000000684224000000000000000000000000000000000000000000000000000000000000000000000000000000000000000000000000000000000PES00010000001000000000000000020250315
202502040060000300000000000000035659000000000000000356599900000000000000000000CONSUMIDOR FINAL              000000044270400000000000000000000000000000000000000000000000000000000000000000000000000000000000000000000000000000000000PES00010000001000000000000000020250315
202502040010000300000000000000002962000000000000000029628000000000030605464250FORNER S.R.L.                 000000135000200000000000000000000000000000000000000000000000000000000000000000000000000000000000000000000000000000000000PES00010000001000000000000000020250315
